:10000000D4C0EEC0EDC0ECC0EBC0EAC0E9C0E8C0AF
:10001000E7C0D4C2E5C018C4E3C0E2C027C3E0C053
:10002000DFC0DEC0DDC05600200020002500535494
:100030004100455252002050574D3A0043200043A2
:10004000200054656D703A000D0A362073656E739A
:10005000206F66667365743D000D0A352073656E0A
:1000600073206761696E3D000D0A3220493D000D25
:100070000A3120503D000D0A657869743A710D0A05
:10008000000D0A6C6F61643A6C000D0A736176654D
:100090003A73000D0A362073656E73206F666673BF
:1000A00065743D000D0A352073656E7320676169C4
:1000B0006E3D000D0A3220493D000D0A3120503DB1
:1000C00000232320504152414D54455220232320E8
:1000D0002873656C65637420312D3920616E64204E
:1000E0007468656E202B2D20746F206564697429F7
:1000F00000536F6C646572204D656E753A0D0A0091
:100100000D0A74656D702074656D705F6465736948
:100110007265642070776D2074696D656F757420E9
:1001200056696E0D0A004769743A343930622020EE
:1001300020202000423A4F63742020342032303295
:1001400034002020204D41582D536F6C646572207F
:10015000202020002C204769742076657273696F17
:100160006E3A20343930620D0A0023204D61782028
:10017000536F6C646572206275696C64206461748D
:10018000653A4F63742020342032303234006C6F73
:100190006164696E672064656661756C7420706166
:1001A00072616D732E2E2E0D0A0011241FBECFE535
:1001B000D4E0DEBFCDBF10E0A0E6B0E0E4E0F3E1C4
:1001C00002C005900D92A236B107D9F720E0A2E651
:1001D000B0E001C01D92AE3FB207E1F7D9D490C89C
:1001E0000FCF49E150E060E070E088E890E062C83D
:1001F000FC019C01295E3F4F8DEC9BEA4191840FED
:10020000911DE217F307D1F7089588E890E0F0DF39
:100210009093A00080939F0049E150E060E070E07F
:1002200088E890E057C880E091E0C5C2CF93DF93A3
:1002300089E189B910BC82E08BB988E98AB9909AC2
:100240001092F0001092F1001092F2001092F30060
:1002500085E082BF89B7816089BF83E083BF80E486
:1002600087B98FED86B90CD2789488E19EE00FB6FD
:10027000F894A89581BD0FBE91BDA895B2DFC0913D
:100280009F00D091A00088E890E0B2DFC817D9079E
:1002900009F446C08EE891E08ED28CE390E0909312
:1002A00098008093970081E090E090939A0080936B
:1002B00099008AE080938C0080938A0081E080938B
:1002C0008B0084E591E0909389008093880085E01D
:1002D00090E0909396008093950088EC90E0909346
:1002E00094008093930028E532E0309392002093AD
:1002F000910020E931E03093900020938F0090939B
:100300008E0080938D0084E793E190939E0080930C
:100310009D0088EF9FEF90939C0080939B0075DF7A
:1003200081E080937500A8958AE691E044D284E547
:1003300091E041D2A895B7D364E670E080E090E008
:10034000B8D1A89580E0BAD382E491E0BDD381E032
:10035000B5D384E391E0B8D3A8956CE271E080E076
:1003600090E0A7D1A8956CE271E080E090E0A1D187
:10037000A8956CE271E080E090E09BD1A89581E0C7
:100380009DD386E291E0A0D36CE271E080E090E042
:1003900090D1A8956CE271E080E090E08AD1A895B8
:1003A000DF91CF9140CFCF93DF93C7E6D0E041E01C
:1003B00064E08E819F81A1D141E064E08C819D81C8
:1003C0009CD140E063E08881998197D140E064E06E
:1003D0008B899C8992D141E063E08B8D9C8D8DD17E
:1003E0008DE087D18AE0DF91CF9183C10F930B32EB
:1003F00061F4860F971F841795070CF4CA0128171C
:1004000039070CF4C9010F9108950D32A1F7861B2D
:10041000970BF1CF0F93CF93C82F8091AF0081112D
:1004200008C08FEC8C0F8930C8F480ED8C0F80935E
:10043000AF008091AF00823009F483C008F046C05D
:10044000813009F463C0C13709F0AFC01092AE002B
:10045000EADE1092AF00CF910F91089581EF90E006
:10046000AAD181EC90E0A7D18AEB90E0A4D140E042
:1004700063E080919700909198003FD183EB90E0EA
:100480009AD140E063E08091990090919A0035D133
:1004900084EA90E090D140E065E080919D009091E9
:1004A0009E002BD183E990E086D140E064E080910A
:1004B0009B0090919C0021D18AE890E07CD181E85A
:1004C00090E079D186E790E076D1B3CF853009F41A
:1004D00052C0863009F0B7CF0C2F24E630E04CE94B
:1004E0005FEF62E070E080919B0090919C007EDF66
:1004F00090939C0080939B0088E490E05CD140E066
:1005000064E080919B0090919C0019C00C2F28EC16
:1005100030E041E050E061E070E080919700909120
:10052000980064DF90939800809397008FE690E0A6
:1005300042D140E063E08091970090919800DDD037
:1005400082CF0C2F24E130E050E040E061E070E029
:100550008091990090919A0049DF90939A0080933E
:10056000990088E690E027D140E063E0809199000F
:1005700090919A00E4CF0C2F20E737E148EB5BE045
:100580006AE070E080919D0090919E002FDF909333
:100590009E0080939D0089E590E00DD140E065E0EC
:1005A00080919D0090919E00CACFC33711F42DDE3B
:1005B0004DCFCC3609F04FCF14DE4BCF1F920F92A8
:1005C0000FB60F9211248F939F93AF93BF9385E043
:1005D00082BF8091F0009091F100A091F200B09163
:1005E000F3000296A11DB11D8093F0009093F100DD
:1005F000A093F200B093F300BF91AF919F918F91C0
:100600000F900FBE0F901F90189597B1907E8F712D
:10061000982B97B9349A369A3699FECF84B195B112
:100620000895F89490E2899FA001112430E020E021
:1006300080E090E0DC01F901EE0FFF1FE40FF51FF1
:10064000E055FF4F60817181860F971FA11DB11D7D
:100650002F5F3F4F2031310571F7789422E0B69536
:10066000A795979587952A95D1F708951F920F9290
:100670000FB60F9211240F900FBE0F901F90189578
:100680001BBC1ABC82EB8FBD81E08EBDC198B99AAC
:10069000089597FF02C090E080E0811522E0920764
:1006A00014F08FEF91E09BBD8ABD08958AB59BB58C
:1006B00008950F931F930091F0001091F100209185
:1006C000F2003091F300DC01CB01800F911FA21FDB
:1006D000B31F0091F0001091F1002091F2003091D1
:1006E000F30080179107A207B30798F71F910F91A6
:1006F00008955D9BFECF8CB90895BF92CF92DF9293
:10070000EF92FF920F931F93CF93DF937C01162FED
:10071000B42E00E097FF04C0F194E194F10801E0E9
:10072000812FC1E0D0E09AE0111142C011E0C1E098
:10073000D0E02AE007C0CE01289FE001299FD00D1C
:1007400011241F5FC701BE0134D56A30710510F056
:10075000153089F780E2CDDF8DE2011101C080E222
:10076000C8DF8AE0C82ED12C1B1102C08EE2C1DF87
:100770001150C701BE011DD5CB01B6011AD5805D50
:10078000B8DFCE01B60115D5EB01209769F7DF91EF
:10079000CF911F910F91FF90EF90DF90CF90BF907E
:1007A00008959E01929FE001939FD00D11248150E6
:1007B0008130B9F7CFCFCF93DF93EC01FE01849165
:1007C0002196811103C0DF91CF91089592DFF6CF7A
:1007D00080916400811106C090916600809165004F
:1007E0009817D1F310926400809166008F5F809318
:1007F00066008A3010F010926600E0916600F0E02A
:10080000EC50FF4F8081089580916400811118C0E1
:100810009091650080916600891730F480916500A1
:1008200090916600891B0895909165008091660003
:10083000981740F48091650090916600865FF2CF32
:100840008AE0089580E008951F920F920FB60F92EC
:1008500011248F939F93EF93FF93809165008F5F97
:10086000809365008A3010F01092650090916600C8
:1008700080916500981305C0809164008F5F80931C
:100880006400E09165008CB1F0E0EC50FF4F808394
:10089000FF91EF919F918F910F900FBE0F901F903E
:1008A0001895181619065CF021E030E0892B11F438
:1008B00030E020E088279927821B930B089581E080
:1008C00090E0089597FF03C091958195910908954F
:1008D000FA01811101C010828081681718F410821A
:1008E00081E008958F5F808380E00895FA0181118F
:1008F00002C01182108280819181681779072CF0E3
:1009000001969183808380E0089581E008958D9A17
:100910008C9A8E9A8B98939A8F98979A8A98929A93
:10092000B898C09A81E08093600008958B988F9862
:100930008A98B898C09A08958B9A8F9A8A9AB89A8A
:100940000895839B08C080E18799806282998064C2
:10095000B0998068089580E0F7CF84FF0BC0939A28
:1009600085FF0AC0979A86FF09C0929A87FF08C040
:10097000C09A08959398F4CF9798F5CF9298F6CFB0
:10098000C0980895CF93DF939598D0DF949A969A64
:100990000000000000000000000000000000000057
:1009A00080916000D0E0C0E081111CC09698DF917A
:1009B000CF910895219680E080FD22C09698000096
:1009C0000000000000000000000000000000000027
:1009D00000000000000000000000000000008F5F29
:1009E000843051F7AEDF87FF07C0C13D87E0D807ED
:1009F00009F710926000DACFC03DD740BCF2F9CFC2
:100A0000969ADDCFCF93DF93D82FC62FBBDFD1309F
:100A100009F041C0959A9498969A8EDF8C2F807F2A
:100A20009CDF00000000000000000000000000004B
:100A300000000000000000000000000000000000B6
:100A40000000969800000000000000000000000078
:100A50000000000000000000000000000000000096
:100A600000000000969A8C2F8295807F76DF000030
:100A70000000000000000000000000000000000076
:100A80000000000000000000000000000000969838
:100A9000DF91CF914BCF9598BECF682F81E0B2CF39
:100AA000682F80E0AFCF33DF88E2FADF81E0F8DF44
:100AB00086E0F6DF8CE0F4DF82E0F2CF8295880FEB
:100AC000880F807C8068ECCFCF93DF93EC01FE0130
:100AD00084912196811103C0DF91CF910895DDDFCC
:100AE000F6CFCF93C82FC11102C0CF91089580E2F5
:100AF000D4DFC150F8CFAF92BF92DF92EF92FF9256
:100B00000F931F93CF93DF937C01162FD42E00E019
:100B100097FF06C0F194E194F1088DE2BEDF01E099
:100B2000812FC1E0D0E09AE007C09E01929FE001D2
:100B3000939FD00D112481508230B8F78AE0A82EFF
:100B4000B12C1D1102C08EE2A8DF1150C701BE01F9
:100B500030D3CB01B5012DD3009721F4D11610F479
:100B6000002321F0805D99DF01E002C080E295DF83
:100B7000CE01B5011ED3EB01209719F7DF91CF917C
:100B80001F910F91FF90EF90DF90BF90AF9008956D
:100B90004DDBF12CC1E00AE010E032E0432E512C95
:100BA000612C712C46EF842E43E0942EA12CB12CA5
:100BB0005DE5252E312CA89527DE882309F408C28F
:100BC0008091AE008111FEC103DED82F8D3609F071
:100BD000E4C1C093AE0080E01DDC8091F0009091F4
:100BE000F100A091F200B091F3004091A900509162
:100BF000AA006091AB007091AC0084179507A6071E
:100C0000B70708F483C080917C0091E0980F90931F
:100C10007C00913009F0DEC190E080E03ADD809107
:100C20007C00853028F0809167009091680031DD6C
:100C300080917C00813110F010927C0080917D00C9
:100C4000882309F407C280917300811103C2E090E8
:100C50006B00F0906C0080916D0090916E00E81A2E
:100C6000F90AF0927000E0926F00C0907100D0908D
:100C700072002CE330E0D701DFD296010D2C000C7E
:100C8000440B550B620F731F841F951F24E630E041
:100C900040E050E0B5D2F90130936800209367003E
:100CA0002C5A3E4F283A324058F4C701B80195D229
:100CB0006C0D7D1D77FDC9C170937200609371004A
:100CC000E535F14034F084E591E09093680080933D
:100CD0006700809167009091680097FF04C01092B0
:100CE0006800109267008091A9009091AA00A091DD
:100CF000AB00B091AC004096A11DB11D8093A9003E
:100D00009093AA00A093AB00B093AC008091F00048
:100D10009091F100A091F200B091F3004091A500F4
:100D20005091A6006091A7007091A80084179507C4
:100D3000A607B70708F49CC080E067DC7C0180E070
:100D400064DC8E0D9F1D9695879590937F00809310
:100D50007E0082E05ADC2091840030918500820F71
:100D6000931F9093850080938400809186009091DA
:100D700087000196909387008093860020917E00E3
:100D800030917F002A30310508F06DC110927D004E
:100D900010926C0010926B0010927300109274000D
:100DA00080E08CDE82E490E08FDE80916D00909197
:100DB0006E00B80112D2CB0140E063E09CDE8FED03
:100DC0006CDE8FE390E080DE80916B0090916C0090
:100DD000B80103D2CB0140E063E08DDE8FED5DDE34
:100DE0008CE390E071DE81E069DE86E390E06CDE0A
:100DF00080917300882309F45AC182E390E064DE95
:100E00008091820090918300C397F8F08AE290E08D
:100E10005BDE80917A0090917B008A3091050CF422
:100E20006CC180FD6AC164E670E0D7D1CB01B80126
:100E3000D4D1805D32DE41E064E080918200909107
:100E4000830059DE86E290E03FDE8091A50090911C
:100E5000A600A091A700B091A800C296A11DB11D47
:100E60008093A5009093A600A093A700B093A8003C
:100E70008091F0009091F100A091F200B091F30008
:100E80004091A1005091A2006091A3007091A40034
:100E900084179507A607B70708F47DC080917500F1
:100EA000882309F42EC1209186003091870080911B
:100EB000840090918500B9017CD142E3469FC00136
:100EC000479F900D1124B10174D1709383006093FA
:100ED00082006233710528F42630310510F010923B
:100EE0007500109285001092840010928700109275
:100EF000860080917D00882309F456C1809182008C
:100F000090918300C397489728F4809175008111D0
:100F1000C093730081E02091670030916800243510
:100F200031400CF480E046E750E064E170E0DEDC44
:100F3000882309F4EBC0C0937300109274001092E0
:100F400079001092780080917E0090917F009093BC
:100F50008100809380008091A1009091A200A091D7
:100F6000A300B091A40088519C4FAF4FBF4F809316
:100F7000A1009093A200A093A300B093A40081E0ED
:100F80009091AD00911180E08093AD008091AE0012
:100F9000811101C008DAFD2E0ECE20E3F2121DCE23
:100FA000803209F01ACE6CE271E080E090E081DBE3
:100FB00084E19FDB6EE170E080E090E07ADB80E12D
:100FC00098DBFFCF10927D00C093740001DC22DA21
:100FD000DF2D03CE8350823008F021CE81E015DB77
:100FE000A0919D00B0919E009C0126D120E034E0AC
:100FF00040E050E005D180919B0090919C00092E2B
:10100000000CAA0BBB0B69017A01C80ED91EEA1E9F
:10101000FB1E80916D0090916E00092E000CAA0BB2
:10102000BB0BBC01CD016C0D7D1D8E1D9F1DA30151
:101030009201E6D030936E0020936D002530304150
:101040000CF4EDCDC0937C00EACD109272001092AA
:10105000710036CE109268001092670010927200F4
:101060001092710040CE80917400882339F080ED99
:1010700097E090936C0080936B0092CEC0937D00BC
:1010800050E040E02A50310941095109A8ECB0E094
:10109000D9D0A5019401B4D028533F4F4F4F5F4F93
:1010A0006AE0629FC001639F900D1124E2CF80919E
:1010B000AD00882339F080917400882319F08EE206
:1010C00090E09DCE20916700309168004AE0429FF9
:1010D000C001439F900D112488342DE0920754F4F1
:1010E00062E270E07AD0CB0140E062E004DD8CE2A5
:1010F00090E085CE83E690E0F7CF88E290E0E4DCF4
:101100009ACE1092830010928200EBCE209167005D
:10111000309168004091690050916A0069E0649FD5
:10112000C001659F900D1124820F931FB80155D007
:1011300070936A0060936900C901861B970B439600
:10114000879718F0223031056CF580916F009091EF
:101150007000C3973CF580917E0090917F002091B4
:10116000800030918100821B930B853F2FEF920707
:10117000CCF021E00C970CF020E0F22E48E750E094
:1011800068E572E08F2DB2DB809374004AE750E08F
:1011900060E777E18F2DAADB882309F4D4CE109283
:1011A0007D00D1CEF12CEACF109279001092780018
:1011B000D2CEAA1BBB1B51E107C0AA1FBB1FA6179B
:1011C000B70710F0A61BB70B881F991F5A95A9F7F0
:1011D00080959095BC01CD01089597FB072E16F4DC
:1011E000009406D077FD08D0E4DF07FC05D03EF47C
:1011F000909581959F4F0895709561957F4F0895C3
:10120000052E97FB16F400940FD057FD05D024D07F
:1012100007FC02D046F408C05095409530952195C2
:101220003F4F4F4F5F4F0895909580957095619512
:101230007F4F8F4F9F4F089531D0B7FF0895821B86
:10124000930B08952BD0A59F900DB49F900DA49F54
:10125000800D911D11240895A1E21A2EAA1BBB1B1B
:10126000FD010DC0AA1FBB1FEE1FFF1FA217B30772
:10127000E407F50720F0A21BB30BE40BF50B661F88
:10128000771F881F991F1A9469F76095709580954C
:1012900090959B01AC01BD01CF010895A29FB001C3
:1012A000B39FC001A39F01D0B29F700D811D112477
:1012B000911D0895DC01CB01FC01E199FECF06C030
:1012C000FFBBEEBBE09A31960DB20D9241505040FB
:1012D000B8F70895DC01CB0102C02D9105D0415033
:1012E0005040D8F70895262FE199FECF9FBB8EBBC3
:1012F0002DBB0FB6F894E29AE19A0FBE01960895BD
:04130000F894FFCF8F
:021304000100E6
:00000001FF
