:1000000054C06EC06DC06CC06BC06AC069C068C0AF
:1000100067C079C065C015C563C062C022C460C036
:100020005FC05EC05DC05354410045525200432042
:10003000004320005469703A000D0A657869743AEB
:10004000710D0A000D0A696E74657276616C3D006F
:100050000D0A443D000D0A493D00503D0023232078
:10006000434F4E54524F4C2023230D0A00536F6CC4
:10007000646572204D656E753A0D0A002020204D92
:1000800041582D536F6C64657220202020006C6FE6
:100090006164696E672064656661756C7420706167
:1000A00072616D732E2E2E0D0A0011241FBECFE536
:1000B000D4E0DEBFCDBF10E0A0E6B0E0E6EFFEE0AA
:1000C00002C005900D92A236B107D9F710E0A2E662
:1000D000B0E001C01D92A23FB107E1F73BD109C7D3
:1000E0008FCF9C016FEE7DEC40E050E0F901E40F12
:1000F000F51F8081680F711D4F5F5F4F44315105BF
:10010000A9F7CB0108951F920F920FB60F921124F9
:100110008F939F93AF93BF9385E082BF8091E4005C
:100120009091E500A091E600B091E7000296A11D34
:10013000B11D8093E4009093E500A093E600B09396
:10014000E700BF91AF919F918F910F900FBE0F90DD
:100150001F9018951F93182F8DE690E029D48DE5F8
:1001600090E026D48AE590E023D480918D00909190
:100170008E0063E040E0B9D385E590E019D480912A
:100180008F009091900063E040E0AFD380E590E075
:100190000FD4809191009091920063E040E0A5D34C
:1001A00084E490E005D48091820090E063E040E038
:1001B0009CD389E390E0FCD3113711F41092A20094
:1001C0001F91089580916B0090916C0064E041E074
:1001D0008CD38091690090916A0064E041E085D3FE
:1001E000809167009091680063E040E07ED3809149
:1001F00077009091780064E040E077D38DE071D390
:100200008AE06FD30895CF93DF9387E689B910BC56
:1002100082E08BB988E98AB9909A1092E400109232
:10022000E5001092E6001092E70085E082BF89B7F2
:10023000816089BF83E083BF80E487B98FED86B991
:100240001AD378942EE088E190E00FB6F894A89540
:1002500081BD0FBE21BD8FE790E060E070E046E118
:1002600050E021D64091930050919400CFE7D0E028
:10027000FE012FEE3DEC8191280F311D80E0E33926
:10028000F807C9F74217530709F44EC08EE890E00B
:100290008FD38CE390E090938E0080938D0081E06B
:1002A00090E09093900080938F00109292001092B3
:1002B00091008AE0809382008093800081E08093A7
:1002C00081008BE480937F0085E090E090938C0028
:1002D00080938B0028EC30E030938A0020938900D3
:1002E00088E592E0909388008093870080E991E010
:1002F0009093860080938500309384002093830040
:100300002FEE3DEC8991280F311D80E0C339D807CD
:10031000C9F73093940020939300CE01449760E096
:1003200070E046E150E0CFD564EF71E080E090E00E
:10033000BCD2A895BDD480E0C7D48CE790E0CBD4E4
:10034000A89564EF71E080E090E0AFD2A895DF91CE
:10035000CF9108952F923F925F926F927F928F92EA
:100360009F92AF92BF92CF92DF92EF92FF920F9344
:100370001F93CF93DF9347DF5524539454E5252EE5
:1003800051E0352EA8953CD3882389F08091A200B6
:10039000882339F417D38D3651F45092A20080E0AF
:1003A00005C010927A00509272000CD3D3DE2091D7
:1003B000E4003091E5004091E6005091E700809123
:1003C0009D0090919E00A0919F00B091A0002817E1
:1003D00039074A075B0708F4D1C0809179008F5F25
:1003E00080937900813021F480E090E04DD23FC0CD
:1003F0008230E9F5A0906B00B0906C00CC24B7FC83
:10040000C094DC2C81E0F5D13C0181E0F2D17C018B
:1004100081E0EFD14C0181E0ECD1E60CF71CE80C57
:10042000F91CE80EF91E00E010E0C801B70128E849
:1004300033E140E050E0B4D44CE095958795779552
:1004400067954A95D1F7A60EB71EC81ED91EC601DC
:10045000B50122E030E040E050E0E8D430936C0099
:1004600020936B002550304114F050927900809118
:100470007900823028F0809167009091680004D262
:10048000809179008B3010F01092790080917A0081
:10049000882309F458C080917100882309F053C063
:1004A000C0916900D0916A0080916B0090916C00BE
:1004B000C81BD90BD0936E00C0936D0000916F00E4
:1004C00010917000BE01882777FD8095982F2CE34E
:1004D00030E040E050E064D49B01AC01B8018827D3
:1004E00077FD8095982F620F731F841F951F24E658
:1004F00030E040E050E09AD4F90130936800209356
:100500006700C9018C5A9E4F885A924050F4CE0120
:100510006AE070E078D4060F171F10937000009304
:100520006F00E555F14024F030926800209267009A
:10053000809167009091680097FF0DC0109268004D
:100540001092670008C01092680010926700109225
:10055000700010926F0080919D0090919E00A0917C
:100560009F00B091A0004096A11DB11D80939D00F9
:1005700090939E00A0939F00B093A0002091E40070
:100580003091E5004091E6005091E700809199009C
:1005900090919A00A0919B00B0919C002817390778
:1005A0004A075B0708F494C080E023D18C0180E007
:1005B00020D1BC01600F711F7695679570937C0008
:1005C00060937B006A30710558F410927A001092A3
:1005D0006A0010926900109271001092720026C099
:1005E00080917200882339F080ED97E090936A0043
:1005F000809369001BC050927A0080E090E028EC64
:1006000030E040E050E0CCD32AE09595879577958F
:1006100067952A95D1F72AE030E040E050E0C0D35A
:100620006053784F70936A006093690080E04CD308
:1006300084E390E050D380916B0090916C006AE06D
:1006400070E0E1D3CB0163E040E05CD38FED28D3D1
:1006500081E390E040D38091690090916A006AE064
:1006600070E0D1D3CB0163E040E04CD38FED18D3E1
:100670008EE290E030D380917100882319F08AE2F5
:1006800090E00AC08091A100882341F0809172001F
:10069000882359F086E290E01ED307C0809167005E
:1006A0009091680063E040E02DD380919900909193
:1006B0009A00A0919B00B0919C00C296A11DB11D13
:1006C0008093990090939A00A0939B00B0939C0014
:1006D0002091E4003091E5004091E6005091E70060
:1006E0008091950090919600A0919700B09198000C
:1006F000281739074A075B0708F444CE80917A002F
:10070000882309F454C020E080916700909168002C
:10071000845591400CF021E0822F64E170E043E7C2
:1007200050E0E3D1882329F05092710010927200BA
:1007300036C080916700909168008897E4F48091BA
:100740006D0090916E00C297B4F420917B003091BF
:100750007C0080917D0090917E00281B390B8FEFEB
:10076000273F380744F080E02A3031050CF081E063
:100770008525C82F02C0C0E0D0E08C2F68E572E06C
:1007800045E750E0B2D1809372008C2F60E777E1AB
:1007900047E750E0AAD1882311F010927A008091A7
:1007A0007B0090917C0090937E0080937D008091EF
:1007B000950090919600A0919700B0919800885173
:1007C0009C4FAF4FBF4F8093950090939600A0939E
:1007D0009700B09398008091A200882309F4F2DC7E
:1007E00090E08091A100882309F491E09093A1000A
:1007F000C9CD97B18F71907E892B87B9349A369A7B
:100800003699FECF24B145B1942F80E030E0282BFB
:10081000392BC9010895F89490E025E0880F991FBD
:100820002A95E1F7FC01EC55FF4F20E030E040E075
:1008300050E0BC016C537F4F81919191A0E0B0E0FA
:10084000280F391F4A1F5B1FE617F707A9F778948F
:1008500082E056954795379527958A95D1F7C90136
:1008600008951F920F920FB60F9211240F900FBE92
:100870000F901F9018951BBC1ABC82EB8FBD81E0B6
:100880008EBDC198B99A089522E0803092071CF07D
:100890008FEF91E004C097FF02C080E090E08ABD36
:1008A000892F990F990B8BBD08959B01AC01809105
:1008B000E4009091E500A091E600B091E700280FD8
:1008C000391F4A1F5B1F8091E4009091E500A091C1
:1008D000E600B091E700281739074A075B0798F749
:1008E00008955D9BFECF8CB90895CF93DF93EC0103
:1008F00097FD02C0F0E004C0D095C195DF4FF1E054
:10090000662321F0562F21E030E023C021E030E0C3
:10091000E1E00BC0C901880F991FA3E0220F331F2C
:10092000AA95E1F7280F391FEF5FCE01B90157D221
:100930006A30710588F0E53069F70EC0C901880F8B
:10094000991F73E0220F331F7A95E1F7280F391FA3
:100950005150523098F7E62F5D9BFECF80E28CB964
:10096000FF2321F05D9BFECF8DE203C05D9BFECF98
:1009700080E28CB9FEE24E1719F45D9BFECFFCB904
:100980005D9BFECFCE01B9012AD2CB016AE070E0B7
:1009900026D2805D8CB9C9016AE070E020D29B014B
:1009A0006115710511F0E150E6CFDF91CF91089507
:1009B00003C05D9BFECF2CB9FC010196249122233C
:1009C000C1F7089580916600882331F49091640006
:1009D000809165009817D1F31092660080916400B1
:1009E0008F5F80936400809164008A3010F01092D1
:1009F0006400E0916400F0E0E851FF4F80810895C9
:100A000080916600882311F09AE019C090916500EA
:100A100080916400891728F49091650080916400AA
:100A20000DC09091650080916400981710F090E0DF
:100A300006C09091650080916400965F981B892F95
:100A400008951F920F920FB60F9211248F939F93C8
:100A5000EF93FF93809165008F5F80936500809195
:100A600065008A3010F010926500909164008091CA
:100A70006500981729F4809166008F5F8093660067
:100A8000E09165008CB1F0E0E851FF4F8083FF9169
:100A9000EF919F918F910F900FBE0F901F9018951F
:100AA000181619061CF421E030E007C0892B19F450
:100AB00020E030E002C02FEF3FEFC90108959C0114
:100AC00097FF03C0309521953F4FC9010895FA0162
:100AD000882309F410828081681718F4108281E05D
:100AE00008958F5F808380E00895FA01882311F4D0
:100AF00011821082808191816817790714F481E056
:100B0000089501969183808380E008958D9A8C9A50
:100B10008E9A8B98939A8F98979A8A98929AB89867
:100B2000C09A81E08093600008958B988F988A988E
:100B3000B898C09A08958B9A8F9A8A9AB89A08950D
:100B4000839B02C080E101C080E087998062829926
:100B50008064B09980680895982F84FF02C0939AAA
:100B600001C0939895FF02C0979A01C0979896FF8D
:100B700002C0929A01C0929887FF02C0C09A08955D
:100B8000C0980895CF93DF939598CFDF949A969A63
:100B90000000000000000000000000000000000055
:100BA00080916000882309F42CC0C0E0D0E01CC014
:100BB00080E090E080FD02C0969801C0969A000007
:100BC0000000000000000000000000000000000025
:100BD000000000000000000000000000000001967E
:100BE0008430910539F72196ABDF87FD04C0C05DE5
:100BF000D7403CF004C087E0C13DD807C9F6109249
:100C000060009698DF91CF9108950F931F93182F4E
:100C1000062FB8DF113011F4959A01C09598949879
:100C2000969A89DF802F807F97DF00000000000008
:100C300000000000000000000000000000000000B4
:100C40000000000000000000000096980000000076
:100C50000000000000000000000000000000000094
:100C6000000000000000000000000000969A802FA5
:100C70008295807F71DF000000000000000000000E
:100C80000000000000000000000000000000000064
:100C9000000000000000969848DF1F910F91089512
:100CA000682F81E0B2DF0895682F80E0AEDF0895FD
:100CB0002DDF88E2F9DF81E0F7DF86E0F5DF8CE009
:100CC000F3DF82E0F1DF08958295880F880F807C42
:100CD0008068EADF0895CF93DF93EC0101C0E0DF85
:100CE000FE01219684918823D1F7DF91CF91089559
:100CF0001F93182F03C080E2D3DF11501123D9F7BF
:100D00001F910895DF92EF92FF920F931F93CF935D
:100D1000DF938C01F62ED42E97FD02C0EE2407C07F
:100D2000109501951F4F8DE2BBDFEE24E3942F2D2C
:100D3000C1E0D0E00BC0CE01880F991F33E0CC0F8B
:100D4000DD1F3A95E1F7C80FD91F2150223098F7DF
:100D5000DF1411F48EE2A4DFFA94C801BE013FD083
:100D6000CB016AE070E03BD0882331F4DF1420F43B
:100D7000EE2021F480E203C0EE24E394805D90DF56
:100D8000CE016AE070E02BD0EB016115710501F72F
:100D9000DF91CF911F910F91FF90EF90DF90089519
:100DA000629FD001739FF001829FE00DF11D649F4F
:100DB000E00DF11D929FF00D839FF00D749FF00DDB
:100DC000659FF00D9927729FB00DE11DF91F639F7C
:100DD000B00DE11DF91FBD01CF0111240895AA1B1B
:100DE000BB1B51E107C0AA1FBB1FA617B70710F016
:100DF000A61BB70B881F991F5A95A9F78095909548
:100E0000BC01CD01089597FB092E07260AD077FD76
:100E100004D0E5DF06D000201AF4709561957F4F6D
:100E20000895F6F7909581959F4F089597FB092EA9
:100E300005260ED057FD04D014D00AD0001C38F47B
:100E400050954095309521953F4F4F4F5F4F0895F6
:100E5000F6F790958095709561957F4F8F4F9F4FD6
:100E60000895A1E21A2EAA1BBB1BFD010DC0AA1FEB
:100E7000BB1FEE1FFF1FA217B307E407F50720F003
:100E8000A21BB30BE40BF50B661F771F881F991F7E
:100E90001A9469F760957095809590959B01AC01C7
:100EA000BD01CF010895DC01CB01FC01E199FECF2A
:100EB00006C0FFBBEEBBE09A31960DB20D924150D9
:100EC0005040B8F70895DC01CB0102C02D9105D048
:100ED00041505040D8F70895262FE199FECF9FBB8F
:100EE0008EBB2DBB0FB6F894E29AE19A0FBE019625
:060EF0000895F894FFCF05
:020EF6000100F9
:00000001FF
