:100000000C94A9000C94C6000C94C6000C94C60075
:100010000C94C6000C94C6000C94C6000C94C60048
:100020000C94C6000C94F5010C94C6000C943E038D
:100030000C94C6000C94C6000C944D020C94C6009F
:100040000C94C6000C94C6000C94C6000C94C60018
:100050000C94C6000C94C6000C94C6000C94C60008
:100060000C94C6000C94C600560020002000250009
:1000700053544100455252002050574D3A004320FE
:100080000043200054656D703A000D0A657869746C
:100090003A710D0A000D0A696E74657276616C3DE5
:1000A000000D0A443D000D0A493D00503D00232348
:1000B00020434F4E54524F4C2023230D0A00536FC0
:1000C0006C646572204D656E753A0D0A004769745F
:1000D0003A32656439202020202000423A5365706E
:1000E0002020342032303137002020204D41582D3F
:1000F000536F6C64657220202020002C20476974A7
:100100002076657273696F6E3A20326564390D0A24
:100110000023204D617820536F6C646572206275F6
:10012000696C6420646174653A53657020203420E2
:1001300032303137006C6F6164696E6720646566C8
:1001400061756C7420706172616D732E2E2E0D0AB4
:10015000000011241FBECFEFD4E0DEBFCDBF11E001
:10016000A0E0B1E0E2E6F1E102C005900D92A2301C
:10017000B107D9F721E0A2E0B1E001C01D92AB398F
:10018000B207E1F70E94E9040C94AF080C94000058
:10019000FC019C012C5E3F4F8DEC9BEA4191840F4A
:1001A000911DE217F307D1F70895CF93DF9389E10B
:1001B00089B910BC82E08BB988E98AB9909A10920B
:1001C0008D0110928E0110928F011092900185E0A6
:1001D00082BF89B7816089BF83E083BF80E487B92C
:1001E0008FED86B964D178949DE088E10FB6F894DC
:1001F000A89581BD0FBE91BD46E150E060E070E082
:1002000088E291E084D7A895C0913C01D0913D014E
:1002100088E291E0BDDFC817D90709F448C085E33B
:1002200091E0E4D18CE390E0909337018093360124
:1002300081E090E0909339018093380110923B0166
:1002400010923A018AE080932B018093290181E08A
:1002500080932A018BE48093280185E090E09093BD
:1002600035018093340188EC90E0909333018093C2
:10027000320128E532E0309331012093300120E94A
:1002800031E030932F0120932E0190932D01809324
:100290002C0188E291E07CDF90933D0180933C014A
:1002A00046E150E060E070E088E291E040D781E014
:1002B00080931501A89581E191E098D18BEF90E0B2
:1002C00095D1A8950FD364E670E080E090E009D165
:1002D000A89580E012D389EE90E015D381E00DD38C
:1002E0008BED90E010D3A8956CE271E080E090E097
:1002F000F8D0A8956CE271E080E090E0F2D0A8958B
:100300006CE271E080E090E0ECD0A89581E0F5D25D
:100310008DEC90E0F8D26CE271E080E090E0E1D00A
:10032000A8956CE271E080E090E0DBD0A895DF91C9
:10033000CF910895CF93DF93C7E0D1E041E064E02F
:100340008E819F81F2D041E064E08C819D81EDD06F
:1003500040E063E088819981E8D040E064E08B89E7
:100360009C89E3D041E063E08B8D9C8DDED08DE0F5
:10037000D8D08AE0DF91CF91D4C0CF93C82F8EEB35
:1003800090E034D18EEA90E031D18BEA90E02ED12A
:1003900040E063E08091360190913701C6D086EA53
:1003A00090E024D140E063E08091380190913901E0
:1003B000BCD081EA90E01AD140E063E080913A013C
:1003C00090913B01B2D085E990E010D180912B0152
:1003D00040E063E090E0A9D08AE890E007D1C1371F
:1003E00011F410924B01CF9108951F920F920FB606
:1003F0000F9211248F939F93AF93BF9385E082BF99
:1004000080918D0190918E01A0918F01B09190010A
:100410000296A11DB11D80938D0190938E01A09332
:100420008F01B0939001BF91AF919F918F910F90E9
:100430000FBE0F901F90189597B18F71907E892BEA
:1004400087B9349A369A3699FECF84B125B190E0B7
:10045000922B0895F89490E2899FA001112420E046
:1004600030E080E090E0DC01F901E40FF51FE35B90
:10047000FE4F60817181860F971FA11DB11D2E5FF8
:100480003F4F2032310581F7789422E0B695A79549
:10049000979587952A95D1F708951F920F920FB6D9
:1004A0000F9211240F900FBE0F901F9018951BBC38
:1004B0001ABC82EB8FBD81E08EBDC198B99A0895B8
:1004C000811522E092072CF497FF05C080E090E0B0
:1004D00002C08FEF91E09BBD8ABD08958AB59BB5A0
:1004E00008950F931F9300918D0110918E0120911B
:1004F0008F0130919001DC01CB01800F911FA21F71
:10050000B31F00918D0110918E0120918F013091C8
:10051000900180179107A207B30798F71F910F91D9
:1005200008955D9BFECF8CB90895BF92CF92DF9264
:10053000EF92FF920F931F93CF93DF937C01162FBF
:10054000B42E97FF05C0F194E194F10801E001C0D9
:1005500000E0112329F0812FC1E0D0E09AE014C01F
:1005600011E0C1E0D0E02AE0C701BE0146D56A3003
:100570007105A0F0153091F0CE01289FE001299F70
:10058000D00D11241F5FF0CF813041F09E01929F6A
:10059000E001939FD00D11248150F6CF80E2C1DF9E
:1005A000002311F08DE201C080E2BBDF8AE0C82E9B
:1005B000D12CB11202C08EE2B4DF1150C701BE01CE
:1005C0001CD5CB01B60119D5805DABDFCE01B601DC
:1005D00014D5EB01209769F7DF91CF911F910F910F
:1005E000FF90EF90DF90CF90BF900895CF93DF936F
:1005F000FC018491EF012196882319F092DFFE011E
:10060000F8CFDF91CF91089580910401811106C048
:1006100090910601809105019817D1F31092040181
:10062000809106018F5F809306018A3010F010924E
:100630000601E0910601F0E0EF56FE4F808108953B
:1006400080910401811118C020910501909106014B
:10065000921728F480910501909106010BC020911A
:10066000050190910601291740F4809105019091B0
:100670000601865F891B08958AE008951F920F92F4
:100680000FB60F9211248F939F93EF93FF93809156
:1006900005018F5F809305018A3010F010920501EB
:1006A0009091060180910501981305C08091040185
:1006B0008F5F80930401E09105018CB1F0E0EF566B
:1006C000FE4F8083FF91EF919F918F910F900FBE0E
:1006D0000F901F901895181619065CF021E030E075
:1006E000892B11F420E030E088279927821B930B97
:1006F000089581E090E0089597FF03C0919581955A
:1007000091090895FA01811101C010828081681752
:1007100018F4108281E008958F5F808380E008954F
:10072000FA01811102C011821082808191816817C3
:1007300079072CF001969183808380E0089581E011
:1007400008958D9A8C9A8E9A8B98939A8F98979AEF
:100750008A98929AB898C09A81E08093000108958F
:100760008B988F988A98B898C09A08958B9A8F9A88
:100770008A9AB89A0895839B02C080E101C080E004
:100780008799806282998064B0998068089584FF17
:1007900002C0939A01C0939885FF02C0979A01C046
:1007A000979886FF02C0929A01C0929887FF02C074
:1007B000C09A0895C0980895CF93DF939598D0DF9D
:1007C000949A969A000000000000000000000000CB
:1007D0000000000080910001882339F1C0E0D0E0E2
:1007E000CADF87FF1DC0C13D87E0D807E1F0219631
:1007F00080E080FD1EC09698000000000000000010
:1008000000000000000000000000000000000000E8
:1008100000000000000000008F5F843051F7E0CF3F
:10082000C03DD74014F0109200019698DF91CF910F
:100830000895969AE1CF1F93CF93DF931F92CDB780
:10084000DEB7162F8983B8DF8981813011F4959A3C
:1008500001C095989498969A89DF812F807F97DFC1
:100860000000000000000000000000000000000088
:100870000000000000000000000000000000000078
:10088000969800000000000000000000000000003A
:100890000000000000000000000000000000000058
:1008A0000000969A812F8295807F71DF0000000002
:1008B0000000000000000000000000000000000038
:1008C00000000000000000000000000096980F905B
:1008D000DF91CF911F9144CF682F81E0ACCF682F7B
:1008E00080E0A9CF2EDF88E2FADF81E0F8DF86E042
:1008F000F6DF8CE0F4DF82E0F2CF8295880F880F7C
:10090000807C8068ECCFCF93DF93FC018491EF0172
:100910002196882319F0E0DFFE01F8CFDF91CF9117
:100920000895CF93C82FCC2321F080E2D5DFC150AA
:10093000FACFCF910895BF92CF92DF92EF92FF92BC
:100940000F931F93CF93DF937C01162FB42E97FF45
:1009500007C0F194E194F1088DE2BEDF01E001C02F
:1009600000E0812FC1E0D0E09AE0823040F09E01AB
:10097000929FE001939FD00D11248150F6CF8AE021
:10098000C82ED12CB11202C08EE2A6DF1150C701D1
:10099000BE0133D3CB01B60130D3009739F4B11681
:1009A00028F4011103C080E297DF03C0805D94DF6B
:1009B00001E0CE01B60121D3EB01209719F7DF91B9
:1009C000CF911F910F91FF90EF90DF90CF90BF904C
:1009D0000895EBDBF12CC1E00AE010E0A0ED2A2E37
:1009E000A7E03A2EBDE5CB2ED12CA89529DE882391
:1009F00041F180914B0181111EC006DED82F8D364A
:100A000029F4C0934B0180E0B8DC1CC0F0E38F2ECA
:100A1000F81018C08032B1F46CE271E080E090E030
:100A200060DD84E17EDD6EE170E080E090E059DD24
:100A300080E177DDFFCF10921D01C0931401E4DD4A
:100A40009CDCDF2D80918D0190918E01A0918F0112
:100A5000B091900140914601509147016091480149
:100A60007091490184179507A607B70708F4D5C008
:100A700080911C0191E0980F90931C01913021F41A
:100A800080E090E01DDD34C08350823088F581E045
:100A9000D3DC9C01A4E7B3E1F7D2AB01BC01EAE0EF
:100AA0007595679557954795EA95D1F7485051093F
:100AB0006109710980910D0190910E01092E000CC0
:100AC000AA0BBB0B4A015B01880E991EAA1EBB1E16
:100AD000C501B40122E030E040E050E0B6D23093EE
:100AE0000E0120930D012530304114F0C0931C01FC
:100AF00080911C01853028F08091070190910801B8
:100B0000DFDC80911C01813110F010921C0180917A
:100B10001D01882309F466C080911301811162C010
:100B2000A0910B01B0910C0180910D0190910E01EB
:100B3000A81BB90BB0931001A0930F01E090110115
:100B4000F09012012D010B2E000C6608770847016A
:100B50000F2C000CAA08BB082CE330E0A4D2680DCF
:100B6000791D8A1D9B1D24E630E040E050E06DD2E7
:100B700049015A013093080120930701C9018C5A99
:100B80009E4F883A9240A0F4C301B2012AE030E0BF
:100B900040E050E05AD22E0D3F1D37FD05C0309386
:100BA00012012093110104C0109212011092110140
:100BB00085E5881681E09806A104B10444F034E587
:100BC000832E99249394909208018092070180913A
:100BD00007019091080197FF0DC010920801109233
:100BE000070108C01092080110920701109212012B
:100BF000109211018091460190914701A091480106
:100C0000B09149014096A11DB11D8093460190937A
:100C10004701A0934801B093490180918D019091C3
:100C20008E01A0918F01B0919001409142015091AD
:100C30004301609144017091450184179507A6070F
:100C4000B70708F4F1C080E0F7DB7C0180E0F4DB5B
:100C50008E0D9F1D9695879590931F0180931E0181
:100C600082E0EADB2091240130912501820F931F5D
:100C70009093250180932401809126019091270172
:100C80000196909327018093260120911E013091B7
:100C90001F012A30310558F410921D0110920C01E9
:100CA00010920B0110921301109214012DC080912B
:100CB0001401882329F030920C0120920B0124C0EA
:100CC000C0931D01C901A0E0B0E09C01AD012A5014
:100CD000310941095109A8ECB0E0ECD126EF33E02D
:100CE00040E050E0B2D149015A0188EC880E911CD5
:100CF000A11CB11C6AE0689DC001699D900D112482
:100D000090930C0180930B0180E0F7DD84E890E084
:100D1000FADD80910D0190910E01B80182D1CB01D5
:100D200040E063E008DE8FEDD7DD81E890E0EBDDA9
:100D300080910B0190910C01B80173D1CB0140E07F
:100D400063E0F9DD8FEDC8DD8EE790E0DCDD81E06A
:100D5000D4DD88E790E0D7DD80911301882319F076
:100D600084E790E025C080914A01882339F0809182
:100D70001401882319F080E790E01AC02091070140
:100D8000309108014AE0429FC001439F900D112419
:100D900088342DE092072CF462E270E042D1CB015E
:100DA00002C083E690E040E062E0C5DD8EE690E0C0
:100DB000AADD8091220190912301C39710F18CE666
:100DC00090E0A1DD80911A0190911B018A3091057C
:100DD0005CF080FD09C064E670E023D1CB01B8016E
:100DE00020D1805D79DD03C08AE690E08CDD41E0B2
:100DF00064E080912201909123019DDD88E690E0DE
:100E000082DD8091420190914301A0914401B09113
:100E10004501C296A11DB11D8093420190934301EB
:100E2000A0934401B093450180918D0190918E0172
:100E3000A0918F01B091900140913E0150913F01EE
:100E4000609140017091410184179507A607B7078B
:100E500010F4FD2ECACD809115018823F9F0209160
:100E60002601309127018091240190912501B9013B
:100E7000C4D042E3469FC001479F900D1124B601A4
:100E8000BCD070932301609322016233710550F44A
:100E90002630310538F01092150104C0109223015C
:100EA0001092220110922501109224011092270124
:100EB0001092260180911D01882309F479C0809148
:100EC000220190912301C397489728F4809115013E
:100ED0008111C093130181E0209107013091080135
:100EE000243531400CF480E046E151E064E170E0EB
:100EF00017DC882349F0C09313011092140110925B
:100F00001901109218014BC020910701309108017E
:100F10004091090150910A0169E0649FC001659FF9
:100F2000900D1124820F931FB8017BD070930A019A
:100F300060930901C901861B970B4396879718F0A8
:100F400022303105D4F480910F0190911001C397A4
:100F5000A4F480911E0190911F01209120013091F5
:100F60002101821B930B853F2FEF920734F021E084
:100F70000C970CF020E0F22E01C0F12C48E151E07A
:100F800068E572E08F2DCCDB809314014AE151E0DB
:100F900060E777E18F2DC4DB811110921D018091F4
:100FA0001E0190911F01909321018093200104C0A4
:100FB000109219011092180180913E0190913F0109
:100FC000A0914001B091410188519C4FAF4FBF4F5C
:100FD00080933E0190933F01A0934001B093410163
:100FE00081E090914A01911180E080934A018091C3
:100FF0004B0181112ECF9ED92CCFAA1BBB1B51E1D7
:1010000007C0AA1FBB1FA617B70710F0A61BB70B78
:10101000881F991F5A95A9F780959095BC01CD011D
:10102000089597FB072E16F4009407D077FD09D09A
:101030000E94FD0707FC05D03EF4909581959F4FD7
:101040000895709561957F4F0895052E97FB1EF4C6
:1010500000940E943C0857FD07D00E94650807FCD9
:1010600003D04EF40C943C08509540953095219552
:101070003F4F4F4F5F4F08959095809570956195C4
:101080007F4F8F4F9F4F0895A29FB001B39FC00124
:10109000A39F700D811D1124911DB29F700D811DA4
:1010A0001124911D08950E944408B7FF0895821BE2
:1010B000930B08950E944408A59F900DB49F900D36
:1010C000A49F800D911D11240895A1E21A2EAA1B40
:1010D000BB1BFD010DC0AA1FBB1FEE1FFF1FA217E8
:1010E000B307E407F50720F0A21BB30BE40BF50BE5
:1010F000661F771F881F991F1A9469F7609570956E
:10110000809590959B01AC01BD01CF010895DC0154
:10111000CB01FC01F999FECF06C0F2BDE1BDF89A02
:10112000319600B40D9241505040B8F70895DC015B
:10113000CB0103C02D910E94A20841505040D0F72E
:101140000895262FF999FECF1FBA92BD81BD20BD0B
:101150000FB6F894FA9AF99A0FBE01960895F8948A
:02116000FFCFBF
:0211620001008A
:00000001FF
