:100000000C94F6000C9413010C9413010C9413013E
:100010000C9413010C9413010C9413010C94130110
:100020000C9413010C9413010C9413010C94130100
:100030000C9413010C9413010C9413010C941301F0
:100040000C9444030C9413010C9413010C941301AD
:100050000C9413010C94AA030C9413010C94130137
:100060000C9413010C94130156002000200025006D
:1000700053544100455252002050574D3A004320FE
:100080000043200054656D703A000D0A36207365F8
:100090006E73206F66667365743D000D0A352073BC
:1000A000656E73206761696E3D000D0A3220493D1F
:1000B000000D0A3120503D000D0A657869743A71CF
:1000C0000D0A000D0A6C6F61643A6C000D0A7361D1
:1000D00076653A73000D0A362073656E73206F667D
:1000E000667365743D000D0A352073656E73206775
:1000F00061696E3D000D0A3220493D000D0A312034
:10010000503D00232320504152414D54455220235D
:1001100023202873656C65637420312D3920616E4E
:1001200064207468656E202B2D20746F20656469CF
:10013000742900536F6C646572204D656E753A0DBD
:100140000A000D0A74656D702074656D705F6465DA
:1001500073697265642070776D2074696D656F7561
:10016000742056696E0D0A004769743A343930625A
:10017000202020202000423A4F6374202034203277
:10018000303234002020204D41582D536F6C64656F
:100190007231362020002C204769742076657273F6
:1001A000696F6E3A20343930620D0A0023204D61A8
:1001B0007820536F6C646572206275696C6420648A
:1001C0006174653A4F637420203420323032340039
:1001D0006C6F6164696E672064656661756C74201C
:1001E000706172616D732E2E2E0D0A0011241FBED8
:1001F000CFEFD4E0DEBFCDBF11E0A0E0B1E0E8EC8E
:10020000F4E102C005900D92A230B107D9F721E0C8
:10021000A2E0B1E001C01D92AE39B207E1F70E9441
:100220006A060C94620A0C94000049E150E060E018
:1002300070E088E291E00C943A0AFC019C01295E8E
:100240003F4F8DEC9BEA4191840F911DE217F3071C
:10025000D1F7089588E291E00E941D01909340013A
:1002600080933F0149E150E060E070E088E291E076
:100270000C944A0A82E491E00C946204CF93DF93D9
:1002800089E18093C4001092C50082E08093C00091
:1002900088E98093C1001092900110929101109210
:1002A00092011092930185E086BD80916E0081607D
:1002B00080936E0084E085BD80E480937C008FEDA8
:1002C00080937A000E94B403789488E19EE00FB690
:1002D000F894A895809360000FBE90936000A89555
:1002E0000E941501C0913F01D091400188E291E048
:1002F0000E941D01C817D90709F448C080ED91E09C
:100300000E9462048CE390E090933801809337015F
:1003100081E090E090933A01809339018AE08093E4
:100320002C0180932A0181E080932B0184E591E0E8
:10033000909329018093280185E090E09093360105
:100340008093350188EC90E09093340180933301E1
:1003500028E532E0309332012093310120E931E089
:100360003093300120932F0190932E0180932D0123
:1003700084E793E190933E0180933D0188EF9FEFE6
:1003800090933C0180933B010E942A0181E080937D
:100390001501A8958CEA91E00E94620486E991E03B
:1003A0000E946204A8950E94E50564E670E080E082
:1003B00090E00E94D503A89580E00E94F60584E8AD
:1003C00091E00E94FD0581E00E94F60586E791E03C
:1003D0000E94FD05A8956CE271E080E090E00E942B
:1003E000D503A8956CE271E080E090E00E94D5030F
:1003F000A8956CE271E080E090E00E94D503A8959A
:1004000081E00E94F60588E691E00E94FD056CE21D
:1004100071E080E090E00E94D503A8956CE271E065
:1004200080E090E00E94D503A895DF91CF910C94D5
:100430003A01CF93DF93C7E0D1E041E064E08E81E1
:100440009F810E94FC0341E064E08C819D810E94B9
:10045000FC0340E063E0888199810E94FC0340E056
:1004600064E08B899C890E94FC0341E063E08B8DF2
:100470009C8D0E94FC038DE00E94F5038AE0DF91D1
:10048000CF910C94F5030F930B3261F4860F971FF5
:10049000841795070CF4CA01281739070CF4C90111
:1004A0000F9108950D32A1F7861B970BF1CF0F9393
:1004B000CF93C82F80914F01811108C08FEC8C0F12
:1004C0008930D0F480ED8C0F80934F0180914F01E3
:1004D000823009F496C008F054C0813009F473C02A
:1004E000C13709F0C6C010924E010E943A01109225
:1004F0004F01CF910F91089583E391E00E94620430
:1005000083E091E00E9462048CEF90E00E9462041C
:1005100040E063E080913701909138010E94FC0334
:1005200085EF90E00E94620440E063E08091390131
:1005300090913A010E94FC0386EE90E00E946204D2
:1005400040E065E080913D0190913E010E94FC03F6
:1005500085ED90E00E94620440E064E080913B0100
:1005600090913C010E94FC038CEC90E00E9462049C
:1005700083EC90E00E94620488EB90E00E946204A9
:10058000A5CF853009F459C0863009F0A9CF0C2FCA
:1005900024E630E04CE95FEF62E070E080913B01DF
:1005A00090913C010E94430290933C0180933B0157
:1005B0008AE890E00E94620440E064E080913B01A0
:1005C00090913C011BC00C2F28EC30E041E050E042
:1005D00061E070E080913701909138010E94430200
:1005E000909338018093370181EB90E00E94620480
:1005F00040E063E080913701909138010E94FC0354
:100600006FCF0C2F24E130E050E040E061E070E07B
:100610008091390190913A010E94430290933A01EE
:10062000809339018AEA90E00E94620440E063E02E
:100630008091390190913A01E1CF0C2F20E737E109
:1006400048EB5BE06AE070E080913D0190913E01F3
:100650000E94430290933E0180933D018BE990E01C
:100660000E94620440E065E080913D0190913E016E
:10067000C5CFC33719F40E942A0135CFCC3609F013
:1006800038CF0E94150133CF1F920F920FB60F92F1
:1006900011248F939F93AF93BF9385E086BD809184
:1006A000900190919101A0919201B09193010496D3
:1006B000A11DB11D8093900190939101A09392018F
:1006C000B0939301BF91AF919F918F910F900FBE07
:1006D0000F901F90189590917C00907E8F71982BB1
:1006E00090937C0080917A00806180937A00809161
:1006F0007A00806480937A0080917A0086FDFCCF36
:1007000080917800909179000895F89490E2899F03
:10071000A001112430E020E080E090E0DC01F9014C
:10072000EE0FFF1FE40FF51FE05BFE4F608171814C
:10073000860F971FA11DB11D2F5F3F4F203131053F
:1007400071F7789422E0B695A795979587952A95A5
:10075000D1F708951F920F920FB60F9211240F90A8
:100760000FBE0F901F90189510928900109288006C
:1007700082EB8093800081E0809381002998219A08
:10078000089597FF02C090E080E0811522E0920773
:1007900014F08FEF91E09093890080938800089582
:1007A000809188009091890008950F931F93009184
:1007B0009001109191012091920130919301DC01FF
:1007C000CB01800F911FA21FB31F009190011091C8
:1007D0009101209192013091930180179107A20716
:1007E000B30798F71F910F9108959091C00095FF5E
:1007F000FCCF8093C6000895BF92CF92DF92EF9214
:10080000FF920F931F93CF93DF937C01162FB42E8B
:1008100000E097FF04C0F194E194F10801E0812F1A
:10082000C1E0D0E09AE011114AC011E0C1E0D0E08F
:100830002AE007C0CE01289FE001299FD00D112496
:100840001F5FC701BE010E94B0096A30710510F038
:10085000153081F780E20E94F5038DE2011101C09D
:1008600080E20E94F5038AE0C82ED12C1B1103C040
:100870008EE20E94F5031150C701BE010E94B0092B
:10088000CB01B6010E94B009805D0E94F503CE0144
:10089000B6010E94B009EB01209741F7DF91CF919B
:1008A0001F910F91FF90EF90DF90CF90BF90089530
:1008B0009E01929FE001939FD00D112481508130C1
:1008C000B9F7C8CFCF93DF93EC01FE018491219655
:1008D000811103C0DF91CF9108950E94F503F5CFF8
:1008E00080910401811106C090910601809105015B
:1008F0009817D1F310920401809106018F5F8093C5
:1009000006018A3010F010920601E0910601F0E035
:10091000EC56FE4F8081089580910401811118C02A
:100920009091050180910601891730F480910501AD
:1009300090910601891B089590910501809106010F
:10094000981740F48091050190910601865FF2CFDF
:100950008AE0089580E008951F920F920FB60F92DB
:1009600011248F939F93EF93FF93809105018F5FE5
:10097000809305018A3010F01092050190910601D4
:1009800080910501981305C0809104018F5F8093C9
:100990000401E09105018091C600F0E0EC56FE4FA5
:1009A0008083FF91EF919F918F910F900FBE0F90D9
:1009B0001F901895181619065CF021E030E0892B7D
:1009C00011F430E020E088279927821B930B0895CB
:1009D00081E090E0089597FF03C09195819591097A
:1009E0000895FA01811101C010828081681718F4FE
:1009F000108281E008958F5F808380E00895FA017E
:100A0000811102C01182108280819181681779075B
:100A10002CF001969183808380E0089581E0089511
:100A2000559A549A569A53985B9A57985F9A529847
:100A30005A9A2098289A81E080930001089553984B
:100A4000579852982098289A0895539A579A529AEC
:100A5000209A08954B9B08C080E14F9980624A9983
:100A6000806418998068089580E0F7CF84FF0BC0F8
:100A70005B9A85FF0AC05F9A86FF09C05A9A87FF72
:100A800008C0289A08955B98F4CF5F98F5CF5A98DC
:100A9000F6CF28980895CF93DF935D980E941F05A5
:100AA0005C9A5E9A00000000000000000000000058
:100AB0000000000080910001D0E0C0E081111CC066
:100AC0005E98DF91CF910895219680E080FD23C04C
:100AD0005E98000000000000000000000000000020
:100AE0000000000000000000000000000000000006
:100AF00000008F5F843051F70E942A0587FF07C0EE
:100B0000C13D87E0D80701F710920001D9CFC03D61
:100B1000D740B4F2F9CF5E9ADCCFCF93DF93D82FD2
:100B2000C62F0E944B05D13009F045C05D9A5C98F4
:100B30005E9A0E9425058C2F807F0E94360500005A
:100B400000000000000000000000000000000000A5
:100B500000000000000000000000000000005E989F
:100B60000000000000000000000000000000000085
:100B70000000000000000000000000000000000075
:100B80005E9A8C2F8295807F0E94360500000000BF
:100B90000000000000000000000000000000000055
:100BA0000000000000000000000000005E98DF91DF
:100BB000CF910C941F055D98BACF682F81E00C94FB
:100BC0008D05682F80E00C948D050E94100588E249
:100BD0000E94E10581E00E94E10586E00E94E105B6
:100BE0008CE00E94E10582E00C94E1058295880F7B
:100BF000880F807C80680C94E105CF93DF93EC0133
:100C0000FE0184912196811103C0DF91CF91089557
:100C10000E94DD05F5CFCF93C82FC11102C0CF913F
:100C2000089580E20E94DD05C150F7CFAF92BF92D8
:100C3000DF92EF92FF920F931F93CF93DF937C018C
:100C4000162FD42E00E097FF07C0F194E194F1082D
:100C50008DE20E94DD0501E0812FC1E0D0E09AE045
:100C600007C09E01929FE001939FD00D11248150F7
:100C70008230B8F78AE0A82EB12C1D1103C08EE295
:100C80000E94DD051150C701BE010E94B009CB01D1
:100C9000B5010E94B009009721F4D11610F4002389
:100CA00029F0805D0E94DD0501E003C080E20E9422
:100CB000DD05CE01B5010E94B009EB012097E9F6F0
:100CC000DF91CF911F910F91FF90EF90DF90BF9038
:100CD000AF9008950E943E01F12CC1E00AE010E0BF
:100CE00032E0432E512C612C712C46EF842E43E0D0
:100CF000942EA12CB12C5DE5252E312CA8950E94B7
:100D00008C04882309F42FC280914E01811123C2E3
:100D10000E947004D82F8D3609F004C2C0934E0192
:100D200080E00E9457028091900190919101A091E2
:100D30009201B09193014091490150914A01609113
:100D40004B0170914C0184179507A607B70708F46B
:100D500088C080911C0191E0980F90931C01913004
:100D600009F003C290E080E00E94C10380911C0161
:100D7000853030F080910701909108010E94C103F5
:100D800080911C01813110F010921C0180911D0195
:100D9000882309F42EC28091130181112AC2E090A8
:100DA0000B01F0900C0180910D0190910E01E81A59
:100DB000F90AF0921001E0920F01C0901101D09059
:100DC00012012CE330E0D7010E94F70996010D2CA7
:100DD000000C440B550B620F731F841F951F24E6F4
:100DE00030E040E050E00E94D809F901309308015A
:100DF000209307012C5A3E4F283A324060F4C70135
:100E0000B8010E94C4096C0D7D1D77FDEDC1709382
:100E1000120160931101E535F14034F084E591E071
:100E20009093080180930701809107019091080138
:100E300097FF04C0109208011092070180914901A8
:100E400090914A01A0914B01B0914C014096A11D97
:100E5000B11D8093490190934A01A0934B01B09337
:100E60004C018091900190919101A0919201B091DB
:100E70009301409145015091460160914701709165
:100E8000480184179507A607B70708F4B2C080E0A9
:100E90000E946B037C0180E00E946B038E0D9F1DFE
:100EA0009695879590931F0180931E0182E00E9482
:100EB0006B032091240130912501820F931F9093A1
:100EC00025018093240180912601909127010196AC
:100ED000909327018093260120911E0130911F01DC
:100EE0002A30310508F08EC110921D0110920C01BC
:100EF00010920B01109213011092140180E00E94D5
:100F0000F60584E890E00E94FD0580910D01909126
:100F10000E01B8010E94C409CB0140E063E00E94C9
:100F200016068FED0E94DD0581E890E00E94FD0528
:100F300080910B0190910C01B8010E94C409CB0172
:100F400040E063E00E9416068FED0E94DD058EE70B
:100F500090E00E94FD0581E00E94F60588E790E0A0
:100F60000E94FD0580911301882309F471C184E773
:100F700090E00E94FD058091220190912301C3978A
:100F800028F18CE690E00E94FD0580911A01909175
:100F90001B018A3091050CF483C180FD81C164E698
:100FA00070E00E94C409CB01B8010E94C409805DB1
:100FB0000E94DD0541E064E08091220190912301CF
:100FC0000E94160688E690E00E94FD05809145018A
:100FD00090914601A0914701B0914801C296A11D90
:100FE000B11D8093450190934601A0934701B093B2
:100FF00048018091900190919101A0919201B0914E
:1010000093014091410150914201609143017091DF
:10101000440184179507A607B70708F481C080919B
:101020001501882309F441C120912601309127013F
:101030008091240190912501B9010E94B00942E3F9
:10104000469FC001479F900D1124B1010E94B00935
:1010500070932301609322016233710528F42630D6
:10106000310510F010921501109225011092240103
:10107000109227011092260180911D01882309F406
:101080006AC18091220190912301C397489728F467
:10109000809115018111C093130181E02091070116
:1010A00030910801243531400CF480E046E151E0F4
:1010B00064E170E00E94FF04882309F4FBC0C09340
:1010C00013011092140110921901109218018091CD
:1010D0001E0190911F019093210180932001809126
:1010E000410190914201A0914301B0914401885186
:1010F0009C4FAF4FBF4F8093410190934201A0930B
:101100004301B093440181E090914D01911180E041
:1011100080934D0180914E01811102C00E941902FD
:10112000FD2EECCD20E3F212FECD803209F0FBCD96
:101130006CE271E080E090E00E94D50384E10E94BF
:10114000F5036EE170E080E090E00E94D50380E15D
:101150000E94F503FFCF10921D01C09314010E945D
:1011600070040E945702DF2DDECD8350823008F0DC
:10117000FDCD81E00E946B03A0913D01B0913E0145
:101180009C010E94F70920E034E040E050E00E941A
:10119000D80980913B0190913C01092E000CAA0BCB
:1011A000BB0B69017A01C80ED91EEA1EFB1E809195
:1011B0000D0190910E01092E000CAA0BBB0BBC0176
:1011C000CD016C0D7D1D8E1D9F1DA30192010E94FE
:1011D000D80930930E0120930D01253030410CF4D5
:1011E000C5CDC0931C01C2CD109212011092110105
:1011F00012CE109208011092070110921201109263
:1012000011011CCE80911401882339F080ED97E004
:1012100090930C0180930B0171CEC0931D0150E09F
:1012200040E02A50310941095109A8ECB0E00E9480
:10123000FE09A50194010E94D80928533F4F4F4F42
:101240005F4F6AE0629FC001639F900D1124E0CF61
:1012500080914D01882339F080911401882319F081
:1012600080E790E086CE20910701309108014AE0A6
:10127000429FC001439F900D112488342DE09207B6
:1012800064F462E270E00E94C409CB0140E062E0D5
:101290000E9416068EE690E06CCE83E690E0F6CFD4
:1012A0008AE690E00E94FD0585CE109223011092FF
:1012B0002201DACE20910701309108014091090105
:1012C00050910A0169E0649FC001659F900D11244F
:1012D000820F931FB8010E94C40970930A016093A2
:1012E0000901C901861B970B4396879718F0223096
:1012F00031057CF580910F0190911001C3974CF559
:1013000080911E0190911F012091200130912101B7
:10131000821B930B853F2FEF9207DCF021E00C97A7
:101320000CF020E0F22E48E151E068E572E08F2DEC
:101330000E94FF04809314014AE151E060E777E1E5
:101340008F2D0E94FF04882309F4C1CE10921D0145
:10135000BECEF12CE8CF1092190110921801BFCE29
:10136000AA1BBB1B51E107C0AA1FBB1FA617B707CB
:1013700010F0A61BB70B881F991F5A95A9F78095E7
:101380009095BC01CD01089597FB072E16F40094AB
:1013900007D077FD09D00E94B00907FC05D03EF4C4
:1013A000909581959F4F0895709561957F4F089511
:1013B000052E97FB1EF400940E94EF0957FD07D0FD
:1013C0000E94090A07FC03D04EF40C94EF095095D3
:1013D0004095309521953F4F4F4F5F4F0895909521
:1013E0008095709561957F4F8F4F9F4F08950E9414
:1013F0002B0AB7FF0895821B930B08950E942B0AB6
:10140000A59F900DB49F900DA49F800D911D112458
:101410000895A1E21A2EAA1BBB1BFD010DC0AA1F35
:10142000BB1FEE1FFF1FA217B307E407F50720F04D
:10143000A21BB30BE40BF50B661F771F881F991FC8
:101440001A9469F760957095809590959B01AC0111
:10145000BD01CF010895A29FB001B39FC001A39F1A
:10146000700D811D1124911DB29F700D811D1124DD
:10147000911D0895DC01CB01FC01F999FECF06C056
:10148000F2BDE1BDF89A319600B40D924150504042
:10149000B8F70895DC01CB0103C02D910E94550AD5
:1014A00041505040D0F70895262FF999FECF1FBA2A
:1014B00092BD81BD20BD0FB6F894FA9AF99A0FBE7D
:0814C00001960895F894FFCF96
:0214C800010021
:00000001FF
