:100000000C94A9000C94C6000C94C6000C94C60075
:100010000C94C6000C94C6000C94C6000C94C60048
:100020000C94C6000C94C6000C94C6000C94C60038
:100030000C94C6000C94C6000C94C6000C94C60028
:100040000C9425020C94C6000C94C6000C94C600B7
:100050000C94C6000C948B020C94C6000C94C60041
:100060000C94C6000C94C600560020002000250009
:1000700053544100455252002050574D3A004320FE
:100080000043200054656D703A000D0A657869746C
:100090003A710D0A000D0A696E74657276616C3DE5
:1000A000000D0A443D000D0A493D00503D00232348
:1000B00020434F4E54524F4C2023230D0A00536FC0
:1000C0006C646572204D656E753A0D0A004769745F
:1000D0003A33363537202020202000423A466562E8
:1000E0002031302032303234002020204D41582D34
:1000F000536F6C64657231362020002C2047697480
:100100002076657273696F6E3A20333635370D0A83
:100110000023204D617820536F6C646572206275F6
:10012000696C6420646174653A46656220313020F0
:1001300032303234006C6F6164696E6720646566CA
:1001400061756C7420706172616D732E2E2E0D0AB4
:10015000000011241FBECFEFD4E0DEBFCDBF11E001
:10016000A0E0B1E0EEE8F2E102C005900D92A2300D
:10017000B107D9F721E0A2E0B1E001C01D92AB398F
:10018000B207E1F70E944B050C9445090C9400005E
:10019000FC019C012C5E3F4F8DEC9BEA4191840F4A
:1001A000911DE217F307D1F70895CF93DF9387E608
:1001B0008093C4001092C50082E08093C00088E95B
:1001C0008093C10010928D0110928E0110928F01C8
:1001D0001092900185E086BD80916E0081608093D1
:1001E0006E0084E085BD80E480937C008FED809379
:1001F0007A000E949502789488E19EE00FB6F89408
:10020000A895809360000FBE9093600046E150E097
:1002100060E070E088E291E00E941D09A895C0911D
:100220003C01D0913D0188E291E00E94C800C817CE
:10023000D90709F44BC085E391E00E9443038CE3A6
:1002400090E0909337018093360181E090E09093A5
:1002500039018093380110923B0110923A018AE0F3
:1002600080932B018093290181E080932A018BE404
:100270008093280185E090E09093350180933401CC
:1002800088EC90E0909333018093320128E532E0CE
:10029000309331012093300120E931E030932F0178
:1002A00020932E0190932D0180932C0188E291E000
:1002B0000E94C80090933D0180933C0146E150E0CC
:1002C00060E070E088E291E00E942D0981E0809377
:1002D0001501A89581E191E00E9443038BEF90E026
:1002E0000E944303A8950E94C60464E670E080E083
:1002F00090E00E94B602A89580E00E94D70489EEA3
:1003000090E00E94DE0481E00E94D7048BED90E033
:100310000E94DE04A8956CE271E080E090E00E940B
:10032000B602A8956CE271E080E090E00E94B6020F
:10033000A8956CE271E080E090E00E94B602A8957A
:1003400081E00E94D7048DEC90E00E94DE046CE214
:1003500071E080E090E00E94B602A8956CE271E046
:1003600080E090E00E94B602A895DF91CF910895B9
:10037000CF93DF93C7E0D1E041E064E08E819F81BD
:100380000E94DD0241E064E08C819D810E94DD02DB
:1003900040E063E0888199810E94DD0240E064E0F2
:1003A0008B899C890E94DD0241E063E08B8D9C8DEE
:1003B0000E94DD028DE00E94D6028AE0DF91CF919B
:1003C0000C94D602CF93C82F8EEB90E00E9443038B
:1003D0008EEA90E00E9443038BEA90E00E94430380
:1003E00040E063E080913601909137010E94DD0288
:1003F00086EA90E00E94430340E063E08091380188
:10040000909139010E94DD0281EA90E00E9443034D
:1004100040E063E080913A0190913B010E94DD024F
:1004200085E990E00E94430380912B0140E063E066
:1004300090E00E94DD028AE890E00E944303C13709
:1004400011F410924B01CF9108951F920F920FB6A5
:100450000F9211248F939F93AF93BF9385E086BD36
:1004600080918D0190918E01A0918F01B0919001AA
:100470000496A11DB11D80938D0190938E01A093D0
:100480008F01B0939001BF91AF919F918F910F9089
:100490000FBE0F901F90189590917C00907E8F71E9
:1004A000982B90937C0080917A00806180937A00F1
:1004B00080917A00806480937A0080917A0086FD32
:1004C000FCCF80917800909179000895F89490E2A3
:1004D000899FA001112430E020E080E090E0DC0161
:1004E000F901EE0FFF1FE40FF51FE35BFE4F608184
:1004F0007181860F971FA11DB11D2F5F3F4F2031C6
:10050000310571F7789422E0B695A7959795879570
:100510002A95D1F708951F920F920FB60F921124CA
:100520000F900FBE0F901F90189510928900109297
:10053000880082EB8093800081E08093810029987D
:10054000219A089597FF02C090E080E0811522E093
:10055000920714F08FEF91E09093890080938800C8
:100560000895809188009091890008950F931F93BA
:1005700000918D0110918E0120918F013091900199
:10058000DC01CB01800F911FA21FB31F00918D01D1
:1005900010918E0120918F01309190018017910769
:1005A000A207B30798F71F910F9108959091C0008B
:1005B00095FFFCCF8093C6000895BF92CF92DF9243
:1005C000EF92FF920F931F93CF93DF937C01162F2F
:1005D000B42E00E097FF04C0F194E194F10801E02B
:1005E000812FC1E0D0E09AE011114AC011E0C1E0D2
:1005F000D0E02AE007C0CE01289FE001299FD00D5E
:1006000011241F5FC701BE010E9493086A30710563
:1006100010F0153081F780E20E94D6028DE20111C0
:1006200001C080E20E94D6028AE0C82ED12C1B11A4
:1006300003C08EE20E94D6021150C701BE010E9483
:100640009308CB01B6010E949308805D0E94D602F8
:10065000CE01B6010E949308EB01209741F7DF918C
:10066000CF911F910F91FF90EF90DF90CF90BF90AF
:1006700008959E01929FE001939FD00D1124815017
:100680008130B9F7C8CFCF93DF93EC01FE0184919D
:100690002196811103C0DF91CF9108950E94D60267
:1006A000F5CF80910401811106C0909106018091DF
:1006B00005019817D1F310920401809106018F5F14
:1006C000809306018A3010F010920601E091060135
:1006D000F0E0EF56FE4F8081089580910401811172
:1006E00018C09091050180910601891730F480911E
:1006F000050190910601891B089590910501809153
:100700000601981740F48091050190910601865FDB
:10071000F2CF8AE0089580E008951F920F920FB6FD
:100720000F9211248F939F93EF93FF938091050174
:100730008F5F809305018A3010F01092050190912F
:10074000060180910501981305C0809104018F5F17
:1007500080930401E09105018091C600F0E0EF561E
:10076000FE4F8083FF91EF919F918F910F900FBE6D
:100770000F901F901895181619065CF021E030E0D4
:10078000892B11F430E020E088279927821B930BF6
:10079000089581E090E0089597FF03C091958195B9
:1007A00091090895FA01811101C0108280816817B2
:1007B00018F4108281E008958F5F808380E00895AF
:1007C000FA01811102C01182108280819181681723
:1007D00079072CF001969183808380E0089581E071
:1007E0000895559A549A569A53985B9A57985F9AD7
:1007F00052985A9A2098289A81E08093000108958F
:100800005398579852982098289A0895539A579A2F
:10081000529A209A08954B9B08C080E14F998062BC
:100820004A99806418998068089580E0F7CF84FF22
:100830000BC05B9A85FF0AC05F9A86FF09C05A9A6F
:1008400087FF08C0289A08955B98F4CF5F98F5CF8A
:100850005A98F6CF28980895CF93DF935D980E9419
:1008600000045C9A5E9A0000000000000000000096
:1008700000000000000080910001D0E0C0E0811184
:100880001CC05E98DF91CF910895219680E080FD95
:1008900023C05E980000000000000000000000007F
:1008A0000000000000000000000000000000000048
:1008B000000000008F5F843051F70E940B0487FF17
:1008C00007C0C13D87E0D80701F710920001D9CFDA
:1008D000C03DD740B4F2F9CF5E9ADCCFCF93DF931F
:1008E000D82FC62F0E942C04D13009F045C05D9A44
:1008F0005C985E9A0E9406048C2F807F0E941704E9
:1009000000000000000000000000000000000000E7
:1009100000000000000000000000000000000000D7
:100920005E980000000000000000000000000000D1
:1009300000000000000000000000000000000000B7
:1009400000005E9A8C2F8295807F0E941704000021
:100950000000000000000000000000000000000097
:1009600000000000000000000000000000005E9891
:10097000DF91CF910C9400045D98BACF682F81E08D
:100980000C946E04682F80E00C946E040E94F103B6
:1009900088E20E94C20481E00E94C20486E00E94B4
:1009A000C2048CE00E94C20482E00C94C2048295CE
:1009B000880F880F807C80680C94C204CF93DF93EB
:1009C000EC01FE0184912196811103C0DF91CF914A
:1009D00008950E94BE04F5CFCF93C82FC11102C065
:1009E000CF91089580E20E94BE04C150F7CFAF922C
:1009F000BF92DF92EF92FF920F931F93CF93DF93FB
:100A00007C01162FD42E00E097FF07C0F194E194EB
:100A1000F1088DE20E94BE0401E0812FC1E0D0E028
:100A20009AE007C09E01929FE001939FD00D112490
:100A300081508230B8F78AE0A82EB12C1D1103C076
:100A40008EE20E94BE041150C701BE010E949308AD
:100A5000CB01B5010E949308009721F4D11610F440
:100A6000002329F0805D0E94BE0401E003C080E203
:100A70000E94BE04CE01B5010E949308EB012097AD
:100A8000E9F6DF91CF911F910F91FF90EF90DF90EA
:100A9000BF90AF9008950E94D500F12CC1E0A4E56D
:100AA0006A2E772473940AE010E0B2E02B2E312CEA
:100AB000412C512CD6EF8D2ED3E09D2EA12CB12CA4
:100AC000A8950E946D03882309F42FC280914B01E1
:100AD000811123C20E945103D82F8D3609F003C221
:100AE000C0934B0180E00E94E20180918D019091C2
:100AF0008E01A0918F01B0919001409146015091DB
:100B00004701609148017091490184179507A60734
:100B1000B70708F486C080911C0191E0980F90936C
:100B20001C01913009F003C290E080E00E94A20213
:100B300080911C01853030F080910701909108016F
:100B40000E94A20280911C01813110F010921C01C0
:100B500080911D01882309F427C28091130181111E
:100B600023C2E0900B01F0900C0180910D01909157
:100B70000E01E81AF90AF0921001E0920F01C090FC
:100B80001101D09012012CE330E0D7010E94E90856
:100B900096010D2C000C440B550B620F731F841F24
:100BA000951F24E630E040E050E00E94BB08F901C8
:100BB00030930801209307012C5A3E4F283A3240C7
:100BC00060F4C701B8010E94A7086C0D7D1D77FD78
:100BD000E6C17093120160931101E535F14024F0F4
:100BE00070920801609207018091070190910801BD
:100BF00097FF04C0109208011092070180914601EE
:100C000090914701A0914801B09149014096A11DE2
:100C1000B11D8093460190934701A0934801B09382
:100C2000490180918D0190918E01A0918F01B09129
:100C300090014091420150914301609144017091B3
:100C4000450184179507A607B70708F4B2C080E0EE
:100C50000E944C027C0180E00E944C028E0D9F1D80
:100C60009695879590931F0180931E0182E00E94C4
:100C70004C022091240130912501820F931F909303
:100C800025018093240180912601909127010196EE
:100C9000909327018093260120911E0130911F011E
:100CA0002A30310508F089C110921D0110920C0103
:100CB00010920B01109213011092140180E00E9417
:100CC000D70484E890E00E94DE0480910D019091A9
:100CD0000E01B8010E94A708CB0140E063E00E942A
:100CE000F7048FED0E94BE0481E890E00E94DE04CC
:100CF00080910B0190910C01B8010E94A708CB01D3
:100D000040E063E00E94F7048FED0E94BE048EE78E
:100D100090E00E94DE0481E00E94D70488E790E022
:100D20000E94DE0480911301882309F473C184E7D3
:100D300090E00E94DE048091220190912301C397EC
:100D400028F18CE690E00E94DE0480911A019091D7
:100D50001B018A3091050CF486C180FD84C164E6D4
:100D600070E00E94A708CB01B8010E94A708805D2F
:100D70000E94BE0441E064E0809122019091230131
:100D80000E94F70488E690E00E94DE048091420110
:100D900090914301A0914401B0914501C296A11DDB
:100DA000B11D8093420190934301A0934401B093FD
:100DB000450180918D0190918E01A0918F01B0919C
:100DC000900140913E0150913F016091400170912E
:100DD000410184179507A607B70708F482C08091E0
:100DE0001501882309F444C120912601309127017F
:100DF0008091240190912501B9010E94930842E35A
:100E0000469FC001479F900D11246DE570E00E9440
:100E1000930870932301609322016233710528F4D3
:100E20002630310510F01092150110922501109214
:100E30002401109227011092260180911D01882320
:100E400009F46CC18091220190912301C3974897C6
:100E500028F4809115018111C093130181E0209144
:100E6000070130910801243531400CF480E046E15F
:100E700051E064E170E00E94E003882309F4FDC0C2
:100E8000C0931301109214011092190110921801CD
:100E900080911E0190911F01909321018093200168
:100EA00080913E0190913F01A0914001B09141019C
:100EB00088519C4FAF4FBF4F80933E0190933F01AD
:100EC000A0934001B093410181E090914A019111BA
:100ED00080E080934A0180914B01811102C00E9401
:100EE000B801FD2EEDCDF0E3CF2EFC10FECD80320B
:100EF00009F0FBCD6CE271E080E090E00E94B60268
:100F000084E10E94D6026EE170E080E090E00E94F1
:100F1000B60280E10E94D602FFCF10921D01C0935D
:100F200014010E9451030E94E201DF2DDECD8350A7
:100F3000823008F0FDCD81E00E944C029C01A4E7C4
:100F4000B3E10E94DA08AB01BC01EAE07595679550
:100F500057954795EA95D1F74850510961097109AC
:100F600080910D0190910E01092E000CAA0BBB0B74
:100F70006A017B01C80ED91EEA1EFB1EC701B6011D
:100F8000A20191010E94BB0830930E0120930D0134
:100F9000253030410CF4CCCDC0931C01C9CD10924A
:100FA00012011092110119CE10920801109207013E
:100FB000109212011092110121CE80911401882308
:100FC00049F020EDC22E27E0D22ED0920C01C09223
:100FD0000B0174CEC0931D0150E040E02A5031094E
:100FE00041095109A8ECB0E00E94F008A501940164
:100FF0000E94BB0828533F4F4F4F5F4F9AE0D92EB6
:10100000D29EC001D39E900D112490930C01809329
:101010000B0154CE80914A01882339F0809114014C
:10102000882319F080E790E084CE20910701309169
:1010300008018AE0E82EE29EC001E39E900D112493
:1010400088342DE0920764F462E270E00E94A70801
:10105000CB0140E062E00E94F7048EE690E069CEAA
:1010600083E690E0F6CF8AE690E00E94DE0482CE2E
:101070001092230110922201D8CE209107013091C5
:1010800008014091090150910A0169E0649FC00183
:10109000659F900D1124820F931FB8010E94A7082D
:1010A00070930A0160930901C901861B970B43964F
:1010B000879718F0223031057CF580910F019091CF
:1010C0001001C3974CF580911E0190911F01209152
:1010D000200130912101821B930B853F6FEF960712
:1010E000DCF021E00C970CF020E0F22E48E151E01A
:1010F00068E572E08F2D0E94E003809314014AE1BD
:1011000051E060E777E18F2D0E94E003882309F426
:10111000BFCE10921D01BCCEF12CE8CF1092190168
:1011200010921801BDCEAA1BBB1B51E107C0AA1F1C
:10113000BB1FA617B70710F0A61BB70B881F991F78
:101140005A95A9F780959095BC01CD01089597FB1C
:10115000072E16F4009407D077FD09D00E9493085B
:1011600007FC05D03EF4909581959F4F08957095AA
:1011700061957F4F0895052E97FB1EF400940E9401
:10118000D20857FD07D00E94FB0807FC03D04EF49D
:101190000C94D20850954095309521953F4F4F4F74
:1011A0005F4F089590958095709561957F4F8F4F13
:1011B0009F4F0895A29FB001B39FC001A39F700DE0
:1011C000811D1124911DB29F700D811D1124911D4F
:1011D00008950E94DA08B7FF0895821B930B0895C3
:1011E0000E94DA08A59F900DB49F900DA49F800DDA
:1011F000911D11240895A1E21A2EAA1BBB1BFD010B
:101200000DC0AA1FBB1FEE1FFF1FA217B307E407E5
:10121000F50720F0A21BB30BE40BF50B661F771F3D
:10122000881F991F1A9469F760957095809590951D
:101230009B01AC01BD01CF010895DC01CB01FC0194
:10124000F999FECF06C0F2BDE1BDF89A319600B41F
:101250000D9241505040B8F70895DC01CB0103C016
:101260002D910E94380941505040D0F70895262F03
:10127000F999FECF1FBA92BD81BD20BD0FB6F8947B
:0E128000FA9AF99A0FBE01960895F894FFCFDE
:02128E0001005D
:00000001FF
