:1000000059C073C072C071C070C06FC06EC06DC087
:100010006CC066C16AC0ADC268C067C0B9C165C006
:1000200064C063C062C02500535441004552520071
:100030002050574D3A0043200043200054656D7016
:100040003A000D0A657869743A710D0A000D0A6963
:100050006E74657276616C3D000D0A443D000D0AB8
:10006000493D00503D00232320434F4E54524F4CF6
:100070002023230D0A00536F6C646572204D656E5A
:10008000753A0D0A002020204D41582D536F6C64A5
:10009000657220202020006C6F6164696E672064A7
:1000A000656661756C7420706172616D732E2E2EA1
:1000B0000D0A000011241FBECFE5D4E0DEBFCDBF86
:1000C00010E0A0E6B0E0E8EDFEE002C005900D9281
:1000D000A236B107D9F720E0A2E6B0E001C01D9238
:1000E000A23FB207E1F7F0D3F5C68ACFFC019C012D
:1000F0002C5E3F4F8DEC9BEA4191840F911DE217DE
:10010000F307D1F70895CF93DF9389E189B910BC44
:1001100082E08BB988E98AB9909A1092E400109233
:10012000E5001092E6001092E70085E082BF89B7F3
:10013000816089BF83E083BF80E487B98FED86B992
:1001400031D178949EE088E10FB6F894A89581BDEE
:100150000FBE91BD46E150E060E070E08FE790E0B7
:1001600093D6C0919300D09194008FE790E0BEDFCA
:10017000C817D90709F448C087E990E0B2D18CE3E9
:1001800090E090938E0080938D0081E090E09093BA
:10019000900080938F0010929200109291008AE05C
:1001A000809382008093800081E0809381008BE4C3
:1001B00080937F0085E090E090938C0080938B008B
:1001C00088EC90E090938A008093890028E532E0E3
:1001D000309388002093870020E931E03093860037
:1001E0002093850090938400809383008FE790E0B4
:1001F0007DDF909394008093930046E150E060E0AF
:1002000070E08FE790E050D664EF71E080E090E01E
:10021000E3D0A895E2D280E0EBD285E890E0EED280
:10022000A89564EF71E080E090E0D6D0A895DF91CA
:10023000CF910895CF93DF93C7E6D0E041E064E02B
:100240008C819D81EDD041E064E08A819B81E8D082
:1002500040E063E088819981E3D040E064E08889F0
:100260009989DED08DE0D8D08AE0DF91CF91D4C0DB
:10027000CF93C82F86E790E034D186E690E031D165
:1002800083E690E02ED140E063E080918D00909174
:100290008E00C6D08EE590E024D140E063E08091EE
:1002A0008F0090919000BCD089E590E01AD140E099
:1002B00063E08091910090919200B2D08DE490E043
:1002C00010D18091820040E063E090E0A9D082E408
:1002D00090E007D1C13711F41092A200CF91089598
:1002E0001F920F920FB60F9211248F939F93AF938B
:1002F000BF9385E082BF8091E4009091E500A091DA
:10030000E600B091E7000296A11DB11D8093E400C4
:100310009093E500A093E600B093E700BF91AF9102
:100320009F918F910F900FBE0F901F90189597B1CE
:100330008F71907E892B87B9349A369A3699FECF81
:1003400084B125B190E0922B0895F89490E2899FB2
:10035000A001112420E030E080E090E0DC01F90110
:10036000E40FF51FEC55FF4F60817181860F971FD9
:10037000A11DB11D2E5F3F4F2032310581F77894CA
:1003800022E0B695A795979587952A95D1F7089578
:100390001F920F920FB60F9211240F900FBE0F9065
:1003A0001F9018951BBC1ABC82EB8FBD81E08EBDDF
:1003B000C198B99A0895811522E092072CF497FF0D
:1003C00005C080E090E002C08FEF91E09BBD8ABD48
:1003D00008958AB59BB508950F931F930091E4008B
:1003E0001091E5002091E6003091E700DC01CB019F
:1003F000800F911FA21FB31F0091E4001091E50030
:100400002091E6003091E70080179107A207B3071B
:1004100098F71F910F9108955D9BFECF8CB90895B9
:10042000BF92CF92DF92EF92FF920F931F93CF93E1
:10043000DF937C01162FB42E97FF05C0F194E19451
:10044000F10801E001C000E0112329F0812FC1E093
:10045000D0E09AE014C011E0C1E0D0E02AE0C7018A
:10046000BE0191D46A307105A0F0153091F0CE0133
:10047000289FE001299FD00D11241F5FF0CF81300C
:1004800041F09E01929FE001939FD00D1124815075
:10049000F6CF80E2C1DF002311F08DE201C080E2DF
:1004A000BBDF8AE0C82ED12CB11202C08EE2B4DFCD
:1004B0001150C701BE0167D4CB01B60164D4805D81
:1004C000ABDFCE01B6015FD4EB01209769F7DF9176
:1004D000CF911F910F91FF90EF90DF90CF90BF9041
:1004E0000895CF93DF93FC018491EF012196882337
:1004F00019F092DFFE01F8CFDF91CF91089580913E
:100500006400811106C09091660080916500981783
:10051000D1F310926400809166008F5F8093660033
:100520008A3010F010926600E0916600F0E0E85129
:10053000FF4F8081089580916400811118C020913F
:10054000650090916600921728F480916500909163
:1005500066000BC02091650090916600291740F459
:100560008091650090916600865F891B08958AE0FE
:1005700008951F920F920FB60F9211248F939F939D
:10058000EF93FF93809165008F5F809365008A30C1
:1005900010F01092650090916600809165009813AC
:1005A00005C0809164008F5F80936400E0916500D6
:1005B0008CB1F0E0E851FF4F8083FF91EF919F9164
:1005C0008F910F900FBE0F901F9018951816190657
:1005D0005CF021E030E0892B11F420E030E0882746
:1005E0009927821B930B089581E090E0089597FF6F
:1005F00003C09195819591090895FA01811101C077
:1006000010828081681718F4108281E008958F5F4E
:10061000808380E00895FA01811102C01182108266
:1006200080819181681779072CF0019691838083EE
:1006300080E0089581E008958D9A8C9A8E9A8B9827
:10064000939A8F98979A8A98929AB898C09A81E0CC
:100650008093600008958B988F988A98B898C09A74
:1006600008958B9A8F9A8A9AB89A0895839B02C0AC
:1006700080E101C080E08799806282998064B099AE
:100680008068089584FF02C0939A01C0939885FF03
:1006900002C0979A01C0979886FF02C0929A01C043
:1006A000929887FF02C0C09A0895C0980895CF938A
:1006B000DF939598D0DF949A969A0000000000008E
:1006C000000000000000000000008091600088230E
:1006D00039F1C0E0D0E0CADF87FF1DC0C13D87E02F
:1006E000D807E1F0219680E080FD1EC096980000BA
:1006F00000000000000000000000000000000000FA
:1007000000000000000000000000000000008F5FFB
:10071000843051F7E0CFC03DD74014F01092600014
:100720009698DF91CF910895969AE1CF1F93CF933A
:10073000DF931F92CDB7DEB7162F8983B8DF89818B
:10074000813011F4959A01C095989498969A89DF12
:10075000812F807F97DF0000000000000000000074
:100760000000000000000000000000000000000089
:10077000000000000000969800000000000000004B
:100780000000000000000000000000000000000069
:100790000000000000000000969A812F8295807F63
:1007A00071DF0000000000000000000000000000F9
:1007B0000000000000000000000000000000000039
:1007C000000096980F90DF91CF911F9144CF682F32
:1007D00081E0ACCF682F80E0A9CF2EDF88E2FADF7E
:1007E00081E0F8DF86E0F6DF8CE0F4DF82E0F2CF34
:1007F0008295880F880F807C8068ECCFCF93DF9341
:10080000FC018491EF012196882319F0E0DFFE01BD
:10081000F8CFDF91CF910895CF93C82FCC2321F04B
:1008200080E2D5DFC150FACFCF910895BF92CF9229
:10083000DF92EF92FF920F931F93CF93DF937C0190
:10084000162FB42E97FF07C0F194E194F1088DE2C2
:10085000BEDF01E001C000E0812FC1E0D0E09AE0FE
:10086000823040F09E01929FE001939FD00D1124B1
:100870008150F6CF8AE0C82ED12CB11202C08EE290
:10088000A6DF1150C701BE017ED2CB01B6017BD2DB
:10089000009739F4B11628F4011103C080E297DF04
:1008A00003C0805D94DF01E0CE01B6016CD2EB01A4
:1008B000209719F7DF91CF911F910F91FF90EF9043
:1008C000DF90CF90BF9008951EDC2AE0222E312CBD
:1008D00036EFC32E33E0D32EE12CF12CC1E0DAE069
:1008E000A89529DE882389F08091A200811107C094
:1008F00006DE8D3651F4C093A20080E005C0109250
:100900007A00C0937200FBDDB3DC8091E40090912B
:10091000E500A091E600B091E70040919D00509164
:100920009E0060919F007091A00084179507A60714
:10093000B70708F4D3C08091790091E0980F9093A5
:100940007900913021F480E090E035DD34C08350AF
:10095000823088F581E0EBDC9C01A4E7B3E156D25C
:10096000AB01BC019AE075956795579547959A95A7
:10097000D1F7455051096109710980916B0090913F
:100980006C00092E000CAA0BBB0B8A019B01080FFF
:10099000191F2A1F3B1FC901B80122E030E040E0C7
:1009A00050E018D230936C0020936B00253030411A
:1009B00014F0C093790080917900853028F08091FF
:1009C000670090916800F7DC80917900813110F028
:1009D0001092790080917A00882309F464C0809194
:1009E0007100811160C0A0916900B0916A0080918E
:1009F0006B0090916C00A81BB90BB0936E00A09394
:100A00006D0000916F00109170004D010B2E000CD5
:100A1000AA08BB082801012E000C660877082CE301
:100A200030E000D2640D751D861D971D24E630E070
:100A300040E050E0CFD129013A0130936800209383
:100A40006700C9018C5A9E4F883A9240A0F4C501B4
:100A5000B4012AE030E040E050E0BCD1200F311F6B
:100A600037FD05C03093700020936F0004C01092D2
:100A7000700010926F0035E5431631E053066104B3
:100A8000710434F084E591E09093680080936700EE
:100A9000809167009091680097FF0DC010926800E8
:100AA0001092670008C010926800109267001092C0
:100AB000700010926F0080919D0090919E00A09117
:100AC0009F00B091A0004096A11DB11D80939D0094
:100AD00090939E00A0939F00B093A0008091E400AB
:100AE0009091E500A091E600B091E7004091990057
:100AF00050919A0060919B0070919C00841795071B
:100B0000A607B70708F4AEC080E011DC8C0180E0D6
:100B10000EDC800F911F9C013695279530937C0049
:100B200020937B002A30310558F410927A001092FD
:100B30006A001092690010927100109272002BC02E
:100B400080917200882339F000ED17E010936A005D
:100B50000093690020C0C0937A00C901A0E0B0E012
:100B60009C01AD012A50310941095109A8ECB0E0BE
:100B70005FD1A70196012ED1BA01A90148535F4F59
:100B80006F4F7F4FD49FC001D59F900D112490933C
:100B90006A008093690080E02BDE8CE390E02EDE1B
:100BA00080916B0090916C00B10101D1CB0140E0CC
:100BB00063E03CDE8FED0BDE89E390E01FDE809189
:100BC000690090916A00B101F2D0CB0140E063E08E
:100BD0002DDE8FEDFCDD86E390E010DE81E008DEA7
:100BE00080E390E00BDE80917100882319F08CE2A5
:100BF00090E024C08091A100882339F08091720098
:100C00008823E9F088E290E019C0209167003091D4
:100C10006800D29FC001D39F900D112488341DE03D
:100C200091072CF462E270E0C2D0CB0102C083E6EF
:100C300090E040E062E0FADD86E290E0DFDD809166
:100C4000990090919A00A0919B00B0919C00C2964F
:100C5000A11DB11D8093990090939A00A0939B00D1
:100C6000B0939C008091E4009091E500A091E60093
:100C7000B091E700409195005091960060919700E7
:100C80007091980084179507A607B70708F428CE37
:100C900080917A00882309F455C081E02091670093
:100CA00030916800243531400CF480E043E750E097
:100CB00064E170E0B0DC882331F081E08093710062
:100CC0001092720037C08091690090916A0061E4CF
:100CD00070E06DD08091670090916800861797074B
:100CE000BCF480916D0090916E00C2978CF480915D
:100CF0007B0090917C0020917D0030917E00821BD2
:100D0000930B873F0FEF90071CF0C1E00A970CF0A0
:100D1000C0E045E750E068E572E08C2F7CDC809312
:100D2000720047E750E060E777E18C2F74DC8111B7
:100D300010927A0080917B0090917C0090937E00CD
:100D400080937D008091950090919600A0919700EE
:100D5000B091980088519C4FAF4FBF4F8093950042
:100D600090939600A0939700B093980081E09091A3
:100D7000A100911180E08093A1008091A2008111D7
:100D8000ADCD58DAABCDAA1BBB1B51E107C0AA1FE2
:100D9000BB1FA617B70710F0A61BB70B881F991F1C
:100DA0005A95A9F780959095BC01CD01089597FBC0
:100DB000072E16F4009406D077FD08D0E4DF07FC78
:100DC00005D03EF4909581959F4F0895709561955B
:100DD0007F4F0895052E97FB16F400940FD057FD12
:100DE00005D030D007FC02D046F408C0509540959D
:100DF000309521953F4F4F4F5F4F089590958095C7
:100E0000709561957F4F8F4F9F4F0895A29FB001BE
:100E1000B39FC001A39F01D0B29F700D811D11240B
:100E2000911D0895F3DFB7FF0895821B930B08957A
:100E3000EDDFA59F900DB49F900DA49F800D911D97
:100E400011240895A1E21A2EAA1BBB1BFD010DC09F
:100E5000AA1FBB1FEE1FFF1FA217B307E407F5076A
:100E600020F0A21BB30BE40BF50B661F771F881F46
:100E7000991F1A9469F760957095809590959B01DC
:100E8000AC01BD01CF010895DC01CB01FC01E1996A
:100E9000FECF06C0FFBBEEBBE09A31960DB20D92BD
:100EA00041505040B8F70895DC01CB0102C02D91AC
:100EB00005D041505040D8F70895262FE199FECF34
:100EC0009FBB8EBB2DBB0FB6F894E29AE19A0FBE82
:080ED00001960895F894FFCF8C
:020ED800010017
:00000001FF
