:1000000087C0A1C0A0C09FC09EC09DC09CC09BC017
:100010009AC0C7C198C00EC396C095C01AC293C0FB
:1000200092C091C090C0560020002000250053547B
:100030004100455252002050574D3A0043200043A2
:10004000200054656D703A000D0A657869743A7144
:100050000D0A000D0A696E74657276616C3D000DC3
:100060000A443D000D0A493D00503D002323204332
:100070004F4E54524F4C2023230D0A00536F6C6493
:100080006572204D656E753A0D0A004769743A3203
:10009000656439202020202000423A4A756E2031C4
:1000A000362032303230002020204D41582D536F01
:1000B0006C64657220202020002C20476974207613
:1000C000657273696F6E3A20326564390D0A0023D8
:1000D000204D617820536F6C646572206275696C85
:1000E0006420646174653A4A756E2031362032307E
:1000F0003230006C6F6164696E672064656661759B
:100100006C7420706172616D732E2E2E0D0A0000CA
:1001100011241FBECFE5D4E0DEBFCDBF10E0A0E6C6
:10012000B0E0E4E0F1E102C005900D92A236B10723
:10013000D9F720E0A2E6B0E001C01D92AB3FB207C4
:10014000E1F723D4DDC75CCFFC019C012C5E3F4F5F
:100150008DEC9BEA4191840F911DE217F307D1F7D3
:100160000895CF93DF9389E189B910BC82E08BB900
:1001700088E98AB9909A1092ED001092EE001092E0
:10018000EF001092F00085E082BF89B7816089BFDF
:1001900083E083BF80E487B98FED86B964D178941A
:1001A0009DE088E10FB6F894A89581BD0FBE91BD82
:1001B00046E150E060E070E088E890E07BD7A895E9
:1001C000C0919C00D0919D0088E890E0BDDFC817E9
:1001D000D90709F448C083EF90E0E4D18CE390E0C4
:1001E000909397008093960081E090E0909399001F
:1001F0008093980010929B0010929A008AE080935E
:100200008B008093890081E080938A008BE4809347
:10021000880085E090E0909395008093940088ECAE
:1002200090E0909393008093920028E532E0309321
:1002300091002093900020E931E030938F002093CB
:100240008E0090938D0080938C0088E890E07CDF96
:1002500090939D0080939C0046E150E060E070E048
:1002600088E890E037D781E080937500A8958FECFF
:1002700090E098D189EB90E095D1A8950FD364E6F2
:1002800070E080E090E009D1A89580E012D387EA81
:1002900090E015D381E00DD389E990E010D3A895C3
:1002A0006CE271E080E090E0F8D0A8956CE271E03B
:1002B00080E090E0F2D0A8956CE271E080E090E000
:1002C000ECD0A89581E0F5D28BE890E0F8D26CE212
:1002D00071E080E090E0E1D0A8956CE271E080E010
:1002E00090E0DBD0A895DF91CF910895CF93DF9375
:1002F000C7E6D0E041E064E08E819F81F2D041E02A
:1003000064E08C819D81EDD040E063E0888199813B
:10031000E8D040E064E08B899C89E3D041E063E071
:100320008B8D9C8DDED08DE0D8D08AE0DF91CF918F
:10033000D4C0CF93C82F8CE790E034D18CE690E006
:1003400031D189E690E02ED140E063E080919600C3
:1003500090919700C6D084E690E024D140E063E01D
:100360008091980090919900BCD08FE590E01AD1CF
:1003700040E063E080919A0090919B00B2D083E5C9
:1003800090E010D180918B0040E063E090E0A9D034
:1003900088E490E007D1C13711F41092AB00CF91FF
:1003A00008951F920F920FB60F9211248F939F936F
:1003B000AF93BF9385E082BF8091ED009091EE00F6
:1003C000A091EF00B091F0000296A11DB11D8093A5
:1003D000ED009093EE00A093EF00B093F000BF917A
:1003E000AF919F918F910F900FBE0F901F90189516
:1003F00097B18F71907E892B87B9349A369A369946
:10040000FECF84B125B190E0922B0895F89490E24C
:10041000899FA001112420E030E080E090E0DC0121
:10042000F901E40FF51FE355FF4F60817181860FDD
:10043000971FA11DB11D2E5F3F4F2032310581F75F
:10044000789422E0B695A795979587952A95D1F748
:1004500008951F920F920FB60F9211240F900FBEA6
:100460000F901F9018951BBC1ABC82EB8FBD81E0CA
:100470008EBDC198B99A0895811522E092072CF497
:1004800097FF05C080E090E002C08FEF91E09BBD38
:100490008ABD08958AB59BB508950F931F93009167
:1004A000ED001091EE002091EF003091F000DC01A2
:1004B000CB01800F911FA21FB31F0091ED0010917F
:1004C000EE002091EF003091F00080179107A20715
:1004D000B30798F71F910F9108955D9BFECF8CB9DC
:1004E0000895BF92CF92DF92EF92FF920F931F93E6
:1004F000CF93DF937C01162FB42E97FF05C0F194A4
:10050000E194F10801E001C000E0112329F0812FFE
:10051000C1E0D0E09AE014C011E0C1E0D0E02AE0F0
:10052000C701BE0146D56A307105A0F0153091F0C3
:10053000CE01289FE001299FD00D11241F5FF0CF2D
:10054000813041F09E01929FE001939FD00D1124D4
:100550008150F6CF80E2C1DF002311F08DE201C0AF
:1005600080E2BBDF8AE0C82ED12CB11202C08EE23D
:10057000B4DF1150C701BE011CD5CB01B60119D59E
:10058000805DABDFCE01B60114D5EB01209769F792
:10059000DF91CF911F910F91FF90EF90DF90CF905F
:1005A000BF900895CF93DF93FC018491EF012196D2
:1005B000882319F092DFFE01F8CFDF91CF910895E3
:1005C00080916400811106C0909166008091650061
:1005D0009817D1F310926400809166008F5F80932A
:1005E00066008A3010F010926600E0916600F0E03C
:1005F000EF50FF4F8081089580916400811118C0F1
:100600002091650090916600921728F48091650012
:10061000909166000BC020916500909166002917AB
:1006200040F48091650090916600865F891B089573
:100630008AE008951F920F920FB60F9211248F93A4
:100640009F93EF93FF93809165008F5F8093650088
:100650008A3010F0109265009091660080916500DC
:10066000981305C0809164008F5F80936400E091CF
:1006700065008CB1F0E0EF50FF4F8083FF91EF9168
:100680009F918F910F900FBE0F901F901895181685
:1006900019065CF021E030E0892B11F420E030E015
:1006A00088279927821B930B089581E090E0089595
:1006B00097FF03C09195819591090895FA018111E1
:1006C00001C010828081681718F4108281E00895BB
:1006D0008F5F808380E00895FA01811102C011824A
:1006E000108280819181681779072CF0019691839F
:1006F000808380E0089581E008958D9A8C9A8E9A87
:100700008B98939A8F98979A8A98929AB898C09A49
:1007100081E08093600008958B988F988A98B898AC
:10072000C09A08958B9A8F9A8A9AB89A0895839B53
:1007300002C080E101C080E0879980628299806474
:10074000B0998068089584FF02C0939A01C093987D
:1007500085FF02C0979A01C0979886FF02C0929ABF
:1007600001C0929887FF02C0C09A0895C09808956A
:10077000CF93DF939598D0DF949A969A000000006B
:1007800000000000000000000000000080916000F8
:10079000882339F1C0E0D0E0CADF87FF1DC0C13D2A
:1007A00087E0D807E1F0219680E080FD1EC0969892
:1007B0000000000000000000000000000000000039
:1007C0000000000000000000000000000000000029
:1007D0008F5F843051F7E0CFC03DD74014F01092C6
:1007E00060009698DF91CF910895969AE1CF1F937C
:1007F000CF93DF931F92CDB7DEB7162F8983B8DF73
:100800008981813011F4959A01C095989498969AAF
:1008100089DF812F807F97DF00000000000000004B
:1008200000000000000000000000000000000000C8
:10083000000000000000000096980000000000008A
:1008400000000000000000000000000000000000A8
:1008500000000000000000000000969A812F8295A1
:10086000807F71DF00000000000000000000000039
:100870000000000000000000000000000000000078
:100880000000000096980F90DF91CF911F9144CF08
:10089000682F81E0ACCF682F80E0A9CF2EDF88E2FF
:1008A000FADF81E0F8DF86E0F6DF8CE0F4DF82E05B
:1008B000F2CF8295880F880F807C8068ECCFCF9331
:1008C000DF93FC018491EF012196882319F0E0DF8A
:1008D000FE01F8CFDF91CF910895CF93C82FCC239D
:1008E00021F080E2D5DFC150FACFCF910895BF92B9
:1008F000CF92DF92EF92FF920F931F93CF93DF93EC
:100900007C01162FB42E97FF07C0F194E194F108F3
:100910008DE2BEDF01E001C000E0812FC1E0D0E048
:100920009AE0823040F09E01929FE001939FD00DAB
:1009300011248150F6CF8AE0C82ED12CB11202C00A
:100940008EE2A6DF1150C701BE0133D3CB01B60141
:1009500030D3009739F4B11628F4011103C080E2B6
:1009600097DF03C0805D94DF01E0CE01B60121D3A3
:10097000EB01209719F7DF91CF911F910F91FF9015
:10098000EF90DF90CF90BF900895EBDBF12CC1E0AA
:100990000AE010E0A0ED2A2EA7E03A2EBDE5CB2E0E
:1009A000D12CA89529DE882341F18091AB008111DB
:1009B0001EC006DED82F8D3629F4C093AB0080E030
:1009C000B8DC1CC0F0E38F2EF81018C08032B1F4F0
:1009D0006CE271E080E090E060DD84E17EDD6EE15C
:1009E00070E080E090E059DD80E177DDFFCF10928C
:1009F0007D00C0937400E4DD9CDCDF2D8091ED0070
:100A00009091EE00A091EF00B091F0004091A6000F
:100A10005091A7006091A8007091A90084179507D4
:100A2000A607B70708F4D5C080917C0091E0980F25
:100A300090937C00913021F480E090E01DDD34C083
:100A40008350823088F581E0D3DC9C01A4E7B3E1D8
:100A5000F3D2AB01BC01EAE07595679557954795D0
:100A6000EA95D1F7485051096109710980916D00EB
:100A700090916E00092E000CAA0BBB0B4A015B0182
:100A8000880E991EAA1EBB1EC501B40122E030E0EB
:100A900040E050E0B5D230936E0020936D002530D9
:100AA000304114F0C0937C0080917C00853028F0A8
:100AB0008091670090916800DFDC80917C0081313B
:100AC00010F010927C0080917D00882309F466C0AC
:100AD00080917300811162C0A0916B00B0916C0095
:100AE00080916D0090916E00A81BB90BB0937000BF
:100AF000A0936F00E0907100F09072002D010B2E1A
:100B0000000C6608770847010F2C000CAA08BB08E8
:100B10002CE330E09DD2680D791D8A1D9B1D24E6D3
:100B200030E040E050E06CD249015A013093680057
:100B300020936700C9018C5A9E4F883A9240A0F4D6
:100B4000C301B2012AE030E040E050E059D22E0D5E
:100B50003F1D37FD05C0309372002093710004C023
:100B6000109272001092710085E5881681E0980657
:100B7000A104B10444F034E5832E99249394909217
:100B8000680080926700809167009091680097FFED
:100B90000DC0109268001092670008C010926800A3
:100BA0001092670010927200109271008091A6005E
:100BB0009091A700A091A800B091A9004096A11D16
:100BC000B11D8093A6009093A700A093A800B093B6
:100BD000A9008091ED009091EE00A091EF00B091FE
:100BE000F0004091A2005091A3006091A400709188
:100BF000A50084179507A607B70708F4F1C080E0A1
:100C0000F7DB7C0180E0F4DB8E0D9F1D96958795C8
:100C100090937F0080937E0082E0EADB2091840045
:100C200030918500820F931F9093850080938400FC
:100C30008091860090918700019690938700809321
:100C4000860020917E0030917F002A30310558F4D3
:100C500010927D0010926C0010926B001092730045
:100C6000109274002DC080917400882329F0309276
:100C70006C0020926B0024C0C0937D00C901A0E0ED
:100C8000B0E09C01AD012A50310941095109A8EC9D
:100C9000B0E0E4D126EF33E040E050E0B1D14901CB
:100CA0005A0188EC880E911CA11CB11C6AE0689D59
:100CB000C001699D900D112490936C0080936B008E
:100CC00080E0F7DD82E490E0FADD80916D009091A4
:100CD0006E00B80182D1CB0140E063E008DE8FED09
:100CE000D7DD8FE390E0EBDD80916B0090916C009D
:100CF000B80173D1CB0140E063E0F9DD8FEDC8DDD1
:100D00008CE390E0DCDD81E0D4DD86E390E0D7DDAC
:100D100080917300882319F082E390E025C08091D0
:100D2000AA00882339F080917400882319F08EE29C
:100D300090E01AC020916700309168004AE0429F1D
:100D4000C001439F900D112488342DE092072CF4AC
:100D500062E270E042D1CB0102C083E690E040E065
:100D600062E0C5DD8CE290E0AADD80918200909186
:100D70008300C39710F18AE290E0A1DD80917A00B0
:100D800090917B008A3091055CF080FD09C064E69B
:100D900070E023D1CB01B80120D1805D79DD03C0A3
:100DA00088E290E08CDD41E064E0809182009091E7
:100DB00083009DDD86E290E082DD8091A20090912B
:100DC000A300A091A400B091A500C296A11DB11DE1
:100DD0008093A2009093A300A093A400B093A500D9
:100DE0008091ED009091EE00A091EF00B091F000A5
:100DF00040919E0050919F006091A0007091A100D1
:100E000084179507A607B70710F4FD2ECACD809169
:100E100075008823F9F02091860030918700809139
:100E2000840090918500B901C4D042E3469FC0017F
:100E3000479F900D1124B601BCD07093830060933E
:100E400082006233710550F42630310538F010927B
:100E5000750004C0109283001092820010928500E9
:100E600010928400109287001092860080917D007D
:100E7000882309F479C08091820090918300C39700
:100E8000489728F4809175008111C093730081E028
:100E90002091670030916800243531400CF480E0E7
:100EA00046E750E064E170E017DC882349F0C09326
:100EB00073001092740010927900109278004BC069
:100EC00020916700309168004091690050916A005C
:100ED00069E0649FC001659F900D1124820F931FEC
:100EE000B8017BD070936A0060936900C901861BCA
:100EF000970B4396879718F022303105D4F48091F0
:100F00006F0090917000C397A4F480917E0090913F
:100F10007F002091800030918100821B930B853FE0
:100F20002FEF920734F021E00C970CF020E0F22E26
:100F300001C0F12C48E750E068E572E08F2DCCDB72
:100F4000809374004AE750E060E777E18F2DC4DBBF
:100F5000811110927D0080917E0090917F0090938E
:100F600081008093800004C0109279001092780074
:100F700080919E0090919F00A091A000B091A1004F
:100F800088519C4FAF4FBF4F80939E0090939F001E
:100F9000A093A000B093A10081E09091AA009111CC
:100FA00080E08093AA008091AB0081112ECF9ED962
:100FB0002CCFAA1BBB1B51E107C0AA1FBB1FA61742
:100FC000B70710F0A61BB70B881F991F5A95A9F7F2
:100FD00080959095BC01CD01089597FB072E16F4DE
:100FE000009406D077FD08D0E4DF07FC05D03EF47E
:100FF000909581959F4F0895709561957F4F0895C5
:10100000052E97FB16F400940FD057FD05D030D075
:1010100007FC02D046F408C05095409530952195C4
:101020003F4F4F4F5F4F0895909580957095619514
:101030007F4F8F4F9F4F0895A29FB001B39FC00174
:10104000A39F01D0B29F700D811D1124911D0895A1
:10105000F3DFB7FF0895821B930B0895EDDFA59F83
:10106000900DB49F900DA49F800D911D11240895A3
:10107000A1E21A2EAA1BBB1BFD010DC0AA1FBB1F9C
:10108000EE1FFF1FA217B307E407F50720F0A21B0E
:10109000B30BE40BF50B661F771F881F991F1A947B
:1010A00069F760957095809590959B01AC01BD01A5
:1010B000CF010895DC01CB01FC01E199FECF06C010
:1010C000FFBBEEBBE09A31960DB20D9241505040FD
:1010D000B8F70895DC01CB0102C02D9105D0415035
:1010E0005040D8F70895262FE199FECF9FBB8EBBC5
:1010F0002DBB0FB6F894E29AE19A0FBE01960895BF
:04110000F894FFCF91
:021104000100E8
:00000001FF
