:1000000054C06EC06DC06CC06BC06AC069C068C0AF
:1000100067C079C065C01EC563C062C025C460C02A
:100020005FC05EC05DC05354410045525200432042
:10003000004320005469703A000D0A657869743AEB
:10004000710D0A000D0A696E74657276616C3D006F
:100050000D0A443D000D0A493D00503D0023232078
:10006000434F4E54524F4C2023230D0A00536F6CC4
:10007000646572204D656E753A0D0A002020204D92
:1000800041582D536F6C64657220202020006C6FE6
:100090006164696E672064656661756C7420706167
:1000A00072616D732E2E2E0D0A0011241FBECFE536
:1000B000D4E0DEBFCDBF10E0A0E6B0E0E8E0FFE0B6
:1000C00002C005900D92A236B107D9F710E0A2E662
:1000D000B0E001C01D92A23FB107E1F73BD112C7CA
:1000E0008FCF9C016DEC7BEA40E050E0F901E40F1A
:1000F000F51F8081680F711D4F5F5F4F44315105BF
:10010000A9F7CB0108951F920F920FB60F921124F9
:100110008F939F93AF93BF9385E082BF8091E4005C
:100120009091E500A091E600B091E7000296A11D34
:10013000B11D8093E4009093E500A093E600B09396
:10014000E700BF91AF919F918F910F900FBE0F90DD
:100150001F9018951F93182F8DE690E032D48DE5EF
:1001600090E02FD48AE590E02CD480918D0090917E
:100170008E0063E040E0C2D385E590E022D4809118
:100180008F009091900063E040E0B8D380E590E06C
:1001900018D4809191009091920063E040E0AED33A
:1001A00084E490E00ED48091820090E063E040E02F
:1001B000A5D389E390E005D4113711F41092A20081
:1001C0001F91089580916B0090916C0064E041E074
:1001D00095D38091690090916A0064E041E08ED3EC
:1001E000809167009091680063E040E087D3809140
:1001F00077009091780064E040E080D38DE07AD37E
:100200008AE078D30895CF93DF9389E189B910BC50
:1002100082E08BB988E98AB9909A1092E400109232
:10022000E5001092E6001092E70085E082BF89B7F2
:10023000816089BF83E083BF80E487B98FED86B991
:100240001DD378942EE088E190E00FB6F894A8953D
:1002500081BD0FBE21BD8FE790E060E070E046E118
:1002600050E02AD64091930050919400CFE7D0E01F
:10027000FE012DEC3BEA8191280F311D80E0E3392E
:10028000F807C9F74217530709F44EC08EE890E00B
:1002900098D38CE390E090938E0080938D0081E062
:1002A00090E09093900080938F00109292001092B3
:1002B00091008AE0809382008093800081E08093A7
:1002C00081008BE480937F0085E090E090938C0028
:1002D00080938B0028EC30E030938A0020938900D3
:1002E00088E592E0909388008093870080E991E010
:1002F0009093860080938500309384002093830040
:100300002DEC3BEA8991280F311D80E0C339D807D5
:10031000C9F73093940020939300CE01449760E096
:1003200070E046E150E0D8D564EF71E080E090E005
:10033000C5D2A895C6D480E0D0D48CE790E0D4D4C0
:10034000A89564EF71E080E090E0B8D2A895DF91C5
:10035000CF910895AF92BF92CF92DF92FF920F9309
:100360001F93CF93DF934FDFFF24F39474E5A72E01
:1003700071E0B72E60EDC62E67E0D62EA89549D362
:10038000882389F08091A200882339F424D38D3604
:1003900051F4F092A20080E005C010927A00F09231
:1003A000720019D3D7DE2091E4003091E50040912E
:1003B000E6005091E70080919D0090919E00A091F1
:1003C0009F00B091A000281739074A075B0708F47F
:1003D000D1C0809179008F5F80937900813021F4C2
:1003E00080E090E054D239C08430D1F481E004D26E
:1003F000A0E0B0E0BC01CD0128E833E140E050E0EE
:10040000D8D45AE095958795779567955A95D1F701
:1004100070936C0060936B0065507041F4F01BC0EA
:100420008530D9F481E0E8D1A0E0B0E0BC01CD0195
:1004300028E833E140E050E0BCD44AE09595879548
:10044000779567954A95D1F770936C0060936B0030
:100450006550704114F0F0927900809179008530F8
:1004600028F0809167009091680011D28091790006
:10047000813110F01092790080917A00882309F47C
:100480005EC080917100882309F059C0C091690055
:10049000D0916A0080916B0090916C00C81BD90BC1
:1004A000D0936E00C0936D0000916F0010917000AA
:1004B000BE01882777FD8095982F2CE330E040E03F
:1004C00050E077D49B01AC01B801882777FD809577
:1004D000982F620F731F841F951F24E630E040E0C1
:1004E00050E0ADD4F9013093680020936700C90152
:1004F0008C5A9E4F885A924080F4CE016AE070E098
:100500008BD4600F711F7093700060936F0077FF42
:1005100004C01092700010926F00E555F14024F075
:10052000B0926800A0926700809167009091680087
:1005300097FF0DC0109268001092670008C01092DB
:100540006800109267001092700010926F00809106
:100550009D0090919E00A0919F00B091A0004096B8
:10056000A11DB11D80939D0090939E00A0939F00BC
:10057000B093A0002091E4003091E5004091E600A6
:100580005091E7008091990090919A00A0919B0072
:10059000B0919C00281739074A075B0708F492C0FE
:1005A00080E02AD18C0180E027D1BC01600F711F4F
:1005B0007695679570937C0060937B006A30710537
:1005C00058F410927A0010926A001092690010920A
:1005D00071001092720024C080917200882329F06B
:1005E000D0926A00C09269001BC0F0927A0080E04D
:1005F00090E028EC30E040E050E0DBD32AE0959535
:100600008795779567952A95D1F72AE030E040E005
:1006100050E0CFD36053784F70936A0060936900C5
:1006200080E05BD384E390E05FD380916B00909196
:100630006C006AE070E0F0D3CB0163E040E06BD384
:100640008FED37D381E390E04FD380916900909193
:100650006A006AE070E0E0D3CB0163E040E05BD386
:100660008FED27D38EE290E03FD3809171008823F5
:1006700019F08AE290E00AC08091A100882341F03D
:1006800080917200882359F086E290E02DD307C054
:10069000809167009091680063E040E03CD38091D6
:1006A000990090919A00A0919B00B0919C00C296F5
:1006B000A11DB11D8093990090939A00A0939B0077
:1006C000B0939C002091E4003091E5004091E60059
:1006D0005091E7008091950090919600A09197002D
:1006E000B0919800281739074A075B0708F446CEEF
:1006F00080917A00882309F45CC020E08091670033
:1007000090916800845591400CF021E0822F64E1C3
:1007100070E043E750E0F2D1882329F0F0927100B5
:10072000109272003EC08091690090916A0061E46D
:1007300070E072D3809167009091680086179707E8
:10074000E4F480916D0090916E00C297B4F4209112
:100750007B0030917C0080917D0090917E00281B71
:10076000390B8FEF273F380744F080E02A303105FE
:100770000CF081E08F25C82F02C0C0E0D0E08C2FA4
:1007800068E572E045E750E0B9D1809372008C2FA4
:1007900060E777E147E750E0B1D1882311F010928C
:1007A0007A0080917B0090917C0090937E008093F2
:1007B0007D008091950090919600A0919700B09156
:1007C000980088519C4FAF4FBF4F809395009093F6
:1007D0009600A0939700B093980090E08091A100BC
:1007E000882309F491E09093A1008091A2008823CE
:1007F00009F0C4CDE7DCC2CD97B18F71907E892B13
:1008000087B9349A369A3699FECF24B145B1942FE0
:1008100080E030E0282B392BC9010895F89490E04E
:1008200025E0880F991F2A95E1F7FC01EC55FF4F51
:1008300020E030E040E050E0BC016C537F4F8191FC
:100840009191A0E0B0E0280F391F4A1F5B1FE61707
:10085000F707A9F7789482E056954795379527953D
:100860008A95D1F7C90108951F920F920FB60F9282
:1008700011240F900FBE0F901F9018951BBC1ABC2F
:1008800082EB8FBD81E08EBDC198B99A08959C011D
:1008900082E0203038071CF02FEF31E004C037FF32
:1008A00002C020E030E0832F992787FD9A958BBD09
:1008B0002ABD08952AB53BB5C90108959B01AC0135
:1008C0008091E4009091E500A091E600B091E700EE
:1008D000280F391F4A1F5B1F8091E4009091E500AB
:1008E000A091E600B091E700281739074A075B0797
:1008F00098F708955D9BFECF8CB90895CF93DF9351
:10090000EC0197FD02C0F0E004C0D095C195DF4F27
:10091000F1E0662321F0562F21E030E023C021E0F2
:1009200030E0E1E00BC0C901880F991FA3E0220F5E
:10093000331FAA95E1F7280F391FEF5FCE01B901E8
:1009400057D26A30710588F0E53069F70EC0C901E9
:10095000880F991F73E0220F331F7A95E1F7280F54
:10096000391F5150523098F7E62F5D9BFECF80E241
:100970008CB9FF2321F05D9BFECF8DE203C05D9B10
:10098000FECF80E28CB9FEE24E1719F45D9BFECFDC
:10099000FCB95D9BFECFCE01B9012AD2CB016AE042
:1009A00070E026D2805D8CB9C9016AE070E020D287
:1009B0009B016115710511F0E150E6CFDF91CF91F8
:1009C000089503C05D9BFECF2CB9FC0101962491D4
:1009D0002223C1F7089580916600882331F4909115
:1009E0006400809165009817D1F3109266008091A1
:1009F00064008F5F80936400809164008A3010F0FF
:100A000010926400E0916400F0E0E851FF4F8081B3
:100A1000089580916600882311F09AE019C09091A2
:100A2000650080916400891728F490916500809199
:100A300064000DC09091650080916400981710F0DB
:100A400090E006C09091650080916400965F981BCD
:100A5000892F08951F920F920FB60F9211248F9332
:100A60009F93EF93FF93809165008F5F8093650064
:100A7000809165008A3010F01092650090916400BA
:100A800080916500981729F4809166008F5F8093AC
:100A90006600E09165008CB1F0E0E851FF4F808383
:100AA000FF91EF919F918F910F900FBE0F901F902C
:100AB0001895181619061CF421E030E007C0892BA0
:100AC00019F420E030E002C02FEF3FEFC901089594
:100AD0009C0197FF03C0309521953F4FC9010895B0
:100AE000FA01882309F410828081681718F41082B3
:100AF00081E008958F5F808380E00895FA01882364
:100B000011F411821082808191816817790714F4A1
:100B100081E0089501969183808380E008958D9A05
:100B20008C9A8E9A8B98939A8F98979A8A98929A81
:100B3000B898C09A81E08093600008958B988F9850
:100B40008A98B898C09A08958B9A8F9A8A9AB89A78
:100B50000895839B02C080E101C080E08799806294
:100B600082998064B09980680895982F84FF02C0AC
:100B7000939A01C0939895FF02C0979A01C09798E5
:100B800096FF02C0929A01C0929887FF02C0C09A55
:100B90000895C0980895CF93DF939598CFDF949AE6
:100BA000969A000000000000000000000000000015
:100BB000000080916000882309F42CC0C0E0D0E0E0
:100BC0001CC080E090E080FD02C0969801C0969A1B
:100BD0000000000000000000000000000000000015
:100BE0000000000000000000000000000000000005
:100BF00001968430910539F72196ABDF87FD04C05B
:100C0000C05DD7403CF004C087E0C13DD807C9F6BD
:100C1000109260009698DF91CF9108950F931F93E3
:100C2000182F062FB8DF113011F4959A01C095984E
:100C30009498969A89DF802F807F97DF00000000CC
:100C400000000000000000000000000000000000A4
:100C50000000000000000000000000009698000066
:100C60000000000000000000000000000000000084
:100C70000000000000000000000000000000969A44
:100C8000802F8295807F71DF00000000000000004F
:100C90000000000000000000000000000000000054
:100CA0000000000000000000969848DF1F910F919F
:100CB0000895682F81E0B2DF0895682F80E0AEDFED
:100CC00008952DDF88E2F9DF81E0F7DF86E0F5DFC8
:100CD0008CE0F3DF82E0F1DF08958295880F880FC2
:100CE000807C8068EADF0895CF93DF93EC0101C038
:100CF000E0DFFE01219684918823D1F7DF91CF9127
:100D000008951F93182F03C080E2D3DF11501123E1
:100D1000D9F71F910895DF92EF92FF920F931F93DF
:100D2000CF93DF938C01F62ED42E97FD02C0EE24D4
:100D300007C0109501951F4F8DE2BBDFEE24E394B1
:100D40002F2DC1E0D0E00BC0CE01880F991F33E0FA
:100D5000CC0FDD1F3A95E1F7C80FD91F2150223083
:100D600098F7DF1411F48EE2A4DFFA94C801BE01F3
:100D70003FD0CB016AE070E03BD0882331F4DF1430
:100D800020F4EE2021F480E203C0EE24E394805DA1
:100D900090DFCE016AE070E02BD0EB0161157105A8
:100DA00001F7DF91CF911F910F91FF90EF90DF90AE
:100DB0000895629FD001739FF001829FE00DF11DA5
:100DC000649FE00DF11D929FF00D839FF00D749FC5
:100DD000F00D659FF00D9927729FB00DE11DF91F71
:100DE000639FB00DE11DF91FBD01CF0111240895CE
:100DF000AA1BBB1B51E107C0AA1FBB1FA617B70741
:100E000010F0A61BB70B881F991F5A95A9F780955C
:100E10009095BC01CD01089597FB092E07260AD0B5
:100E200077FD04D0E5DF06D000201AF470956195B7
:100E30007F4F0895F6F7909581959F4F089597FB02
:100E4000092E05260ED057FD04D014D00AD0001C60
:100E500038F450954095309521953F4F4F4F5F4F57
:100E60000895F6F790958095709561957F4F8F4F17
:100E70009F4F0895A1E21A2EAA1BBB1BFD010DC0B6
:100E8000AA1FBB1FEE1FFF1FA217B307E407F5073A
:100E900020F0A21BB30BE40BF50B661F771F881F16
:100EA000991F1A9469F760957095809590959B01AC
:100EB000AC01BD01CF010895DC01CB01FC01E1993A
:100EC000FECF06C0FFBBEEBBE09A31960DB20D928D
:100ED00041505040B8F70895DC01CB0102C02D917C
:100EE00005D041505040D8F70895262FE199FECF04
:100EF0009FBB8EBB2DBB0FB6F894E29AE19A0FBE52
:080F000001960895F894FFCF5B
:020F08000100E6
:101C000012C021C020C01FC01EC01DC01CC01BC0F0
:101C10001AC019C018C017C016C015C014C013C010
:101C200012C011C010C011241FBECFE5D4E0DEBF2A
:101C3000CDBF10E0A0E6B0E001C01D92A636B1070E
:101C4000E1F774D0DAC1DCCF5F9BFECF9CB1392FB6
:101C50005D9BFECF9CB95F9BFECF2CB1822F5D9B1D
:101C6000FECF2CB991361CF0392F375504C0903374
:101C700014F0392F305321361CF0822F875504C0C1
:101C8000203314F0822F80533295307F830F0895D4
:101C9000282F992787FD9095807F907034E0959547
:101CA00087953A95E1F78A3014F0895A01C0805D32
:101CB0005D9BFECF8CB9822F8F708A3014F0895AC9
:101CC00001C0805D5D9BFECF8CB908955D9BFECF0A
:101CD0008CB908955F9BFECF8CB1089504C05F9BC3
:101CE000FECF9CB181508823D1F70895982F5F9B38
:101CF000FECF8CB1803259F45D9BFECF84E18CB96C
:101D00005D9BFECF9CB95D9BFECF80E18CB90895B1
:101D10005F9BFECF8CB1803241F45D9BFECF84E1AE
:101D20008CB95D9BFECF80E18CB90895EF92FF9254
:101D30000F931F93CF93DF930000929A8A98B99ADA
:101D4000C19800000000829B05C0E0916000F09106
:101D5000610009958CE089B910BC88E18AB9E4E199
:101D6000EE2E70E1F72E5F9BFECF8CB1803309F42D
:101D70003EC08035E1F18135D1F18235C1F1803449
:101D8000B1F18134B1F45F9BFECF8CB1803811F496
:101D900082E003C0813819F481E0A8DFE4CF823803
:101DA00011F48FE0FACF883911F483E0F6CF80E0A8
:101DB000F4CF823439F484E15F9BFECF9CB1815033
:101DC000D9F715C0853439F485E05F9BFECF9CB10F
:101DD0008150D9F70CC0853561F45F9BFECF8CB183
:101DE000809362005F9BFECF8CB18093630090DF95
:101DF000BACF8635B1F45F9BFECF8CB15F9BFECF2F
:101E00008CB15F9BFECF8CB15F9BFECF9CB18130CC
:101E100011F483E9C2CF823011F487E0BECF8EE1A6
:101E2000BCCF843609F090C05F9BFECF8CB180930D
:101E300065005F9BFECF9CB1909364005F9BFECFDB
:101E40008CB14091640050916500E8E6F0E09A01A1
:101E50002E0F3F1F04C05F9BFECF8CB18193E21712
:101E6000F307C9F75F9BFECF8CB1803209F07BCFBF
:101E70002091620030916300220F331F3093630082
:101E80002093620090FF06C04F5F5F4F5093650044
:101E9000409364008091640090916500280F391F81
:101EA00021503C4108F04AC0F8941127E0916200AB
:101EB000F0916300C8E6D0E08091640090916500E5
:101EC000103091F40091570001700130D9F303E014
:101ED00000935700E8950091570001700130D9F345
:101EE00001E100935700E89509901990009157007F
:101EF00001700130D9F301E000935700E895139584
:101F0000103298F011270091570001700130D9F379
:101F100005E000935700E8950091570001700130EB
:101F2000D9F301E100935700E8953296029709F042
:101F3000C7CF103011F00296E5CF11245D9BFECF84
:101F4000ECB85D9BFECF57C08437D9F55F9BFECFC1
:101F50008CB1809365005F9BFECF8CB18093640051
:101F60005F9BFECF8CB12091620030916300220F05
:101F7000331F30936300209362005F9BFECF8CB1D0
:101F8000803209F0F0CE5D9BFECFECB8609164002A
:101F90007091650080E090E008C0FC01E20FF31F43
:101FA00044915D9BFECF4CB9019686179707A8F325
:101FB000260F371F30936300209362005D9BFECF96
:101FC0001AC0853709F0CFCE5F9BFECF8CB180322F
:101FD00009F0C9CE5D9BFECFECB85D9BFECF8EE1D4
:101FE0008CB95D9BFECF83E98CB95D9BFECF87E00A
:0E1FF0008CB95D9BFECFFCB8B6CEF894FFCF47
:0400000300001C00DD
:00000001FF
