:100000000C94F6000C9413010C9413010C9413013E
:100010000C9413010C9413010C9413010C94130110
:100020000C9413010C9402030C9413010C944804D7
:100030000C9413010C9413010C945A030C941301A7
:100040000C9413010C9413010C9413010C941301E0
:100050000C9413010C9413010C9413010C941301D0
:100060000C9413010C94130156002000200025006D
:1000700053544100455252002050574D3A004320FE
:100080000043200054656D703A000D0A36207365F8
:100090006E73206F66667365743D000D0A352073BC
:1000A000656E73206761696E3D000D0A3220493D1F
:1000B000000D0A3120503D000D0A657869743A71CF
:1000C0000D0A000D0A6C6F61643A6C000D0A7361D1
:1000D00076653A73000D0A362073656E73206F667D
:1000E000667365743D000D0A352073656E73206775
:1000F00061696E3D000D0A3220493D000D0A312034
:10010000503D00232320504152414D54455220235D
:1001100023202873656C65637420312D3920616E4E
:1001200064207468656E202B2D20746F20656469CF
:10013000742900536F6C646572204D656E753A0DBD
:100140000A000D0A74656D702074656D705F6465DA
:1001500073697265642070776D2074696D656F7561
:10016000742056696E0D0A004769743A343930625A
:10017000202020202000423A4F6374202034203277
:10018000303234002020204D41582D536F6C64656F
:100190007220202020002C2047697420766572731D
:1001A000696F6E3A20343930620D0A0023204D61A8
:1001B0007820536F6C646572206275696C6420648A
:1001C0006174653A4F637420203420323032340039
:1001D0006C6F6164696E672064656661756C74201C
:1001E000706172616D732E2E2E0D0A0011241FBED8
:1001F000CFEFD4E0DEBFCDBF11E0A0E0B1E0E2E69A
:10020000F3E102C005900D92A230B107D9F721E0C9
:10021000A2E0B1E001C01D92AE39B207E1F70E9441
:10022000EC050C94AF090C94000049E150E060E04B
:1002300070E088E291E06BC8FC019C01295E3F4FB1
:100240008DEC9BEA4191840F911DE217F307D1F7E2
:10025000089588E291E0F0DF9093400180933F01A0
:1002600049E150E060E070E088E291E060C882E43B
:1002700091E0C5C2CF93DF9389E189B910BC82E0D8
:100280008BB988E98AB9909A1092900110929101E5
:10029000109292011092930185E082BF89B781602C
:1002A00089BF83E083BF80E487B98FED86B90CD224
:1002B000789488E19EE00FB6F894A89581BD0FBEB2
:1002C00091BDA895B2DFC0913F01D091400188E275
:1002D00091E0B2DFC817D90709F446C080ED91E07C
:1002E0008ED28CE390E0909338018093370181E0C7
:1002F00090E090933A01809339018AE080932C0139
:1003000080932A0181E080932B0184E591E0909312
:1003100029018093280185E090E090933601809335
:10032000350188EC90E0909334018093330128E507
:1003300032E0309332012093310120E931E03093F3
:10034000300120932F0190932E0180932D0184E79B
:1003500093E190933E0180933D0188EF9FEF90934E
:100360003C0180933B0175DF81E080931501A895E6
:100370008CEA91E044D286E991E041D2A895B7D3C6
:1003800064E670E080E090E0B8D1A89580E0BAD350
:1003900084E891E0BDD381E0B5D386E791E0B8D39E
:1003A000A8956CE271E080E090E0A7D1A8956CE29E
:1003B00071E080E090E0A1D1A8956CE271E080E06E
:1003C00090E09BD1A89581E09DD388E691E0A0D3F1
:1003D0006CE271E080E090E090D1A8956CE271E071
:1003E00080E090E08AD1A895DF91CF9140CFCF9364
:1003F000DF93C7E0D1E041E064E08E819F81A1D12D
:1004000041E064E08C819D819CD140E063E0888183
:10041000998197D140E064E08B899C8992D141E039
:1004200063E08B8D9C8D8DD18DE087D18AE0DF914B
:10043000CF9183C10F930B3261F4860F971F8417FE
:1004400095070CF4CA01281739070CF4C9010F915C
:1004500008950D32A1F7861B970BF1CF0F93CF9321
:10046000C82F80914F01811108C08FEC8C0F89300B
:10047000C8F480ED8C0F80934F0180914F01823042
:1004800009F483C008F046C0813009F463C0C13765
:1004900009F0AFC010924E01EADE10924F01CF91E9
:1004A0000F91089583E391E0AAD183E091E0A7D171
:1004B0008CEF90E0A4D140E063E08091370190910F
:1004C00038013FD185EF90E09AD140E063E0809120
:1004D000390190913A0135D186EE90E090D140E01B
:1004E00065E080913D0190913E012BD185ED90E03A
:1004F00086D140E064E080913B0190913C0121D1A4
:100500008CEC90E07CD183EC90E079D188EB90E0AA
:1005100076D1B3CF853009F452C0863009F0B7CF19
:100520000C2F24E630E04CE95FEF62E070E0809150
:100530003B0190913C017EDF90933C0180933B0115
:100540008AE890E05CD140E064E080913B019091CA
:100550003C0119C00C2F28EC30E041E050E061E094
:1005600070E0809137019091380164DF90933801F9
:100570008093370181EB90E042D140E063E08091CD
:10058000370190913801DDD082CF0C2F24E130E08B
:1005900050E040E061E070E08091390190913A01D3
:1005A00049DF90933A01809339018AEA90E027D19C
:1005B00040E063E08091390190913A01E4CF0C2F43
:1005C00020E737E148EB5BE06AE070E080913D01B5
:1005D00090913E012FDF90933E0180933D018BE986
:1005E00090E00DD140E065E080913D0190913E01A9
:1005F000CACFC33711F42DDE4DCFCC3609F04FCF23
:1006000014DE4BCF1F920F920FB60F9211248F93CF
:100610009F93AF93BF9385E082BF809190019091AB
:100620009101A0919201B09193010296A11DB11D7B
:100630008093900190939101A0939201B0939301C4
:10064000BF91AF919F918F910F900FBE0F901F9010
:10065000189597B1907E8F71982B97B9349A369AE6
:100660003699FECF84B195B10895F89490E2899FB0
:10067000A001112430E020E080E090E0DC01F901ED
:10068000EE0FFF1FE40FF51FE05BFE4F60817181ED
:10069000860F971FA11DB11D2F5F3F4F20313105E0
:1006A00071F7789422E0B695A795979587952A9546
:1006B000D1F708951F920F920FB60F9211240F9049
:1006C0000FBE0F901F9018951BBC1ABC82EB8FBDFC
:1006D00081E08EBDC198B99A089597FF02C090E05D
:1006E00080E0811522E0920714F08FEF91E09BBD2E
:1006F0008ABD08958AB59BB508950F931F93009105
:100700009001109191012091920130919301DC01AF
:10071000CB01800F911FA21FB31F00919001109178
:100720009101209192013091930180179107A207C6
:10073000B30798F71F910F9108955D9BFECF8CB979
:100740000895BF92CF92DF92EF92FF920F931F9383
:10075000CF93DF937C01162FB42E00E097FF04C0E7
:10076000F194E194F10801E0812FC1E0D0E09AE03A
:10077000111142C011E0C1E0D0E02AE007C0CE0173
:10078000289FE001299FD00D11241F5FC701BE01E2
:1007900034D56A30710510F0153089F780E2CDDF6D
:1007A0008DE2011101C080E2C8DF8AE0C82ED12CA1
:1007B0001B1102C08EE2C1DF1150C701BE011DD561
:1007C000CB01B6011AD5805DB8DFCE01B60115D5D3
:1007D000EB01209769F7DF91CF911F910F91FF9067
:1007E000EF90DF90CF90BF9008959E01929FE0011F
:1007F000939FD00D112481508130B9F7CFCFCF9383
:10080000DF93EC01FE0184912196811103C0DF91F9
:10081000CF91089592DFF6CF80910401811106C037
:1008200090910601809105019817D1F3109204016F
:10083000809106018F5F809306018A3010F010923C
:100840000601E0910601F0E0EC56FE4F808108952C
:1008500080910401811118C09091050180910601D9
:10086000891730F48091050190910601891B089544
:100870009091050180910601981740F4809105013F
:1008800090910601865FF2CF8AE0089580E0089596
:100890001F920F920FB60F9211248F939F93EF9395
:1008A000FF93809105018F5F809305018A3010F0DE
:1008B000109205019091060180910501981305C0E1
:1008C000809104018F5F80930401E09105018CB158
:1008D000F0E0EC56FE4F8083FF91EF919F918F9156
:1008E0000F900FBE0F901F901895181619065CF008
:1008F00021E030E0892B11F430E020E088279927AF
:10090000821B930B089581E090E0089597FF03C048
:100910009195819591090895FA01811101C0108284
:100920008081681718F4108281E008958F5F8083BA
:1009300080E00895FA01811102C011821082808145
:100940009181681779072CF001969183808380E06C
:10095000089581E008958D9A8C9A8E9A8B98939A37
:100960008F98979A8A98929AB898C09A81E08093C3
:10097000000108958B988F988A98B898C09A089526
:100980008B9A8F9A8A9AB89A0895839B08C080E1BF
:100990008799806282998064B0998068089580E028
:1009A000F7CF84FF0BC0939A85FF0AC0979A86FF02
:1009B00009C0929A87FF08C0C09A08959398F4CF0F
:1009C0009798F5CF9298F6CFC0980895CF93DF937C
:1009D0009598D0DF949A969A0000000000000000DD
:1009E000000000000000000080910001D0E0C0E0A5
:1009F00081111CC09698DF91CF910895219680E0D7
:100A000080FD22C096980000000000000000000059
:100A100000000000000000000000000000000000D6
:100A20000000000000008F5F843051F7AEDF87FFC9
:100A300007C0C13D87E0D80709F710920001DACF5F
:100A4000C03DD740BCF2F9CF969ADDCFCF93DF936C
:100A5000D82FC62FBBDFD13009F041C0959A9498AA
:100A6000969A8EDF8C2F807F9CDF000000000000B4
:100A70000000000000000000000000000000000076
:100A80000000000000000000000096980000000038
:100A90000000000000000000000000000000000056
:100AA000000000000000000000000000969A8C2F5B
:100AB0008295807F76DF00000000000000000000CB
:100AC0000000000000000000000000000000000026
:100AD0000000000000009698DF91CF914BCF9598D1
:100AE000BECF682F81E0B2CF682F80E0AFCF33DF79
:100AF00088E2FADF81E0F8DF86E0F6DF8CE0F4DF01
:100B000082E0F2CF8295880F880F807C8068ECCFDE
:100B1000CF93DF93EC01FE0184912196811103C0F4
:100B2000DF91CF910895DDDFF6CFCF93C82FC111AC
:100B300002C0CF91089580E2D4DFC150F8CFAF92C8
:100B4000BF92DF92EF92FF920F931F93CF93DF93A9
:100B50007C01162FD42E00E097FF06C0F194E1949B
:100B6000F1088DE2BEDF01E0812FC1E0D0E09AE024
:100B700007C09E01929FE001939FD00D11248150E8
:100B80008230B8F78AE0A82EB12C1D1102C08EE287
:100B9000A8DF1150C701BE0130D3CB01B5012DD361
:100BA000009721F4D11610F4002321F0805D99DF25
:100BB00001E002C080E295DFCE01B5011ED3EB015A
:100BC000209719F7DF91CF911F910F91FF90EF9030
:100BD000DF90BF90AF9008954DDBF12CC1E00AE0AB
:100BE00010E032E0432E512C612C712C46EF842E04
:100BF00043E0942EA12CB12C5DE5252E312CA89537
:100C000027DE882309F408C280914E018111FEC1BC
:100C100003DED82F8D3609F0E4C1C0934E0180E089
:100C20001DDC8091900190919101A0919201B09171
:100C300093014091490150914A0160914B0170919B
:100C40004C0184179507A607B70708F483C0809165
:100C50001C0191E0980F90931C01913009F0DEC1C6
:100C600090E080E03ADD80911C01853028F0809191
:100C700007019091080131DD80911C01813110F054
:100C800010921C0180911D01882309F407C28091F4
:100C90001301811103C2E0900B01F0900C018091CF
:100CA0000D0190910E01E81AF90AF0921001E092FC
:100CB0000F01C0901101D09012012CE330E0D70158
:100CC000E3D296010D2C000C440B550B620F731FE1
:100CD000841F951F24E630E040E050E0B6D2F901D1
:100CE00030930801209307012C5A3E4F283A324096
:100CF00058F4C701B80195D26C0D7D1D77FDC9C1AF
:100D00007093120160931101E535F14034F084E5F0
:100D100091E09093080180930701809107019091E1
:100D2000080197FF04C010920801109207018091FA
:100D3000490190914A01A0914B01B0914C0140961C
:100D4000A11DB11D8093490190934A01A0934B01CD
:100D5000B0934C018091900190919101A0919201EA
:100D6000B091930140914501509146016091470136
:100D70007091480184179507A607B70708F49CC02F
:100D800080E067DC7C0180E064DC8E0D9F1D969521
:100D9000879590931F0180931E0182E05ADC209179
:100DA000240130912501820F931F90932501809398
:100DB00024018091260190912701019690932701AB
:100DC0008093260120911E0130911F012A303105A8
:100DD00008F06DC110921D0110920C0110920B01D0
:100DE000109213011092140180E08CDE84E890E0F0
:100DF0008FDE80910D0190910E01B80112D2CB01CE
:100E000040E063E09CDE8FED6CDE81E890E080DE08
:100E100080910B0190910C01B80103D2CB0140E00D
:100E200063E08DDE8FED5DDE8EE790E071DE81E0C8
:100E300069DE88E790E06CDE80911301882309F475
:100E40005AC184E790E064DE8091220190912301F1
:100E5000C397F8F08CE690E05BDE80911A019091E8
:100E60001B018A3091050CF46CC180FD6AC164E6F7
:100E700070E0D7D1CB01B801D4D1805D32DE41E042
:100E800064E0809122019091230159DE88E690E090
:100E90003FDE8091450190914601A0914701B091BC
:100EA0004801C296A11DB11D809345019093460152
:100EB000A0934701B09348018091900190919101D6
:100EC000A0919201B0919301409141015091420152
:100ED000609143017091440184179507A607B707F5
:100EE00008F47DC080911501882309F42EC120915A
:100EF0002601309127018091240190912501B901AB
:100F00007CD142E3469FC001479F900D1124B1015F
:100F100074D170932301609322016233710528F428
:100F20002630310510F01092150110922501109213
:100F30002401109227011092260180911D0188231F
:100F400009F456C18091220190912301C3974897DB
:100F500028F4809115018111C093130181E0209143
:100F6000070130910801243531400CF480E046E15E
:100F700051E064E170E0DEDC882309F4EBC0C0934B
:100F8000130110921401109219011092180180910E
:100F90001E0190911F019093210180932001809167
:100FA000410190914201A0914301B09144018851C7
:100FB0009C4FAF4FBF4F8093410190934201A0934C
:100FC0004301B093440181E090914D01911180E083
:100FD00080934D0180914E01811101C008DAFD2EF0
:100FE0000ECE20E3F2121DCE803209F01ACE6CE252
:100FF00071E080E090E081DB84E19FDB6EE170E0F6
:1010000080E090E07ADB80E198DBFFCF10921D0159
:10101000C093140101DC22DADF2D03CE835082302D
:1010200008F021CE81E015DBA0913D01B0913E0199
:101030009C012AD120E034E040E050E006D18091CC
:101040003B0190913C01092E000CAA0BBB0B6901DE
:101050007A01C80ED91EEA1EFB1E80910D019091E7
:101060000E01092E000CAA0BBB0BBC01CD016C0DAF
:101070007D1D8E1D9F1DA3019201E7D030930E01AF
:1010800020930D01253030410CF4EDCDC0931C01AF
:10109000EACD109212011092110136CE1092080181
:1010A00010920701109212011092110140CE80910E
:1010B0001401882339F080ED97E090930C01809320
:1010C0000B0192CEC0931D0150E040E02A5031093F
:1010D00041095109A8ECB0E0DED0A5019401B5D0DA
:1010E00028533F4F4F4F5F4F6AE0629FC001639F9D
:1010F000900D1124E2CF80914D01882339F0809129
:101100001401882319F080E790E09DCE209107011B
:10111000309108014AE0429FC001439F900D112485
:1011200088342DE0920754F462E270E07AD0CB016B
:1011300040E062E004DD8EE690E085CE83E690E05C
:10114000F7CF8AE690E0E4DC9ACE10922301109269
:101150002201EBCE20910701309108014091090155
:1011600050910A0169E0649FC001659F900D1124B0
:10117000820F931FB80155D070930A016093090143
:10118000C901861B970B4396879718F022303105CB
:101190006CF580910F0190911001C3973CF58091FF
:1011A0001E0190911F012091200130912101821B8D
:1011B000930B853F2FEF9207CCF021E00C970CF0BA
:1011C00020E0F22E48E151E068E572E08F2DB2DBBD
:1011D000809314014AE151E060E777E18F2DAADBAB
:1011E000882309F4D4CE10921D01D1CEF12CEACF80
:1011F0001092190110921801D2CEAA1BBB1B51E10B
:1012000007C0AA1FBB1FA617B70710F0A61BB70B76
:10121000881F991F5A95A9F780959095BC01CD011B
:10122000089597FB072E16F4009407D077FD09D098
:101230000E94FD0807FC05D03EF4909581959F4FD4
:101240000895709561957F4F0895052E97FB1EF4C4
:1012500000940E943C0957FD07D00E94560907FCE4
:1012600003D04EF40C943C0950954095309521954F
:101270003F4F4F4F5F4F08959095809570956195C2
:101280007F4F8F4F9F4F08950E947809B7FF0895B1
:10129000821B930B08950E947809A59F900DB49F1F
:1012A000900DA49F800D911D11240895A1E21A2E86
:1012B000AA1BBB1BFD010DC0AA1FBB1FEE1FFF1FFA
:1012C000A217B307E407F50720F0A21BB30BE40B4A
:1012D000F50B661F771F881F991F1A9469F7609591
:1012E0007095809590959B01AC01BD01CF0108954B
:1012F000A29FB001B39FC001A39F700D811D112457
:10130000911DB29F700D811D1124911D0895DC0166
:10131000CB01FC01F999FECF06C0F2BDE1BDF89A00
:10132000319600B40D9241505040B8F70895DC0159
:10133000CB0103C02D910E94A20941505040D0F72B
:101340000895262FF999FECF1FBA92BD81BD20BD09
:101350000FB6F894FA9AF99A0FBE01960895F89488
:02136000FFCFBD
:02136200010088
:103800000C94341C0C94461C0C94461C0C94461CC2
:103810000C94461C0C94461C0C94461C0C94461CA0
:103820000C94461C0C94461C0C94461C0C94461C90
:103830000C94461C0C94461C0C94461C0C94461C80
:103840000C94461C0C94461C0C94461C0C94461C70
:103850000C94461C0C94461C0C94461C0C94461C60
:103860000C94461C0C94461C11241FBECFEFD4E0D0
:10387000DEBFCDBF21E0A0E0B1E001C01D92A630C7
:10388000B207E1F70E94BA1C0C942A1E0C94001C8B
:103890009091C00095FFFCCF8093C6000895CF9310
:1038A000C82F082E000C990B24E0959587952A9532
:1038B000E1F78F708A305CF0895A0E94481C8C2F87
:1038C0008F708A3034F0895ACF910C94481C805DF7
:1038D000F4CF805DF9CF8091C00087FFFCCF80914D
:1038E000C6000895CF93DF930E946B1CC82F0E94DF
:1038F000481C0E946B1CD82F0E94481CC1365CF0EB
:10390000C755D13664F0D7558C2F8295807F8D0FA7
:10391000DF91CF910895C033A4F3C053F2CFD033D9
:103920009CF3D053F1CFCF93C82FC11102C0CF91D8
:1039300008950E946B1CC150F8CFCF93C82F0E94EE
:103940006B1C803251F484E10E94481C8C2F0E9431
:10395000481C80E1CF910C94481CCF9108950E949F
:103960006B1C803231F484E10E94481C80E10C948D
:10397000481C08955A9A5298219A29988091C0001B
:1039800087FD09C0559907C04A9B05C0E091000119
:10399000F091010109958FEF9FEF00000197E9F782
:1039A0008CE08093C4001092C50088E18093C10030
:1039B00081E40E94481C86E50E94481C82E50E9422
:1039C000481C84E10E94481C81E40E94481C86E552
:1039D0000E94481C82E50E94481C80E20E94481C0C
:1039E00089E40E94481C83E50E94481C80E50E94EF
:1039F000481C80E10E94481C0E946B1C803331F0FF
:103A000090EB980F933010F0803419F40E94AF1CA3
:103A1000F3CF8134B1F40E946B1C803821F482E032
:103A20000E949D1CE9CF813811F481E0F9CF8238E2
:103A300011F48FE0F5CF883911F483E0F1CF80E005
:103A4000EFCF823421F484E10E94931CDFCF8534D0
:103A500011F485E0F9CF853549F40E946B1C809301
:103A600002010E946B1C80930301D0CF863589F43C
:103A70000E946B1C0E946B1C0E946B1C182F0E94E2
:103A80006B1C84E9113061F286E0123049F28EE15C
:103A9000C7CF843609F090C00E946B1C809305014B
:103AA0000E946B1C809304010E946B1C08E011E0D3
:103AB0002091040130910501C8018850914082177E
:103AC000930708F473C00E946B1C803209F094CFF6
:103AD0008091020190910301880F991F9093030137
:103AE000809302012091040120FF0AC0209104016B
:103AF000309105012F5F3F4F309305012093040162
:103B00002091040130910501820F931F8130984369
:103B100008F04AC0F8941127E0910201F0910301E6
:103B2000C8E0D1E08091040190910501103091F43A
:103B30000091570001700130D9F303E00093570062
:103B4000E8950091570001700130D9F301E100932D
:103B50005700E895099019900091570001700130C5
:103B6000D9F301E000935700E8951395103498F0CD
:103B700011270091570001700130D9F305E000933F
:103B80005700E8950091570001700130D9F301E129
:103B900000935700E8953296029709F0C7CF10308E
:103BA00011F00296E5CF112484E121CF0E946B1C15
:103BB000F80181938F017CCF8437C9F50E946B1C7B
:103BC000809305010E946B1C809304010E946B1C72
:103BD0008091020190910301880F991F9093030136
:103BE000809302010E946B1C803209F005CF84E1B2
:103BF0000E94481C10E000E08091040190910501B2
:103C00000817190708F0F5CEE0910201F0910301C1
:103C100084910E94481C80910201909103010196B9
:103C200090930301809302010F5F1F4FE5CF85370B
:103C300009F0E2CE0E946B1C803209F0DDCE84E1F7
:103C40000E94481C8EE10E94481C84E90E94481C86
:083C500086E0CDCEF894FFCF11
:0400000300003800C1
:00000001FF
