:103800000C94341C0C94461C0C94461C0C94461CC2
:103810000C94461C0C94461C0C94461C0C94461CA0
:103820000C94461C0C94461C0C94461C0C94461C90
:103830000C94461C0C94461C0C94461C0C94461C80
:103840000C94461C0C94461C0C94461C0C94461C70
:103850000C94461C0C94461C0C94461C0C94461C60
:103860000C94461C0C94461C11241FBECFEFD4E0D0
:10387000DEBFCDBF21E0A0E0B1E001C01D92A630C7
:10388000B207E1F70E94BA1C0C942A1E0C94001C8B
:103890009091C00095FFFCCF8093C6000895CF9310
:1038A000C82F082E000C990B24E0959587952A9532
:1038B000E1F78F708A305CF0895A0E94481C8C2F87
:1038C0008F708A3034F0895ACF910C94481C805DF7
:1038D000F4CF805DF9CF8091C00087FFFCCF80914D
:1038E000C6000895CF93DF930E946B1CC82F0E94DF
:1038F000481C0E946B1CD82F0E94481CC1365CF0EB
:10390000C755D13664F0D7558C2F8295807F8D0FA7
:10391000DF91CF910895C033A4F3C053F2CFD033D9
:103920009CF3D053F1CFCF93C82FC11102C0CF91D8
:1039300008950E946B1CC150F8CFCF93C82F0E94EE
:103940006B1C803251F484E10E94481C8C2F0E9431
:10395000481C80E1CF910C94481CCF9108950E949F
:103960006B1C803231F484E10E94481C80E10C948D
:10397000481C08955A9A5298219A29988091C0001B
:1039800087FD09C0559907C04A9B05C0E091000119
:10399000F091010109958FEF9FEF00000197E9F782
:1039A0008CE08093C4001092C50088E18093C10030
:1039B00081E40E94481C86E50E94481C82E50E9422
:1039C000481C84E10E94481C81E40E94481C86E552
:1039D0000E94481C82E50E94481C80E20E94481C0C
:1039E00089E40E94481C83E50E94481C80E50E94EF
:1039F000481C80E10E94481C0E946B1C803331F0FF
:103A000090EB980F933010F0803419F40E94AF1CA3
:103A1000F3CF8134B1F40E946B1C803821F482E032
:103A20000E949D1CE9CF813811F481E0F9CF8238E2
:103A300011F48FE0F5CF883911F483E0F1CF80E005
:103A4000EFCF823421F484E10E94931CDFCF8534D0
:103A500011F485E0F9CF853549F40E946B1C809301
:103A600002010E946B1C80930301D0CF863589F43C
:103A70000E946B1C0E946B1C0E946B1C182F0E94E2
:103A80006B1C84E9113061F286E0123049F28EE15C
:103A9000C7CF843609F090C00E946B1C809305014B
:103AA0000E946B1C809304010E946B1C08E011E0D3
:103AB0002091040130910501C8018850914082177E
:103AC000930708F473C00E946B1C803209F094CFF6
:103AD0008091020190910301880F991F9093030137
:103AE000809302012091040120FF0AC0209104016B
:103AF000309105012F5F3F4F309305012093040162
:103B00002091040130910501820F931F8130984369
:103B100008F04AC0F8941127E0910201F0910301E6
:103B2000C8E0D1E08091040190910501103091F43A
:103B30000091570001700130D9F303E00093570062
:103B4000E8950091570001700130D9F301E100932D
:103B50005700E895099019900091570001700130C5
:103B6000D9F301E000935700E8951395103498F0CD
:103B700011270091570001700130D9F305E000933F
:103B80005700E8950091570001700130D9F301E129
:103B900000935700E8953296029709F0C7CF10308E
:103BA00011F00296E5CF112484E121CF0E946B1C15
:103BB000F80181938F017CCF8437C9F50E946B1C7B
:103BC000809305010E946B1C809304010E946B1C72
:103BD0008091020190910301880F991F9093030136
:103BE000809302010E946B1C803209F005CF84E1B2
:103BF0000E94481C10E000E08091040190910501B2
:103C00000817190708F0F5CEE0910201F0910301C1
:103C100084910E94481C80910201909103010196B9
:103C200090930301809302010F5F1F4FE5CF85370B
:103C300009F0E2CE0E946B1C803209F0DDCE84E1F7
:103C40000E94481C8EE10E94481C84E90E94481C86
:083C500086E0CDCEF894FFCF11
:0400000300003800C1
:00000001FF
