:1000000056C070C06FC06EC06DC06CC06BC06AC09F
:1000100069C063C167C0AAC265C064C0B6C162C01E
:1000200061C060C05FC0250053544100455252007A
:1000300043200043200054656D703A000D0A657836
:1000400069743A710D0A000D0A696E746572766101
:100050006C3D000D0A443D000D0A493D00503D0035
:10006000232320434F4E54524F4C2023230D0A008C
:10007000536F6C646572204D656E753A0D0A0020F1
:1000800020204D41582D536F6C6465722020202034
:10009000006C6F6164696E672064656661756C747D
:1000A00020706172616D732E2E2E0D0A00001124D6
:1000B0001FBECFE5D4E0DEBFCDBF10E0A0E6B0E0CC
:1000C000EAEEFEE002C005900D92A236B107D9F724
:1000D00020E0A2E6B0E001C01D92A43FB207E1F724
:1000E000F0D301C78DCFFC019C012C5E3F4F8DECFE
:1000F0009BEA4191840F911DE217F307D1F7089510
:10010000CF93DF9389E189B910BC82E08BB988E98C
:100110008AB9909A1092E6001092E7001092E800D7
:100120001092E90085E082BF89B7816089BF83E0D2
:1001300083BF80E487B98FED86B931D178949EE092
:1001400088E10FB6F894A89581BD0FBE91BD46E138
:1001500050E060E070E081E890E09FD6C0919500AB
:10016000D091960081E890E0BEDFC817D90709F466
:1001700048C081E990E0B2D18CE390E09093900088
:1001800080938F0081E090E09093920080939100A3
:1001900010929400109293008AE0809384008093E0
:1001A000820081E0809383008BE48093810085E06E
:1001B00090E090938E0080938D0088EC90E0909377
:1001C0008C0080938B0028E532E030938A002093E6
:1001D000890020E931E030938800209387009093D4
:1001E00086008093850081E890E07DDF9093960003
:1001F0008093950046E150E060E070E081E890E097
:100200005CD664EF71E080E090E0E3D0A895E2D2A4
:1002100080E0EBD28FE790E0EED2A89564EF71E03A
:1002200080E090E0D6D0A895DF91CF910895CF934C
:10023000DF93C7E6D0E041E064E08E819F81EDD09E
:1002400041E064E08C819D81E8D040E063E08881FA
:100250009981E3D040E064E08A899B89DED08DE01B
:10026000D8D08AE0DF91CF91D4C0CF93C82F80E758
:1002700090E034D180E690E031D18DE590E02ED150
:1002800040E063E080918F0090919000C6D088E5B7
:1002900090E024D140E063E0809191009091920041
:1002A000BCD083E590E01AD140E063E080919300F8
:1002B00090919400B2D087E490E010D180918400B6
:1002C00040E063E090E0A9D08CE390E007D1C13733
:1002D00011F41092A400CF9108951F920F920FB6BF
:1002E0000F9211248F939F93AF93BF9385E082BFAA
:1002F0008091E6009091E700A091E800B091E900BC
:100300000296A11DB11D8093E6009093E700A09393
:10031000E800B093E900BF91AF919F918F910F904A
:100320000FBE0F901F90189597B18F71907E892BFB
:1003300087B9349A369A3699FECF84B125B190E0C8
:10034000922B0895F89490E2899FA001112420E057
:1003500030E080E090E0DC01F901E40FF51FEA55A0
:10036000FF4F60817181860F971FA11DB11D2E5F08
:100370003F4F2032310581F7789422E0B695A7955A
:10038000979587952A95D1F708951F920F920FB6EA
:100390000F9211240F900FBE0F901F9018951BBC49
:1003A0001ABC82EB8FBD81E08EBDC198B99A0895C9
:1003B000811522E092072CF497FF05C080E090E0C1
:1003C00002C08FEF91E09BBD8ABD08958AB59BB5B1
:1003D00008950F931F930091E6001091E70020917C
:1003E000E8003091E900DC01CB01800F911FA21FD2
:1003F000B31F0091E6001091E7002091E8003091D2
:10040000E90080179107A207B30798F71F910F9192
:1004100008955D9BFECF8CB90895BF92CF92DF9275
:10042000EF92FF920F931F93CF93DF937C01162FD0
:10043000B42E97FF05C0F194E194F10801E001C0EA
:1004400000E0112329F0812FC1E0D0E09AE014C030
:1004500011E0C1E0D0E02AE0C701BE019DD46A30BE
:100460007105A0F0153091F0CE01289FE001299F81
:10047000D00D11241F5FF0CF813041F09E01929F7B
:10048000E001939FD00D11248150F6CF80E2C1DFAF
:10049000002311F08DE201C080E2BBDF8AE0C82EAC
:1004A000D12CB11202C08EE2B4DF1150C701BE01DF
:1004B00073D4CB01B60170D4805DABDFCE01B60141
:1004C0006BD4EB01209769F7DF91CF911F910F91CA
:1004D000FF90EF90DF90CF90BF900895CF93DF9380
:1004E000FC018491EF012196882319F092DFFE012F
:1004F000F8CFDF91CF91089580916400811106C0FB
:1005000090916600809165009817D1F31092640075
:10051000809166008F5F809366008A3010F01092A1
:100520006600E0916600F0E0E651FF4F808108959B
:1005300080916400811118C020916500909166003F
:10054000921728F480916500909166000BC020916D
:10055000650090916600291740F4809165009091A4
:100560006600865F891B08958AE008951F920F92A6
:100570000FB60F9211248F939F93EF93FF93809167
:1005800065008F5F809365008A3010F010926500DF
:100590009091660080916500981305C08091640079
:1005A0008F5F80936400E09165008CB1F0E0E651CC
:1005B000FF4F8083FF91EF919F918F910F900FBE1E
:1005C0000F901F901895181619065CF021E030E086
:1005D000892B11F420E030E088279927821B930BA8
:1005E000089581E090E0089597FF03C0919581956B
:1005F00091090895FA01811101C010828081681764
:1006000018F4108281E008958F5F808380E0089560
:10061000FA01811102C011821082808191816817D4
:1006200079072CF001969183808380E0089581E022
:1006300008958D9A8C9A8E9A8B98939A8F98979A00
:100640008A98929AB898C09A81E080936000089541
:100650008B988F988A98B898C09A08958B9A8F9A99
:100660008A9AB89A0895839B02C080E101C080E015
:100670008799806282998064B0998068089584FF28
:1006800002C0939A01C0939885FF02C0979A01C057
:10069000979886FF02C0929A01C0929887FF02C085
:1006A000C09A0895C0980895CF93DF939598D0DFAE
:1006B000949A969A000000000000000000000000DC
:1006C0000000000080916000882339F1C0E0D0E094
:1006D000CADF87FF1DC0C13D87E0D807E1F0219642
:1006E00080E080FD1EC09698000000000000000021
:1006F00000000000000000000000000000000000FA
:1007000000000000000000008F5F843051F7E0CF50
:10071000C03DD74014F0109260009698DF91CF91C1
:100720000895969AE1CF1F93CF93DF931F92CDB791
:10073000DEB7162F8983B8DF8981813011F4959A4D
:1007400001C095989498969A89DF812F807F97DFD2
:100750000000000000000000000000000000000099
:100760000000000000000000000000000000000089
:10077000969800000000000000000000000000004B
:100780000000000000000000000000000000000069
:100790000000969A812F8295807F71DF0000000013
:1007A0000000000000000000000000000000000049
:1007B00000000000000000000000000096980F906C
:1007C000DF91CF911F9144CF682F81E0ACCF682F8C
:1007D00080E0A9CF2EDF88E2FADF81E0F8DF86E053
:1007E000F6DF8CE0F4DF82E0F2CF8295880F880F8D
:1007F000807C8068ECCFCF93DF93FC018491EF0184
:100800002196882319F0E0DFFE01F8CFDF91CF9128
:100810000895CF93C82FCC2321F080E2D5DFC150BB
:10082000FACFCF910895BF92CF92DF92EF92FF92CD
:100830000F931F93CF93DF937C01162FB42E97FF56
:1008400007C0F194E194F1088DE2BEDF01E001C040
:1008500000E0812FC1E0D0E09AE0823040F09E01BC
:10086000929FE001939FD00D11248150F6CF8AE032
:10087000C82ED12CB11202C08EE2A6DF1150C701E2
:10088000BE018AD2CB01B60187D2009739F4B116E6
:1008900028F4011103C080E297DF03C0805D94DF7C
:1008A00001E0CE01B60178D2EB01209719F7DF9174
:1008B000CF911F910F91FF90EF90DF90CF90BF905D
:1008C00008951EDC2AE0222E312C36EFC32E33E0B1
:1008D000D32EE12CF12CC1E0DAE0A89529DE8823A3
:1008E00089F08091A400811107C006DE8D3651F495
:1008F000C093A40080E005C010927C00C0937400F7
:10090000FBDDB3DC8091E6009091E700A091E80068
:10091000B091E90040919F005091A0006091A1002A
:100920007091A20084179507A607B70708F4D3C0F3
:1009300080917B0091E0980F90937B00913021F49F
:1009400080E090E035DD34C08350823088F581E06E
:10095000EBDC9C01A4E7B3E162D2AB01BC019AE0FD
:1009600075956795579547959A95D1F748505109D0
:100970006109710980916D0090916E00092E000C43
:10098000AA0BBB0B8A019B01080F191F2A1F3B1FD3
:10099000C901B80122E030E040E050E024D23093B9
:1009A0006E0020936D002530304114F0C0937B0021
:1009B00080917B00853028F08091670090916800DD
:1009C000F7DC80917B00813110F010927B008091E8
:1009D0007C00882309F464C080917300811160C099
:1009E000A0916B00B0916C0080916D0090916E00B1
:1009F000A81BB90BB0937000A0936F000091710019
:100A0000109172004D010B2E000CAA08BB082801A2
:100A1000012E000C660877082CE330E00CD2640D40
:100A2000751D861D971D24E630E040E050E0DBD1C7
:100A300029013A013093680020936700C9018C5A5C
:100A40009E4F883A9240A0F4C501B4012AE030E0FC
:100A500040E050E0C8D1200F311F37FD05C0309372
:100A600072002093710004C0109272001092710005
:100A700035E5431631E053066104710434F084E532
:100A800091E0909368008093670080916700909157
:100A9000680097FF0DC0109268001092670008C0B0
:100AA000109268001092670010927200109271000C
:100AB00080919F009091A000A091A100B091A20010
:100AC0004096A11DB11D80939F009093A000A0931C
:100AD000A100B093A2008091E6009091E700A09160
:100AE000E800B091E90040919B0050919C0060911A
:100AF0009D0070919E0084179507A607B70708F41C
:100B0000A9C080E011DC8C0180E00EDC800F911F19
:100B10009C013695279530937E0020937D002A30E6
:100B2000310558F410927C0010926C0010926B000A
:100B300010927300109274002BC08091740088236F
:100B400039F000ED17E010936C0000936B0020C0AB
:100B5000C0937C00C901A0E0B0E09C01AD012A5027
:100B6000310941095109A8ECB0E06BD1A701960108
:100B70003AD1BA01A90148535F4F6F4F7F4FD49FBD
:100B8000C001D59F900D112490936C0080936B0051
:100B900080E02BDE86E390E02EDE80916D00909168
:100BA0006E00B1010DD1CB0140E063E03CDE8FED82
:100BB0000BDE83E390E01FDE80916B0090916C0070
:100BC000B101FED0CB0140E063E02DDE8FEDFCDD16
:100BD00080E390E010DE80917300882319F08CE2AE
:100BE00090E024C08091A300882339F080917400A4
:100BF000882319F088E290E019C0209167003091B5
:100C00006800D29FC001D39F900D112488341DE04D
:100C100091072CF462E270E0D3D0CB0102C083E6EE
:100C200090E040E062E0FFDD86E290E0E4DD80916C
:100C30009B0090919C00A0919D00B0919E00C29657
:100C4000A11DB11D80939B0090939C00A0939D00DB
:100C5000B0939E008091E6009091E700A091E8009B
:100C6000B091E900409197005091980060919900EF
:100C700070919A0084179507A607B70708F42DCE40
:100C800080917C00882309F466C081E02091670090
:100C900030916800243531400CF480E045E750E0A5
:100CA00064E170E0B5DC882331F081E0809373006B
:100CB0001092740048C02091670030916800409104
:100CC000690050916A0069E0649FC001659F900DC2
:100CD0001124820F931FB10173D070936A00609347
:100CE0006900C901861B970B4396879718F022303D
:100CF0003105BCF480916F0090917000C3978CF423
:100D000080917D0090917E0020917F003091800045
:100D1000821B930B853F0FEF90071CF0C1E00C97EF
:100D20000CF0C0E047E750E068E572E08C2F70DC23
:100D30008093740049E750E060E777E18C2F68DC2E
:100D4000811110927C0080917D0090917E009093A3
:100D5000800080937F008091970090919800A091EF
:100D60009900B0919A0088519C4FAF4FBF4F80932C
:100D7000970090939800A0939900B0939A0081E017
:100D80009091A300911180E08093A3008091A40032
:100D90008111A1CD4CDA9FCDAA1BBB1B51E107C02D
:100DA000AA1FBB1FA617B70710F0A61BB70B881FFB
:100DB000991F5A95A9F780959095BC01CD0108958A
:100DC00097FB072E16F4009406D077FD08D0E4DFD9
:100DD00007FC05D03EF4909581959F4F089570953E
:100DE00061957F4F0895052E97FB16F400940FD060
:100DF00057FD05D030D007FC02D046F408C050950E
:100E00004095309521953F4F4F4F5F4F08959095F6
:100E10008095709561957F4F8F4F9F4F0895A29F4A
:100E2000B001B39FC001A39F01D0B29F700D811D7F
:100E30001124911D0895F3DFB7FF0895821B930BD2
:100E40000895EDDFA59F900DB49F900DA49F800D98
:100E5000911D11240895A1E21A2EAA1BBB1BFD01AE
:100E60000DC0AA1FBB1FEE1FFF1FA217B307E40789
:100E7000F50720F0A21BB30BE40BF50B661F771FE1
:100E8000881F991F1A9469F76095709580959095C1
:100E90009B01AC01BD01CF010895DC01CB01FC0138
:100EA000E199FECF06C0FFBBEEBBE09A31960DB2D2
:100EB0000D9241505040B8F70895DC01CB0102C0BB
:100EC0002D9105D041505040D8F70895262FE19933
:100ED000FECF9FBB8EBB2DBB0FB6F894E29AE19A72
:0A0EE0000FBE01960895F894FFCFAD
:020EEA00010005
:101C000012C021C020C01FC01EC01DC01CC01BC0F0
:101C10001AC019C018C017C016C015C014C013C010
:101C200012C011C010C011241FBECFE5D4E0DEBF2A
:101C3000CDBF20E0A0E6B0E001C01D92A636B207FD
:101C4000E1F764D08CC1DCCF5D9BFECF8CB90895E9
:101C5000CF93C82F282F880F330B207F332784E0A2
:101C6000359527958A95E1F72A30310514F087E5F7
:101C700001C080E3820FE8DF8C2F8F708A3014F070
:101C8000895A01C0805DCF91DFCF5F9BFECF8CB1C1
:101C90000895CF93DF93F9DFD82FD6DFF6DFC82F73
:101CA000D3DFD13614F0D75503C0D0330CF0D05366
:101CB000C13614F0C75503C0C0330CF0C0538C2F8D
:101CC00090E1D99F800D1124DF91CF910895CF939A
:101CD000C82FCC2319F0D9DFC150FBCFCF91089585
:101CE000CF93C82FD2DF803239F484E1ADDF8C2F5F
:101CF000ABDF80E1CF91A8CFCF910895C6DF8032CE
:101D000021F484E1A1DF80E19FCF08950000929A41
:101D10008A98B99AC19800000000829B05C0E091A2
:101D20006000F091610009958CE089B910BC88E1F0
:101D30008AB9ABDF803301F190EB980F9330E0F07C
:101D40008034D1F08134A1F4A0DF803811F482E036
:101D500003C0813819F481E0C3DFEBCF823811F47E
:101D60008FE0FACF883911F483E0F6CF80E0F4CF2A
:101D7000823421F484E1ABDFC1DFDBCF853411F4A1
:101D800085E0F9CF853539F480DF809362007DDF0F
:101D900080936300F1CF863579F477DF76DF75DFE6
:101DA000182F73DF113011F483E9D6CF123011F4FC
:101DB00087E0D2CF8EE1D0CF843609F08AC065DFCC
:101DC0008093650062DF809364005FDF08E610E0C7
:101DD0002091640030916500C801885690408217B8
:101DE000930728F452DFF80181938F01F1CF4DDF83
:101DF000803209F09ECF8091620090916300880F3D
:101E0000991F90936300809362002091640020FFEB
:101E10000AC020916400309165002F5F3F4F3093DE
:101E20006500209364002091640030916500820F6A
:101E3000931F81309C4108F04AC0F8941127E0912B
:101E40006200F0916300C8E6D0E080916400909158
:101E50006500103091F40091570001700130D9F302
:101E600003E000935700E89500915700017001309E
:101E7000D9F301E100935700E8950990199000917A
:101E8000570001700130D9F301E000935700E89545
:101E90001395103298F0112700915700017001300E
:101EA000D9F305E000935700E895009157000170C1
:101EB0000130D9F301E100935700E895329602977B
:101EC00009F0C7CF103011F00296E5CF112484E15C
:101ED00042C0843791F5D9DE80936500D6DE8093C9
:101EE0006400D3DE8091620090916300880F991F97
:101EF0009093630080936200C8DE803209F019CFAE
:101F000084E1A2DE00E010E0809164009091650021
:101F10000817190708F5E0916200F09163008491B9
:101F200093DE80916200909163000196909363002C
:101F3000809362000F5F1F4FE7CF853709F0F9CE1E
:101F4000A4DE803209F0F5CE84E17EDE8EE17CDE17
:101F500083E97ADE87E078DE80E176DEEACEF89407
:021F6000FFCFB1
:0400000300001C00DD
:00000001FF
