:1000000059C073C072C071C070C06FC06EC06DC087
:100010006CC066C16AC0ADC268C067C0B9C165C006
:1000200064C063C062C02500535441004552520071
:100030002050574D3A0043200043200054656D7016
:100040003A000D0A657869743A710D0A000D0A6963
:100050006E74657276616C3D000D0A443D000D0AB8
:10006000493D00503D00232320434F4E54524F4CF6
:100070002023230D0A00536F6C646572204D656E5A
:10008000753A0D0A002020204D41582D536F6C64A5
:10009000657220202020006C6F6164696E672064A7
:1000A000656661756C7420706172616D732E2E2EA1
:1000B0000D0A000011241FBECFE5D4E0DEBFCDBF86
:1000C00010E0A0E6B0E0ECEAFEE002C005900D9280
:1000D000A236B107D9F720E0A2E6B0E001C01D9238
:1000E000A23FB207E1F7F0D3DFC68ACFFC019C0143
:1000F0002C5E3F4F8DEC9BEA4191840F911DE217DE
:10010000F307D1F70895CF93DF9389E189B910BC44
:1001100082E08BB988E98AB9909A1092E400109233
:10012000E5001092E6001092E70085E082BF89B7F3
:10013000816089BF83E083BF80E487B98FED86B992
:1001400031D178949EE088E10FB6F894A89581BDEE
:100150000FBE91BD46E150E060E070E08FE790E0B7
:100160007DD6C0919300D09194008FE790E0BEDFE0
:10017000C817D90709F448C087E990E0B2D18CE3E9
:1001800090E090938E0080938D0081E090E09093BA
:10019000900080938F0010929200109291008AE05C
:1001A000809382008093800081E0809381008BE4C3
:1001B00080937F0085E090E090938C0080938B008B
:1001C00088EC90E090938A008093890028E532E0E3
:1001D000309388002093870020E931E03093860037
:1001E0002093850090938400809383008FE790E0B4
:1001F0007DDF909394008093930046E150E060E0AF
:1002000070E08FE790E03AD664EF71E080E090E034
:10021000E3D0A895E2D280E0EBD285E890E0EED280
:10022000A89564EF71E080E090E0D6D0A895DF91CA
:10023000CF910895CF93DF93C7E6D0E041E064E02B
:100240008C819D81EDD041E064E08A819B81E8D082
:1002500040E063E088819981E3D040E064E08889F0
:100260009989DED08DE0D8D08AE0DF91CF91D4C0DB
:10027000CF93C82F86E790E034D186E690E031D165
:1002800083E690E02ED140E063E080918D00909174
:100290008E00C6D08EE590E024D140E063E08091EE
:1002A0008F0090919000BCD089E590E01AD140E099
:1002B00063E08091910090919200B2D08DE490E043
:1002C00010D18091820040E063E090E0A9D082E408
:1002D00090E007D1C13711F41092A200CF91089598
:1002E0001F920F920FB60F9211248F939F93AF938B
:1002F000BF9385E082BF8091E4009091E500A091DA
:10030000E600B091E7000296A11DB11D8093E400C4
:100310009093E500A093E600B093E700BF91AF9102
:100320009F918F910F900FBE0F901F90189597B1CE
:100330008F71907E892B87B9349A369A3699FECF81
:1003400084B125B190E0922B0895F89490E2899FB2
:10035000A001112420E030E080E090E0DC01F90110
:10036000E40FF51FEC55FF4F60817181860F971FD9
:10037000A11DB11D2E5F3F4F2032310581F77894CA
:1003800022E0B695A795979587952A95D1F7089578
:100390001F920F920FB60F9211240F900FBE0F9065
:1003A0001F9018951BBC1ABC82EB8FBD81E08EBDDF
:1003B000C198B99A0895811522E092072CF497FF0D
:1003C00005C080E090E002C08FEF91E09BBD8ABD48
:1003D00008958AB59BB508950F931F930091E4008B
:1003E0001091E5002091E6003091E700DC01CB019F
:1003F000800F911FA21FB31F0091E4001091E50030
:100400002091E6003091E70080179107A207B3071B
:1004100098F71F910F9108955D9BFECF8CB90895B9
:10042000BF92CF92DF92EF92FF920F931F93CF93E1
:10043000DF937C01162FB42E97FF05C0F194E19451
:10044000F10801E001C000E0112329F0812FC1E093
:10045000D0E09AE014C011E0C1E0D0E02AE0C7018A
:10046000BE0185D46A307105A0F0153091F0CE013F
:10047000289FE001299FD00D11241F5FF0CF81300C
:1004800041F09E01929FE001939FD00D1124815075
:10049000F6CF80E2C1DF002311F08DE201C080E2DF
:1004A000BBDF8AE0C82ED12CB11202C08EE2B4DFCD
:1004B0001150C701BE015BD4CB01B60158D4805D99
:1004C000ABDFCE01B60153D4EB01209769F7DF9182
:1004D000CF911F910F91FF90EF90DF90CF90BF9041
:1004E0000895CF93DF93FC018491EF012196882337
:1004F00019F092DFFE01F8CFDF91CF91089580913E
:100500006400811106C09091660080916500981783
:10051000D1F310926400809166008F5F8093660033
:100520008A3010F010926600E0916600F0E0E85129
:10053000FF4F8081089580916400811118C020913F
:10054000650090916600921728F480916500909163
:1005500066000BC02091650090916600291740F459
:100560008091650090916600865F891B08958AE0FE
:1005700008951F920F920FB60F9211248F939F939D
:10058000EF93FF93809165008F5F809365008A30C1
:1005900010F01092650090916600809165009813AC
:1005A00005C0809164008F5F80936400E0916500D6
:1005B0008CB1F0E0E851FF4F8083FF91EF919F9164
:1005C0008F910F900FBE0F901F9018951816190657
:1005D0005CF021E030E0892B11F420E030E0882746
:1005E0009927821B930B089581E090E0089597FF6F
:1005F00003C09195819591090895FA01811101C077
:1006000010828081681718F4108281E008958F5F4E
:10061000808380E00895FA01811102C01182108266
:1006200080819181681779072CF0019691838083EE
:1006300080E0089581E008958D9A8C9A8E9A8B9827
:10064000939A8F98979A8A98929AB898C09A81E0CC
:100650008093600008958B988F988A98B898C09A74
:1006600008958B9A8F9A8A9AB89A0895839B02C0AC
:1006700080E101C080E08799806282998064B099AE
:100680008068089584FF02C0939A01C0939885FF03
:1006900002C0979A01C0979886FF02C0929A01C043
:1006A000929887FF02C0C09A0895C0980895CF938A
:1006B000DF939598D0DF949A969A0000000000008E
:1006C000000000000000000000008091600088230E
:1006D00039F1C0E0D0E0CADF87FF1DC0C13D87E02F
:1006E000D807E1F0219680E080FD1EC096980000BA
:1006F00000000000000000000000000000000000FA
:1007000000000000000000000000000000008F5FFB
:10071000843051F7E0CFC03DD74014F01092600014
:100720009698DF91CF910895969AE1CF1F93CF933A
:10073000DF931F92CDB7DEB7162F8983B8DF89818B
:10074000813011F4959A01C095989498969A89DF12
:10075000812F807F97DF0000000000000000000074
:100760000000000000000000000000000000000089
:10077000000000000000969800000000000000004B
:100780000000000000000000000000000000000069
:100790000000000000000000969A812F8295807F63
:1007A00071DF0000000000000000000000000000F9
:1007B0000000000000000000000000000000000039
:1007C000000096980F90DF91CF911F9144CF682F32
:1007D00081E0ACCF682F80E0A9CF2EDF88E2FADF7E
:1007E00081E0F8DF86E0F6DF8CE0F4DF82E0F2CF34
:1007F0008295880F880F807C8068ECCFCF93DF9341
:10080000FC018491EF012196882319F0E0DFFE01BD
:10081000F8CFDF91CF910895CF93C82FCC2321F04B
:1008200080E2D5DFC150FACFCF910895BF92CF9229
:10083000DF92EF92FF920F931F93CF93DF937C0190
:10084000162FB42E97FF07C0F194E194F1088DE2C2
:10085000BEDF01E001C000E0812FC1E0D0E09AE0FE
:10086000823040F09E01929FE001939FD00D1124B1
:100870008150F6CF8AE0C82ED12CB11202C08EE290
:10088000A6DF1150C701BE0172D2CB01B6016FD2F3
:10089000009739F4B11628F4011103C080E297DF04
:1008A00003C0805D94DF01E0CE01B60160D2EB01B0
:1008B000209719F7DF91CF911F910F91FF90EF9043
:1008C000DF90CF90BF9008951EDC32E0832E912CF4
:1008D000A12CB12C4AE0242E312CC1E0DAE0A895FD
:1008E0002ADE882389F08091A200811107C007DEEB
:1008F0008D3651F4C093A20080E005C010927A00BA
:10090000C0937200FCDDB4DC8091E4009091E500BE
:10091000A091E600B091E70040919D0050919E00AB
:1009200060919F007091A00084179507A607B707F4
:1009300008F4CDC08091790091E0980F90937900F0
:10094000913021F480E090E036DD2EC0835082307B
:1009500058F581E0ECDC9C01A8E8B3E14BD2AB0197
:10096000BC012AE075956795579547952A95D1F76B
:1009700080916B0090916C00092E000CAA0BBB0BB0
:100980008A019B01080F191F2A1F3B1FC901B801CB
:10099000A501940113D230936C0020936B00253095
:1009A000304114F0C093790080917900853028F0AF
:1009B0008091670090916800FEDC80917900813120
:1009C00010F01092790080917A00882309F464C0B5
:1009D00080917100811160C0A0916900B0916A009E
:1009E00080916B0090916C00A81BB90BB0936E00C6
:1009F000A0936D0000916F00109170002D010B2EDF
:100A0000000C660877086801012E000CEE08FF084C
:100A10002CE330E0FBD16C0D7D1D8E1D9F1D24E667
:100A200030E040E050E0CAD169017A0130936800BB
:100A300020936700C9018C5A9E4F883A9240A0F4D7
:100A4000C301B2012AE030E040E050E0B7D1200F0E
:100A5000311F37FD05C03093700020936F0004C034
:100A60001092700010926F0035E5C31631E0D30686
:100A7000E104F10434F084E591E090936800809300
:100A80006700809167009091680097FF0DC01092F9
:100A900068001092670008C010926800109267000A
:100AA0001092700010926F0080919D0090919E00B6
:100AB000A0919F00B091A0004096A11DB11D809310
:100AC0009D0090939E00A0939F00B093A000809102
:100AD000E4009091E500A091E600B091E70040911C
:100AE000990050919A0060919B0070919C0084172E
:100AF0009507A607B70708F4A9C080E018DC8C01A9
:100B000080E015DC800F911F9C013695279530936E
:100B10007C0020937B002A30310558F410927A0033
:100B200010926A0010926900109271001092720087
:100B300026C080917200882339F000ED17E01093F1
:100B40006A00009369001BC0C0937A00A8ECB0E073
:100B500051D1AB01BC018AE07595679557954795D2
:100B60008A95D1F748535F4F6F4F7F4FD49FC00195
:100B7000D59F900D112490936A008093690080E0C6
:100B800037DE8CE390E03ADE80916B0090916C0050
:100B9000B10101D1CB0140E063E048DE8FED17DE0B
:100BA00089E390E02BDE8091690090916A00B101A9
:100BB000F2D0CB0140E063E039DE8FED08DE86E362
:100BC00090E01CDE81E014DE80E390E017DE80918F
:100BD0007100882319F08CE290E024C08091A1007C
:100BE000882339F0809172008823E9F088E290E050
:100BF00019C02091670030916800D29FC001D39F37
:100C0000900D112488341DE091072CF462E270E00D
:100C1000C2D0CB0102C083E690E040E062E006DE95
:100C200086E290E0EBDD8091990090919A00A0918E
:100C30009B00B0919C00C296A11DB11D80939900AC
:100C400090939A00A0939B00B0939C008091E40045
:100C50009091E500A091E600B091E70040919500E9
:100C600050919600609197007091980084179507B5
:100C7000A607B70708F433CE80917A00882309F4D9
:100C800055C081E0209167003091680024353140E3
:100C90000CF480E043E750E064E170E0BCDC8823C2
:100CA00031F081E0809371001092720037C0809122
:100CB000690090916A0061E470E06DD080916700F6
:100CC0009091680086179707BCF480916D00909111
:100CD0006E00C2978CF480917B0090917C002091F3
:100CE0007D0030917E00821B930B873F0FEF9007B2
:100CF0001CF0C1E00A970CF0C0E045E750E068E561
:100D000072E08C2F88DC8093720047E750E060E748
:100D100077E18C2F80DC811110927A0080917B002A
:100D200090917C0090937E0080937D00809195004F
:100D300090919600A0919700B091980088519C4F97
:100D4000AF4FBF4F8093950090939600A09397006C
:100D5000B093980081E09091A100911180E0809380
:100D6000A1008091A2008111B8CD64DAB6CDAA1B92
:100D7000BB1B51E107C0AA1FBB1FA617B70710F086
:100D8000A61BB70B881F991F5A95A9F780959095B8
:100D9000BC01CD01089597FB072E16F4009406D0F0
:100DA00077FD08D0E4DF07FC05D03EF490958195EF
:100DB0009F4F0895709561957F4F0895052E97FB7D
:100DC00016F400940FD057FD05D026D007FC02D0B2
:100DD00046F408C050954095309521953F4F4F4FB0
:100DE0005F4F089590958095709561957F4F8F4FD7
:100DF0009F4F0895A29FB001B39FC001A39F01D050
:100E0000B29F700D811D1124911D0895F3DFB7FF6E
:100E10000895821B930B0895A1E21A2EAA1BBB1BF7
:100E2000FD010DC0AA1FBB1FEE1FFF1FA217B307B6
:100E3000E407F50720F0A21BB30BE40BF50B661FCC
:100E4000771F881F991F1A9469F760957095809590
:100E500090959B01AC01BD01CF010895DC01CB0150
:100E6000FC01E199FECF06C0FFBBEEBBE09A3196D4
:100E70000DB20D9241505040B8F70895DC01CB01FE
:100E800002C02D9105D041505040D8F70895262F2B
:100E9000E199FECF9FBB8EBB2DBB0FB6F894E29AB3
:0C0EA000E19A0FBE01960895F894FFCF70
:020EAC00010043
:101C000012C021C020C01FC01EC01DC01CC01BC0F0
:101C10001AC019C018C017C016C015C014C013C010
:101C200012C011C010C011241FBECFE5D4E0DEBF2A
:101C3000CDBF20E0A0E6B0E001C01D92A636B207FD
:101C4000E1F764D08CC1DCCF5D9BFECF8CB90895E9
:101C5000CF93C82F282F880F330B207F332784E0A2
:101C6000359527958A95E1F72A30310514F087E5F7
:101C700001C080E3820FE8DF8C2F8F708A3014F070
:101C8000895A01C0805DCF91DFCF5F9BFECF8CB1C1
:101C90000895CF93DF93F9DFD82FD6DFF6DFC82F73
:101CA000D3DFD13614F0D75503C0D0330CF0D05366
:101CB000C13614F0C75503C0C0330CF0C0538C2F8D
:101CC00090E1D99F800D1124DF91CF910895CF939A
:101CD000C82FCC2319F0D9DFC150FBCFCF91089585
:101CE000CF93C82FD2DF803239F484E1ADDF8C2F5F
:101CF000ABDF80E1CF91A8CFCF910895C6DF8032CE
:101D000021F484E1A1DF80E19FCF08950000929A41
:101D10008A98B99AC19800000000829B05C0E091A2
:101D20006000F091610009958CE089B910BC88E1F0
:101D30008AB9ABDF803301F190EB980F9330E0F07C
:101D40008034D1F08134A1F4A0DF803811F482E036
:101D500003C0813819F481E0C3DFEBCF823811F47E
:101D60008FE0FACF883911F483E0F6CF80E0F4CF2A
:101D7000823421F484E1ABDFC1DFDBCF853411F4A1
:101D800085E0F9CF853539F480DF809362007DDF0F
:101D900080936300F1CF863579F477DF76DF75DFE6
:101DA000182F73DF113011F483E9D6CF123011F4FC
:101DB00087E0D2CF8EE1D0CF843609F08AC065DFCC
:101DC0008093650062DF809364005FDF08E610E0C7
:101DD0002091640030916500C801885690408217B8
:101DE000930728F452DFF80181938F01F1CF4DDF83
:101DF000803209F09ECF8091620090916300880F3D
:101E0000991F90936300809362002091640020FFEB
:101E10000AC020916400309165002F5F3F4F3093DE
:101E20006500209364002091640030916500820F6A
:101E3000931F81309C4108F04AC0F8941127E0912B
:101E40006200F0916300C8E6D0E080916400909158
:101E50006500103091F40091570001700130D9F302
:101E600003E000935700E89500915700017001309E
:101E7000D9F301E100935700E8950990199000917A
:101E8000570001700130D9F301E000935700E89545
:101E90001395103298F0112700915700017001300E
:101EA000D9F305E000935700E895009157000170C1
:101EB0000130D9F301E100935700E895329602977B
:101EC00009F0C7CF103011F00296E5CF112484E15C
:101ED00042C0843791F5D9DE80936500D6DE8093C9
:101EE0006400D3DE8091620090916300880F991F97
:101EF0009093630080936200C8DE803209F019CFAE
:101F000084E1A2DE00E010E0809164009091650021
:101F10000817190708F5E0916200F09163008491B9
:101F200093DE80916200909163000196909363002C
:101F3000809362000F5F1F4FE7CF853709F0F9CE1E
:101F4000A4DE803209F0F5CE84E17EDE8EE17CDE17
:101F500083E97ADE87E078DE80E176DEEACEF89407
:021F6000FFCFB1
:0400000300001C00DD
:00000001FF
