:101C000012C021C020C01FC01EC01DC01CC01BC0F0
:101C10001AC019C018C017C016C015C014C013C010
:101C200012C011C010C011241FBECFE5D4E0DEBF2A
:101C3000CDBF20E0A0E6B0E001C01D92A636B207FD
:101C4000E1F764D097C1DCCF5D9BFECF8CB90895DE
:101C5000CF93C82F282F880F330B207F332784E0A2
:101C6000359527958A95E1F72A30310514F087E5F7
:101C700001C080E3820FE8DF8C2F8F708A3014F070
:101C8000895A01C0805DCF91DFCF5F9BFECF8CB1C1
:101C90000895CF93DF93F9DFD82FD6DFF6DFC82F73
:101CA000D3DFD13614F0D75503C0D0330CF0D05366
:101CB000C13614F0C75503C0C0330CF0C0538C2F8D
:101CC00090E1D99F800D1124DF91CF910895CF939A
:101CD000C82FCC2319F0D9DFC150FBCFCF91089585
:101CE000CF93C82FD2DF803239F484E1ADDF8C2F5F
:101CF000ABDF80E1CF91A8CFCF910895C6DF8032CE
:101D000021F484E1A1DF80E19FCF0895929A8A981F
:101D1000B99AC1985F9909C08D9907C0829B05C087
:101D2000E0916000F091610009958FEF9FEF000056
:101D30000197E9F78CE089B910BC88E18AB981E4A0
:101D400083DF86E581DF82E57FDF9FDF803301F17E
:101D500090EB980F9330E0F08034D1F08134A1F40F
:101D600094DF803811F482E003C0813819F481E0F7
:101D7000B7DFEBCF823811F48FE0FACF883911F456
:101D800083E0F6CF80E0F4CF823421F484E19FDF5A
:101D9000B5DFDBCF853411F485E0F9CF853539F433
:101DA00074DF8093620071DF80936300F1CF86352A
:101DB00079F46BDF6ADF69DF182F67DF113011F408
:101DC00083E9D6CF123011F487E0D2CF8EE1D0CFA5
:101DD000843609F08AC059DF8093650056DF80930E
:101DE000640053DF08E610E0209164003091650044
:101DF000C801885690408217930728F446DFF801FF
:101E000081938F01F1CF41DF803209F09ECF809125
:101E1000620090916300880F991F909363008093F4
:101E200062002091640020FF0AC02091640030917C
:101E300065002F5F3F4F3093650020936400209131
:101E4000640030916500820F931F81309C4108F03F
:101E50004AC0F8941127E0916200F0916300C8E64F
:101E6000D0E08091640090916500103091F4009171
:101E7000570001700130D9F303E000935700E89553
:101E80000091570001700130D9F301E10093570030
:101E9000E895099019900091570001700130D9F32D
:101EA00001E000935700E8951395103298F0112740
:101EB0000091570001700130D9F305E000935700FD
:101EC000E8950091570001700130D9F301E10093CA
:101ED0005700E8953296029709F0C7CF103011F0FD
:101EE0000296E5CF112484E142C0843791F5CDDE1E
:101EF00080936500CADE80936400C7DE8091620033
:101F000090916300880F991F909363008093620003
:101F1000BCDE803209F019CF84E196DE00E010E0EB
:101F200080916400909165000817190708F5E09109
:101F30006200F0916300849187DE8091620090914D
:101F40006300019690936300809362000F5F1F4FC0
:101F5000E7CF853709F0F9CE98DE803209F0F5CE6B
:101F600084E172DE8EE170DE83E96EDE87E06CDE96
:081F700080E1EACEF894FFCFF6
:0400000300001C00DD
:00000001FF
