:101C000012C021C020C01FC01EC01DC01CC01BC0F0
:101C10001AC019C018C017C016C015C014C013C010
:101C200012C011C010C011241FBECFE5D4E0DEBF2A
:101C3000CDBF10E0A0E6B0E001C01D92A636B1070E
:101C4000E1F774D0DAC1DCCF5F9BFECF9CB1392FB6
:101C50005D9BFECF9CB95F9BFECF2CB1822F5D9B1D
:101C6000FECF2CB991361CF0392F375504C0903374
:101C700014F0392F305321361CF0822F875504C0C1
:101C8000203314F0822F80533295307F830F0895D4
:101C9000282F992787FD9095807F907034E0959547
:101CA00087953A95E1F78A3014F0895A01C0805D32
:101CB0005D9BFECF8CB9822F8F708A3014F0895AC9
:101CC00001C0805D5D9BFECF8CB908955D9BFECF0A
:101CD0008CB908955F9BFECF8CB1089504C05F9BC3
:101CE000FECF9CB181508823D1F70895982F5F9B38
:101CF000FECF8CB1803259F45D9BFECF84E18CB96C
:101D00005D9BFECF9CB95D9BFECF80E18CB90895B1
:101D10005F9BFECF8CB1803241F45D9BFECF84E1AE
:101D20008CB95D9BFECF80E18CB90895EF92FF9254
:101D30000F931F93CF93DF930000929A8A98B99ADA
:101D4000C19800000000829B05C0E0916000F09106
:101D5000610009958CE089B910BC88E18AB9E4E199
:101D6000EE2E70E1F72E5F9BFECF8CB1803309F42D
:101D70003EC08035E1F18135D1F18235C1F1803449
:101D8000B1F18134B1F45F9BFECF8CB1803811F496
:101D900082E003C0813819F481E0A8DFE4CF823803
:101DA00011F48FE0FACF883911F483E0F6CF80E0A8
:101DB000F4CF823439F484E15F9BFECF9CB1815033
:101DC000D9F715C0853439F485E05F9BFECF9CB10F
:101DD0008150D9F70CC0853561F45F9BFECF8CB183
:101DE000809362005F9BFECF8CB18093630090DF95
:101DF000BACF8635B1F45F9BFECF8CB15F9BFECF2F
:101E00008CB15F9BFECF8CB15F9BFECF9CB18130CC
:101E100011F483E9C2CF823011F487E0BECF8EE1A6
:101E2000BCCF843609F090C05F9BFECF8CB180930D
:101E300065005F9BFECF9CB1909364005F9BFECFDB
:101E40008CB14091640050916500E8E6F0E09A01A1
:101E50002E0F3F1F04C05F9BFECF8CB18193E21712
:101E6000F307C9F75F9BFECF8CB1803209F07BCFBF
:101E70002091620030916300220F331F3093630082
:101E80002093620090FF06C04F5F5F4F5093650044
:101E9000409364008091640090916500280F391F81
:101EA00021503C4108F04AC0F8941127E0916200AB
:101EB000F0916300C8E6D0E08091640090916500E5
:101EC000103091F40091570001700130D9F303E014
:101ED00000935700E8950091570001700130D9F345
:101EE00001E100935700E89509901990009157007F
:101EF00001700130D9F301E000935700E895139584
:101F0000103298F011270091570001700130D9F379
:101F100005E000935700E8950091570001700130EB
:101F2000D9F301E100935700E8953296029709F042
:101F3000C7CF103011F00296E5CF11245D9BFECF84
:101F4000ECB85D9BFECF57C08437D9F55F9BFECFC1
:101F50008CB1809365005F9BFECF8CB18093640051
:101F60005F9BFECF8CB12091620030916300220F05
:101F7000331F30936300209362005F9BFECF8CB1D0
:101F8000803209F0F0CE5D9BFECFECB8609164002A
:101F90007091650080E090E008C0FC01E20FF31F43
:101FA00044915D9BFECF4CB9019686179707A8F325
:101FB000260F371F30936300209362005D9BFECF96
:101FC0001AC0853709F0CFCE5F9BFECF8CB180322F
:101FD00009F0C9CE5D9BFECFECB85D9BFECF8EE1D4
:101FE0008CB95D9BFECF83E98CB95D9BFECF87E00A
:0E1FF0008CB95D9BFECFFCB8B6CEF894FFCF47
:0400000300001C00DD
:00000001FF
